:020000041806DC
:101D4C0010B5024B01221B68984710BDA4BA0000C5
:101D5C0010B5024B00221B68984710BDA4BA0000B6
:101D6C0010B5024B01221B68984710BDA4BA0000A5
:101D7C0010B5024B00221B68984710BDA4BA000096
:101D8C00F8B500262A4D04002E701CF0BBF8294B28
:101D9C0030001A68284B92B219681BF03BFD274B98
:101DAC0001201A68264B92B219681BF033FD254BA3
:101DBC0002201A68244B92B219681BF02BFD28786C
:101DCC001CF032FE214930001DF05EF8287800F03E
:101DDC009FFA287803F016FB28781BF08DF8B44294
:101DEC0009D01B4B9C4202D01A4B9C4208D11A4B77
:101DFC0020001B68984701232B701AF0C3FFF8BD15
:101E0C0001231022310015481BF082FC144B0700F3
:101E1C009C4205D101230370380000F0B7F9EAE7C2
:101E2C00104B3200210003201B689847F4E7C04692
:101E3C0020BF0000C8BE0000A4BE0000CCBE000045
:101E4C00A8BE0000D0BE0000ACBE000014CE071827
:101E5C00A5A5A5A5C3C3C3C3D8BE0000031100002C
:101E6C00F2F2F2F224BF00001022F0B56E4B85B0F6
:101E7C001C6814420BD001216C4B49421A606C4B0C
:101E8C0019606C490B6893430B6002F01BFC202219
:101E9C0014420BD00121654B49421A60644B5960C6
:101EAC0064490B6893430B6002F03CFB01273C42F6
:101EBC0037D05E4B5E4D1F606B8B3B4231D002A81E
:101ECC001AF0E0FF5B4E029B01933368BB43336017
:101EDC002B685A1C0BD0019A9A4208D1012310226C
:101EEC005B422B6033689343336002F0EBFB6B680F
:101EFC005A1C0BD0019A9A4208D1012320225B4232
:101F0C006B6033689343336002F00CFBAB685A1C74
:101F1C0004D0019A9A4201D11AF09AFF01201BF0C9
:101F2C00F7F880252D022C4203D002F077FD3F4BB1
:101F3C001D6002231C4247D03C4E082033603E4BB0
:101F4C001F681BF0E5F801201AF0C2FF3B4B9F42C3
:101F5C0005D900223A4B110001201B689847394BD8
:101F6C001B78002B53D0384B38001B689847070060
:101F7C0038003649FFF7ECFE8023354A1B06034335
:101F8C0013609C23314D9B004543ED1BED18ADB206
:101F9C00AB0A05D000222A4B110001201B68984780
:101FAC0008212C4B2C4A1D6013680B431360214AEB
:101FBC002A4913680B400121136013688B430B43B0
:101FCC00136031601CF0BAFF40231C4203D0174A47
:101FDC0013601AF03DFF04252C420BD0134B10203C
:101FEC001D601BF095F8134A01201368AB43136076
:101FFC001BF018FF0822144207D00C4B0D491A6035
:10200C000B6893430B6002F005FB05B0F0BD3D255A
:10201C00074AF9001369FB186F435B18180ADBB207
:10202C0013613F18A4E7C0461C000050200000506C
:10203C0034BF000018000050380000507F841E0090
:10204C0024BF000030BF00002CBF00007102000054
:10205C00440000504000005030000050FFFFFF8F44
:10206C0070B580256D020B4A1368002B11D02B42E2
:10207C00FAD0094B094C1D60094B032019681A68EA
:10208C002368120C984700220120110023689847FE
:10209C00E9E770BD100000501400005024BF000090
:1020AC006000005010B5034B5B8BDB0701D41BF0B9
:1020BC00FDFE10BD34BF00000120704701207047A9
:1020CC00F8B507000E001500034C20001CF0E8F9D1
:1020DC00A760E6602561F8BD5CBF0000F0B59C27E9
:1020EC00002685B000900191BF00124D009B6A69DB
:1020FC0001369C18019BAA6924019B182409BB4238
:10210C0004D90D4A0134240124099B1802A86C61DE
:10211C00AB611BF07DF9029B01331C1B074B2401A7
:10212C0024099C42E1D96869A9691BF00DF83000BB
:10213C0005B0F0BD5CBF000090FDFFFFFEFFFF0788
:10214C0073B56C460E00050020001BF061F9044BC2
:10215C002800143306CC06C33100FFF7BFFF73BD54
:10216C005CBF0000083810B50100040006481CF0E4
:10217C00FFF9002807D0A088FF22E1881BF006FB9E
:10218C0020001BF0EDFB10BD5CBF0000F8B5060095
:10219C000C3883881D4A934205D01D4A934223D0A4
:1021AC0000F02AFB1FE0037A3F2B1FD85A1ED2B235
:1021BC001849D4080F5D07240125224017412A0035
:1021CC00BA432F420BD03E2B09D13278013AD3B20D
:1021DC00DA0889180A7C23401A4195432A00002A00
:1021EC00DED01BF0DAFAF8BD3E23DFE7582BD7D848
:1021FC00403BDBB2074AD90852180721127A0B4030
:10220C001A41130001229A43E9E7C046031100006A
:10221C0004110000ACBA000070B50C4B04001A7825
:10222C00824204D80A4B01001B6803209847094DD1
:10223C002B681B5D002B05D00022054B11000120E3
:10224C001B68984701222B681A5570BDD4BE00003C
:10225C0024BF0000A8BA000070B50C4B04001A781B
:10226C00824204D80A4B01001B6803209847094D91
:10227C002B68195D002904D1054B0A0001201B684D
:10228C00984700222B681A5570BDC046D4BE00007A
:10229C0024BF0000A8BA0000030010B504292AD8F6
:1022AC0008001CF057FE0303091023000A0003204A
:1022BC00144B1B68984717E0082219001248801825
:1022CC001CF074FE10E0104C1900200008221CF0C9
:1022DC006DFE002320000D4C0278195D01330A437A
:1022EC0002700130082BF7D1002010BD06480822DF
:1022FC0019001030E4E70022024B110001201B688A
:10230C00D8E7C04624BF0000ACBA000080230618F2
:10231C0070B50223050004009D4315D11822290035
:10232C000B481CF05FFE0B4B29001A780A4B1868FF
:10233C001CF058FE03210948FFF7AEFF04210848A2
:10234C00FFF7AAFF01F022FE200000F0D9FA70BDC1
:10235C00ACBA0000D4BE0000A8BA00007023061866
:10236C0078230618FFFFFFFFFF9F00201F000000CF
:10237C000000000000600400F8074002F0B5A44B18
:10238C0087B01C68002C09D101F042FE002800D156
:10239C008BE09F4B9C68002C00D186E09C4B1C6111
:1023AC00A1889C4BC818052800D927E11CF0E6FD34
:1023BC00060058007F00D00026011101944B5B7D74
:1023CC005BB2042B02DC924A013353750E26E31DDB
:1023DC00039302AB2589F61863892800338001F03A
:1023EC00E3F9021E1FD03388002B1CD08768002F06
:1023FC0017D0200092780C307F2A0DD801003200C3
:10240C0000971BF0F7FD0100002910D02A00824B29
:10241C001B68032098470AE001003200B847C1B29C
:10242C00F2E70421F2E7002D15D0012323730E23CC
:10243C00E3713288764B0332D2B222725B7D191C67
:10244C005BB2002B00DA0021A5722D0A6172E572D5
:10245C000420023222E0704B290032881B68D8E736
:10246C006B4B5B7D5BB2042B02DC694A0133537509
:10247C000F22E31D0393E2710B3A23892272227B14
:10248C006272634A527D111C52B2002A00DA00219A
:10249C0004200622E3721B0AA172237300235C49F9
:1024AC000B755E4B03991CF01BFD07B0F0BD2300B0
:1024BC000E270A33039302AB2189FF186389CEB22E
:1024CC003B80FF2904D9544B002203201B689847FA
:1024DC00300001F09BF9021E33D04568002D19D055
:1024EC00200092783B880C30002A0ED100953A00DF
:1024FC0001001BF07FFD0500002D0ED0464B320075
:10250C00290003201B68984708E03A000100A847FF
:10251C00C5B2F1E76389002B11D1002562893B8894
:10252C009A4205D23C4B3200290003201B68984785
:10253C000E2302AAA6729B181B88E37206E00425E0
:10254C00DCE7354B310003201B689847E27A7FE7C4
:10255C0023000A330393267B638902AAD3813000BC
:10256C0001F066F9021EECD04568002D2FD020003A
:10257C00927802ABDB890C30002A21D102A90E32F1
:10258C000095521801001BF035FD0500002D05D0FB
:10259C00214B3200290003201B6898470E2702AB01
:1025AC00FF18398863898B4204D21B4B32000320FD
:1025BC001B689847002DC9D13E23A3723B88BCE70A
:1025CC000E2202A952180100A847C5B2DEE7042565
:1025DC00DEE7216912480B1F0918A28903911149E2
:1025EC005A541149120A5A54E2891049100A5A5481
:1025FC000F490432585492B202204FE7064B002286
:10260C0003201B68984700200200039046E7C04651
:10261C00C8BA0000FFEEFFFF24BF000041260618D9
:10262C00FC3F005000400050014000500240005060
:10263C00034000502E4B70B52E4C1B6825699847F3
:10264C002D4BAA8806009A4212D12B7B022B04D068
:10265C000222190091430D2924D1217E002905D194
:10266C00264B0A0001201B68984701E001392176AE
:10267C0001232375A988224B99421BD8053B99420B
:10268C002FD92369002B03D020001BF067FF050016
:10269C0028001BF082F81B4B30001B689847FFF793
:1026AC006DFE70BD152BE3D1E17D0029D8D0013929
:1026BC00E175DDE7144B994213D1200008301BF073
:1026CC004DFF124B1A78AB891B051B0D9A4203DD8B
:1026DC002B6998B203F038F80023236101F082FCD7
:1026EC00CFE7064B002203201B689847C9E7C0467A
:1026FC00C0BE0000C8BA00000411000024BF0000D6
:10270C0005110000C4BE000006110000D4BE00007C
:10271C00F0B587B006000D001700039300285AD0BF
:10272C008468002C4FD083787F2B29D80E2202A9E5
:10273C005218002100940800294B1BF05BFD04008B
:10274C00002C38D1B36802221800264902931CF0E1
:10275C001FFC0E2302AA9B181E88002819D12A00E0
:10276C002100330020481AF0D3FF02220400077026
:10277C00023003991CF01AFC2000FFF707FD20E043
:10278C0000230E2202A9521818001900A047C4B247
:10279C00D6E70322154902981CF0FAFB33002A00F5
:1027AC00210000281AD110481AF0B2FF06220400AA
:1027BC0007700130DDE70E4B2A00210003201B6857
:1027CC00984707B0F0BD0A000123210009481AF010
:1027DC009FFF0770D1E70A00012301000248F6E7CA
:1027EC00FFFF000082A7061801110000B938061877
:1027FC0024BF0000021100003B4B70B505001B68A4
:10280C009847AB88394A0600394C934205D12000D1
:10281C00290008301BF05AFE36E0364A934207D1A5
:10282C002B7B0F2B3AD006D8022B27D00D2B0AD09E
:10283C0029002000EEE7152BFAD1E37D032B20D8DD
:10284C000133E375F4E7EB89E97D5B069B0F012906
:10285C000DD1627E022A39D0002A02D1227E032AAF
:10286C0034D8013B5A425341DAB2002331E0A27E04
:10287C00F0E7012300222CE0A2762DE0237E032B2F
:10288C001DD928001AF089FF1B4B30001B68984794
:10289C00237D012B01D1FFF771FD70BD174AA97B78
:1028AC001068EB7C4218415C022918D0002902D137
:1028BC00217E032913D8013B59424B411370237ECF
:1028CC0001332376B4E700231370DAE7012BD0D160
:1028DC0002220129D0D16276002BF0D0D1E7012B56
:1028EC00F1D10223F0E7C046C0BE00000611000083
:1028FC00C8BA000004110000C4BE0000C4BA000035
:10290C0070B5051E0C4C14D101001C2220001CF0CB
:10291C0069FB0A4B29001A78094B18681CF062FBFA
:10292C0020001BF0BDFD200008301BF0B9FD012379
:10293C0023750523637570BDC8BA0000D4BE0000B2
:10294C00C4BA000010B500F02FFFFF23002800D000
:10295C00C378D8B210BD0000F0B589B00500039162
:10296C00029200F021FF5C4C0700637D7F2B05D9A0
:10297C0000225A4B110001201B689847584B9D426E
:10298C0002D0637D013B6375002F00D1A1E0637D14
:10299C007F2B00D96CE00F21BB78049319400829D8
:1029AC0045D808001CF0D6FA0526052643434343B8
:1029BC004A0000260E2204ABD21800239C4613803A
:1029CC00039B634541D07C68644554D040216B46E1
:1029DC0004989B89084005900498084230D10094D3
:1029EC00029905981BF006FC0400012C2ED1002343
:1029FC00122217E0039B012B12D9029B1A785B78E9
:102A0C001B021343374A12789A4209DD364A126880
:102A1C00D25C002A04D001221B0213439EB2C9E7E8
:102A2C000222029B29003800FFF772FE04E02B4BB8
:102A3C002A0003201B68984709B0F0BD0226B9E7AD
:102A4C0060460299A047C4B2CFE7039C04AB3100A7
:102A5C002A00DB8925481AF05BFE0600002C05D005
:102A6C001E4B2A00210003201B689847002E04D11E
:102A7C0000230722D6E70424E8E704ABDB89002B0C
:102A8C0012D07B689C46002B0ED06B46BA789B8983
:102A9C00520615D4624600920E2204A95218300038
:102AAC0002991BF0A7FB0400002C05D00B4B2A004D
:102ABC00210003201B68984730001AF04DFEBBE73D
:102ACC000E2204A96446521830000299A047C4B2E1
:102ADC00EAE73B000122A5E7C8BA000024BF0000CA
:102AEC00350C0000D4BE0000A8BA0000051100008F
:102AFC0070B5134A0C00117802050300120D00206A
:102B0C0091420BDD9B0B834208D11800FB2C05D89E
:102B1C0002F060FE011E02D00A4BC01870BD0123EA
:102B2C001A2209481AF0F4FD01250570FFF72EFB57
:102B3C00290020001AF088FE044B9D75EEE7C04674
:102B4C00D4BE00000040005003110000C8BA0000C1
:102B5C00F8B5174B06009C7D0D001700002C06D015
:102B6C0010001AF0FDFE0023114A9375F8BD114BAD
:102B7C0001051B78090D8B4212DD01230902194353
:102B8C0022000D4889B207331AF0C2FD0680458039
:102B9C00002D01D0094BFC1844601AF0DDFDE5E76F
:102BAC00074B0200290003201B689847DEE7C0464C
:102BBC00C8BA0000D4BE00000611000000C0FFAF70
:102BCC0024BF0000F8B50D0006A90E7801680700B7
:102BDC0088190124824211D31C1E09D02A68286846
:102BEC009419A342A4413200644264001CF0DEF943
:102BFC003B689B193B602B689E192E602000F8BD2A
:102C0C00F0B589B00500029103920691002940D0DD
:102C1C00CE18012317880790C719009332003B0088
:102C2C0007A906A8FFF7CEFF0400031E26D0079BBA
:102C3C005D1B039B1D80200009B0F0BD0133059383
:102C4C005B000493EB18079302233200009307A94F
:102C5C003B0006A8FFF7B6FF002818D1049A07A975
:102C6C000232AB18079302233200009306A83B00F4
:102C7C00FFF7A8FF00280AD16B461B7D0299079A23
:102C8C000978521B9942D2D9062AD7D9CFE704002A
:102C9C00CDE70623039A029C1380CCE7F0B599B0DC
:102CAC001D0002903A23081E0592079160D0029BEA
:102CBC00002B61D001271488029B1C190126029B52
:102CCC00451908932A002300009608A907A8FFF7C6
:102CDC0079FF002849D1029B2A009B190893009682
:102CEC00230008A907A8FFF76DFF00283DD1029B20
:102CFC002A00023308930096230008A907A8FFF7BF
:102D0C0061FF002831D1029B2A000333089306236C
:102D1C0008A9009307A82300FFF754FF002824D12B
:102D2C00029B2A00093308930096230008A907A8E0
:102D3C00FFF748FF002818D1029B597A039000290D
:102D4C0021D1039B032B04D9434B0A0001201B68A0
:102D5C0098477F4200233C400227029E049318367A
:102D6C00039B049A934216DC0020089B029A9B1A40
:102D7C00059A138019B0F0BD4E2404ABE41809ABCE
:102D8C00029F02939AE7314203D0039B0133DBB2DB
:102D9C0003934908D3E733000E3B08932A00230022
:102DAC00009708A907A8FFF70DFF0028DDD1330015
:102DBC000C3B08932A002300009708A907A8FFF7EB
:102DCC0001FF0028D1D133000A3B08932A002300CD
:102DDC00009708A907A8FFF7F5FE0028C5D1330016
:102DEC00083B08932A002300009708A907A8FFF7BF
:102DFC00E9FE0028B9D1B31F08932A0023000097DD
:102E0C0008A907A8FFF7DEFE0028AED1331F0893F0
:102E1C002A002300009708A907A8FFF7D3FE002873
:102E2C00A3D1B31E08932A002300009708A907A872
:102E3C00FFF7C8FE002898D123002A00009708A9A4
:102E4C0007A80896FFF7BEFE1036002800D08CE7C6
:102E5C00049B0133049383E724BF0000F0B58DB0CD
:102E6C0007001D000800102305920691002941D08F
:102E7C00002F43D00123148804933C1901264519D3
:102E8C0023002A00009607A906A80797FFF79AFEC9
:102E9C0000282DD1BB1907932A002300009607A9FF
:102EAC0006A8FFF78FFE002822D1BB1C07932A002F
:102EBC002300009607A906A8FFF784FE002817D167
:102ECC00B978039000291DD1039B022B04D9254B03
:102EDC000A0001201B689847049B5E4234403E0068
:102EEC00002308360493049A039B934212DC0020BF
:102EFC00079BDB1B059A13800DB0F0BD04970CAC3F
:102F0C0008AFBBE7314203D0039B0133DBB2039321
:102F1C004908D7E7331F079301232A00009307A919
:102F2C00230006A8FFF74EFE0028E1D1B31E07933D
:102F3C0002232A00009307A9230006A8FFF742FEEC
:102F4C000028D5D102232A00009307A9230006A844
:102F5C000796FFF737FE06360028C9D1049B0133CC
:102F6C00C0E7C04624BF0000F0B58BB007000C1EB4
:102F7C000492069166D0002832D01588012245199A
:102F8C0005920126E3180393039A2B00009607A9D8
:102F9C0006A80797FFF716FE041E1AD1BB19079354
:102FAC00039A2B00009607A906A8FFF70BFE041E38
:102FBC000FD17B783F2B05D9244B020001001B68F5
:102FCC0030009847059B5E42354000267B78B34223
:102FDC000AD8079BD81B049B188020000BB0F0BDAF
:102FEC0005900AAD08AFCCE7B31C0593FB1807930B
:102FFC000123039A009307A92B0006A8FFF7E2FD13
:10300C0000281DD1B21C53000222FB18079300921A
:10301C002B00039A07A906A8FFF7D4FD00280FD1AF
:10302C00B31DFB1807930123039A009307A92B00E8
:10303C0006A8FFF7C7FD002802D10136F6B2C5E796
:10304C000400C6E70823049A1380C6E724BF0000D7
:10305C00F0B5B7B007001D000492002900D1C7E0FD
:10306C00002800D19FE01688861901234D19009382
:10307C002A00330008A907A808970797FFF7A2FDB5
:10308C00041E00D088E0BB1C079302232A00009387
:10309C0008A9330007A8FFF795FD041E00D07BE0BC
:1030AC003B1D079301232A00009308A9330007A8AE
:1030BC00FFF788FD041E6FD17B1D079301232A00A7
:1030CC00009308A9330007A8FFF77CFD041E63D109
:1030DC00BB1D079302232A00009308A9330007A8FD
:1030EC00FFF770FD041E57D13B00083307930123F3
:1030FC002A00009308A9330007A8FFF763FD041EFC
:10310C004AD13B000933079301232A00009308A9F5
:10311C00330007A8FFF756FD041E3DD13B000A33D0
:10312C00079301232A00009308A9330007A8FFF78F
:10313C0049FD041E30D13B000B33079301232A00B9
:10314C00009308A9330007A8FFF73CFD041E23D108
:10315C003B000C33079302232A00009308A9330089
:10316C0007A8FFF72FFD041E16D1BB7B2A00059381
:10317C003B000E330793012308A9009307A83300E3
:10318C00FFF720FD041E07D13B0010330293039080
:10319C00059B039A934209DC089BD81B049B18805F
:1031AC00200037B0F0BD36AE09AF5EE7029B2A00B7
:1031BC00013B0793012308A9009307A83300FFF7ED
:1031CC0001FD002812D10123029A009307923300CB
:1031DC002A0008A907A8FFF7F5FC029B023302930B
:1031EC00002803D1039B01330393D1E70400D3E7F9
:1031FC00049B0C001980D3E7F0B5B7B007001D0095
:10320C000492002900D1BAE0002800D193E016887E
:10321C00861901234D1900932A00330008A907A829
:10322C0008970797FFF7CEFC041E00D07CE0BB1C70
:10323C00079302232A00009308A9330007A8FFF77D
:10324C00C1FC041E70D13B1D079301232A0000937F
:10325C0008A9330007A8FFF7B5FC041E64D1BB1DF9
:10326C00079302232A00009308A9330007A8FFF74D
:10327C00A9FC041E58D13B000833079301232A00F4
:10328C00009308A9330007A8FFF79CFC041E4BD140
:10329C003B000933079301232A00009308A933004C
:1032AC0007A8FFF78FFC041E3ED13B000A3307939F
:1032BC0001232A00009308A9330007A8FFF782FC1A
:1032CC00041E31D13B000B33079301232A000093DA
:1032DC0008A9330007A8FFF775FC041E24D13B0096
:1032EC000C33079302232A00009308A9330007A884
:1032FC00FFF768FC041E17D1BB7B2A0005933B002B
:10330C000E330793012308A9009307A83300FFF796
:10331C0059FC041E08D13B00103302930023039385
:10332C00039A059B934209DC089BD81B049B1880CD
:10333C00200037B0F0BD36AE09AF6AE7029B2A0019
:10334C00013B0793012308A9009307A83300FFF75B
:10335C0039FC002811D10123029A00930792330003
:10336C002A0008A907A8FFF72DFC029B0233029341
:10337C00002802D1039B0133D1E70400D4E7049B5E
:10338C000C001980D4E7F0B5C9B00C001D000390F7
:10339C000592002900D1E0E000282CD0168886196F
:1033AC00039B65190793069301232A00009307A931
:1033BC00330006A8FFF706FC041E14D1039B2A0059
:1033CC0001330693012307A9009306A83300FFF7E6
:1033DC00F9FB041E07D1039F04901937039B049A31
:1033EC005B7893420BDC079B039A981A059B188019
:1033FC00200049B0F0BD08AB48AE0393D0E73B00CA
:10340C00173B069302232A00009307A9330006A852
:10341C00FFF7D8FB002800D09DE03B00153B06933E
:10342C0001232A00009307A9330006A8FFF7CAFB63
:10343C00002800D08FE03A000623143A069200933D
:10344C002A00330007A906A8FFF7BCFB002800D010
:10345C0081E03A0001230E3A069200932A003300D1
:10346C0007A906A8FFF7AEFB002874D13A00012388
:10347C000D3A069200932A00330007A906A8FFF71D
:10348C00A1FB002867D13A0001230C3A0692009365
:10349C002A00330007A906A8FFF794FB00285AD18D
:1034AC003A0001230B3A069200932A00330007A935
:1034BC0006A8FFF787FB00284DD13A0001230A3AF2
:1034CC00069200932A00330007A906A8FFF77AFB9F
:1034DC00002840D13A00093A0692022233000092A9
:1034EC0007A92A0006A8FFF76DFB002833D1FB1FA4
:1034FC00069301232A00009307A9330006A8FFF7BF
:10350C0061FB002827D1BB1F069306232A000093DA
:10351C0007A9330006A8FFF755FB00281BD1012390
:10352C002A00009307A9330006A80697FFF74AFB69
:10353C00002810D13B787A1C069200932A003300A5
:10354C0007A906A8FFF73EFBFE37002803D1049B12
:10355C000133049342E7040045E7059B198047E7D4
:10356C00F0B58FB006000C001D000592002900D1AB
:10357C0086E0002829D01788C71901236519009304
:10358C002A003B0008A907A808960796FFF71AFB24
:10359C00041E13D1731C079301232A00009308A95E
:1035AC003B0007A8FFF70EFB041E07D133001133B5
:1035BC00039304907378049A93420BDC089B9E1B34
:1035CC00059B1E8020000FB0F0BD262704ABFF1812
:1035DC0009AED2E7039B2A000F3B0793012308A9EE
:1035EC00009307A83B00FFF7EDFA002846D1012312
:1035FC00039A00930E3A07923B002A0008A907A8E9
:10360C00FFF7E0FA002839D1039A3B000D3A0792F4
:10361C00062208A9009207A82A00FFF7D3FA00286F
:10362C002CD103992A00CB1F0793012308A90093DF
:10363C0007A83B00FFF7C6FA00281FD10622039902
:10364C0000928B1F07932A003B0008A907A8FFF7DD
:10365C00B9FA002812D10123039A009307923B0078
:10366C002A0008A907A8FFF7ADFA039B10330393B0
:10367C00002803D1049B013304939BE704009DE7CE
:10368C00059B19809EE7F0B595B00C001D000390CA
:10369C000592002900D184E000282CD016888619C8
:1036AC00039B65190893079301232A00009308A92B
:1036BC00330007A8FFF786FA041E14D1039B2A00D7
:1036CC0001330793012308A9009307A83300FFF7E0
:1036DC0079FA041E07D1039F04900A37039B049ABE
:1036EC005B7893420DDC089B039A981A059B188013
:1036FC00200015B0F0BD3F2604ABF61809AB0393C0
:10370C00CEE73B00083B079301232A00009308A94E
:10371C00330007A8FFF756FA002840D1FB1F079388
:10372C0001232A00009308A9330007A8FFF74AFADF
:10373C00002834D10622BB1F0793009233002A00C5
:10374C0008A907A8FFF73EFA002828D101232A0070
:10375C00009308A9330007A80797FFF733FA00284E
:10376C001DD13B787A1C079200932A00330008A9DC
:10377C0007A8FFF727FA002811D13A0001232032BD
:10378C00079200932A00330008A907A8FFF71AFA3A
:10379C002937002803D1049B013304939EE70400CE
:1037AC00A1E7059B1980A3E78205920D830A012BE3
:1037BC0019D0032B19D0042B19D0052B19D0082B99
:1037CC0019D000203F2B0DD13A3B0F49DB00CB1811
:1037DC0058685988002805D00C234B43C3189842CD
:1037EC000BD1002070470023EFE70123EDE7022304
:1037FC00EBE70323E9E70423E7E701888905890D53
:10380C009142EFD00C30EAE75C390618002310B572
:10381C0002000648D9000C5C944201D1401810BD3E
:10382C000133092BF6D10020F9E7C046903E06186B
:10383C000200002310B50549DC0060180C5D9442B1
:10384C0003D00133182BF7D1002010BDD83E061839
:10385C004242484242364248484842004242484866
:10386C0048480042424838420042483842480042E8
:10387C00424842423642364236424848484200426A
:10388C0042363442004242333242004242484242C3
:10389C00004242484242364242484200424842427A
:1038AC0042426E420042424248420042424236424A
:1038BC00004242484848424236424248420042484E
:1038CC0048484C004248334233424242423642421C
:1038DC00424242424242004238420048484242423E
:1038EC003642424200423331420042484842420092
:1038FC0048484242364242484848484848004248B4
:10390C003542004838424831364200423642313660
:10391C004231364200484242424800424848480040
:10392C0042424848004242423642484842004236EF
:10393C004242004242424242426E420048424848A1
:10394C00420036344242004242484248480000009D
:10395C0001000200303E0618030009008C390618DD
:10396C0004000400F839061805000100483E06184A
:10397C0008005600283A06183F000500543E061869
:10398C00010C0008E4380618F4380618030C000083
:10399C0000000000F43806182D0C1103A538061889
:1039AC00A4380618310C0001F4380618F43806183F
:1039BC00330C000755390618F4380618350C401E20
:1039CC000D2C0618F43806187B0C110283A7061868
:1039DC002D3906187C0C11042E39061882A70618EE
:1039EC00630C0008E4380618F438061801100000BF
:1039FC0000000000533906180210000000000000FF
:103A0C008C3806180310000000000000E33806187C
:103A1C000910000000000000B93806183920422AAD
:103A2C00752F0618F438061836200219D0380618E7
:103A3C0050390618372002FF42390618F438061898
:103A4C0001200208E4380618F43806180220020097
:103A5C0000000000A438061803200200000000003B
:103A6C00E3380618052002061E390618F438061825
:103A7C000720020000000000503906180620020F33
:103A8C00E7380618F438061808200220F138061812
:103A9C00F438061809200220F1380618F4380618F4
:103AAC000A200201F4380618F43806180B20020715
:103ABC00F6380618F43806180C200202503906188D
:103ACC00F43806180D200219FC3806180000000006
:103ADC000E20020000000000F43806180F2002002F
:103AEC0000000000503906181020020000000000F1
:103AFC00F438061811200207B9380618F4380618DD
:103B0C0012200207B9380618F43806181320130EC1
:103B1C009AA7061800000000142002050C3906189C
:103B2C00F43806181520130283A706180A3906184C
:103B3C001620130283A7061800000000172002208D
:103B4C001A3906181C39061818200200000000004B
:103B5C00E33806181920131C0F3906180000000052
:103B6C001A2013121239061882A706181B201302EA
:103B7C0083A7061882A706181C200200000000006C
:103B8C00E33806181D200201F4380618F43806181C
:103B9C001E200203ED380618F43806181F20020008
:103BAC000000000082A706182020130E9AA7061802
:103BBC0082A7061821201303A538061882A7061819
:103BCC00222013062839061882A706182320020083
:103BDC00000000002D390618242002042E39061886
:103BEC00F438061825200200000000000000000038
:103BFC00262002408D3806180000000027200227DE
:103C0C0017390618F438061828200207B938061890
:103C1C00F43806182920020000000000F4380618B9
:103C2C002A20020000000000503906182B20020741
:103C3C00B9380618B93806182C200207B9380618F6
:103C4C00B93806182D200201F4380618F438061875
:103C5C002E20020283A70618F43806182F20020023
:103C6C0000000000693806183020130283A70618DC
:103C7C009838061831200203ED380618F438061867
:103C8C0032201307213906180000000033200203EC
:103C9C00ED380618F438061834200204DE380618FD
:103CAC00F438061835200207B9380618F438061807
:103CBC00382002FF42390618F43806183A20020060
:103CCC000000000082A706183B2002000000000044
:103CDC00503906183C200201F4380618F43806183E
:103CEC003D20020000000000F43806183E200207B8
:103CFC0027390618F43806183F2002FF43390618F6
:103D0C00F43806184020020250390618F438061808
:103D1C004120420D692E0618F4380618422002067E
:103D2C002C390618F43806184320423AA92C0618E8
:103D3C00000000004420020E31390618000000007B
:103D4C004520020000000000F4380618462002024C
:103D5C0083A70618F4380618472002083A390618C3
:103D6C00F4380618482002083A390618F4380618B0
:103D7C004920020000000000F43806184A20020016
:103D8C0000000000503906184B2002000000000013
:103D9C00ED3806184C200200000000002D390618E2
:103DAC004D2002042E390618F43806184E2002084D
:103DBC003A390618F43806184F2002523F390618C3
:103DCC00F4380618502002523F390618F4380618F9
:103DDC0059200203A5380618F43806185A20130681
:103DEC002839061882A706185B20130536390618E1
:103DFC0082A706185C2003084839061882A7061803
:103E0C005D20020635390618F43806185E2002418A
:103E1C004E390618000000005F200201F438061825
:103E2C00F438061806041103A53806180000000023
:103E3C001D04110283A706180000000005141102CE
:103E4C0083A70618A438061811FC0801F4380618C4
:103E5C00F438061812FC080000000000CA380618D6
:103E6C0013FC13042E39061882A7061814FC13052C
:103E7C003639061882A7061815FC130628390618B9
:103E8C0082A7061805010000A438061808010000D6
:103E9C00A43806180C010000543906181000000054
:103EAC00F43806181101000083A70618130200004D
:103EBC002D3906181A000000F438061830010000DD
:103ECC0082A706185701000083A7061801000000FE
:103EDC005C38061802000100933606180301000036
:103EEC0068380618040100006F3806180501000038
:103EFC00753806180601000079A70618070100009E
:103F0C0079A706180A0000007B3806180800000084
:103F1C008B38061809000000913806180B000100B8
:103F2C006D3506180C010000973806180D000100BD
:103F3C00933306180E0000009D3806180F00000081
:103F4C00A83806181000000082A7061811000000FF
:103F5C00F438061812000000B138061813000000DF
:103F6C00B738061814010000A43806181500010013
:103F7C0005320618160101005D3006181701000005
:103F8C002339061818000000BD38061810B5082291
:103F9C00002102481BF026F810BDC046E4BA000010
:103FAC001123FA2802D9024B5980002318007047BC
:103FBC00E4BA0000084B094A1B681278D2189A42DE
:103FCC0003D1074B1870002005E00133591E097806
:103FDC000029F4D00C207047A8BA0000D4BE000011
:103FEC00E4BA0000034B1A78002A02D0DA880132B6
:103FFC00DA807047E4BA0000044A0021D388834277
:10400C0001D91B1A99B2D1807047C046E4BA00009E
:10401C00064A1378002B07D05388D288002093428D
:10402C0001D99B1A98B270470148FCE7E4BA00002A
:10403C00FFFF0000F7B50F004A68802143680600B7
:10404C008068D51A0090B8682D012D0909050190DA
:10405C008D4227D99B1A1B011B095D42002B03D1F2
:10406C00019B009A93421FD8019B3F690524D819E4
:10407C00009BC01A002834DD1B490138FDF760FE97
:10408C00E8422ED4009B3069013C1818019BC01AE1
:10409C00C01B002825DC1549FDF752FE4519EC0F15
:1040AC0003341EE0002DDBD00024009B36699E19E2
:1040BC00019BF61AA64214DD0C49701EFDF740FE5A
:1040CC004019A0420DDC38690134301A002808DD93
:1040DC0006490138FDF734FE45196C1E2C43E40FDC
:1040EC0001342000FEBDC046710200008FFDFFFFB1
:1040FC0037B5684618F0C6FE019B9C20190091311B
:10410C00FF31009A8000814204D9E13B1900013251
:10411C00120112090F4B1B68002B12D00E485C6861
:10412C0000780E4D201A000100099C68831A1B01AF
:10413C001B09AB420BD8904201D1A14204D2210001
:10414C0002E001201900404219F072F837BD10004E
:10415C00FAE7C046ECBA0000E8BE0000FEFFFF071D
:10416C00394BF0B5DD68002385B003900093002D2A
:10417C0007D1354BDB68002B01D019F003F905B0E2
:10418C00F0BDA98A2B6802938B0B5AD03F233F209A
:10419C000A111340024254D00024AA7D3038084042
:1041AC001218AA75294A013B1B0111400B439BB203
:1041BC00AB82039E9B0B0193002E0DD1224E2A0045
:1041CC00300000990C301AF00BFA2A002100300054
:1041DC001AF05EFA009D34E031002800FFF72AFF48
:1041EC000028EBD0052802D134003668E4E7B36828
:1041FC00326917499F183800FDF7AAFD73681449F6
:10420C00C4183800FDF7B4FDAB688B4289414942B4
:10421C0064182401019B24096C60012BE4D98023D0
:10422C00E8681B05071B3F013F099F4203D9271A6A
:10423C003F013F097F4206492869FDF789FDB842D5
:10424C00D2DD0095029D92E7ECBA00000FFCFFFF57
:10425C0071020000013810B5012809D8054C200066
:10426C001AF01EF920000C301AF01AF90023A36082
:10427C0010BDC046ECBA0000F0B5854B01690400D6
:10428C00CA18844B87B09A4204D9834B002203206E
:10429C001B6898479C23A2689B009A4205D9002270
:1042AC007D4B110001201B6898477C4B1B6898477D
:1042BC00039004A818F0E6FD794B049A1B78059935
:1042CC009B18FA2292001B018918793A1B09FF3AB4
:1042DC00914216D86568734EEA1A1201A08A120927
:1042EC00B24204D89D421AD1A2688A4217D2820BDC
:1042FC000DD101256C4B03981B689847280007B01B
:10430C00F0BD634801331B0109181B09E0E7A268E3
:10431C0063608A4203D201331B011B096360800B6B
:10432C00012812D98020E16863680005CA1A1201BD
:10433C001509854203D95B1A1B011B095D425B49B8
:10434C002069FDF705FDA842D3DC594B9D68002D73
:10435C0000D11D680026019600960296002D6FD0A4
:10436C00A54205D100224C4B110001201B68984737
:10437C0029002000FFF75EFE002861D0052813D02D
:10438C00A17DAA7D914230D9494B9B68AB422CD080
:10439C00009B002B00D10095022398430136C0B23C
:1043AC00F6B2019501284BD0A38A9B0B012B13D994
:1043BC008021E26863680905D71A3F013F098F42E3
:1043CC0003D99F1A3F013F097F4238492069FDF705
:1043DC00BFFCB84200DD8CE7354B9A68AA424FD03F
:1043EC00002E00D102952D68B8E7A38A9B0B18D03C
:1043FC00AB682A692D499F183800FDF7A9FC6B683A
:10440C002A49C6183800FDF7B3FCA3688B428941D2
:10441C0049427618360136096660002601960096E8
:10442C00C2E7914200D864E7214B9B68AB4200D0B5
:10443C005FE7C31EDBB2012B00D95AE70328B3D1C7
:10444C00009B002B0BD01A4D019A280002991AF0F0
:10445C00FDF82800019A00990C301AF04DF8029BD7
:10446C001348002B0ED0220019001AF011F9002568
:10447C00009BAB4200D13DE72000FFF771FE39E70E
:10448C001D686BE721001AF057F8FFF731FEEEE7D5
:10449C008FFDFFFF0F18060024BF0000C0BE0000F8
:1044AC00E8BE0000FEFFFF07C4BE00007102000062
:1044BC00ECBA0000F8B5184B07001B680C009847C5
:1044CC000500002F06D10024144B28001B689847C8
:1044DC002000F8BD124EB368BB4202D10024B46078
:1044EC00F2E7002CEFD133689F4205D130001AF06F
:1044FC0035F8FFF7FDFDE7E7390030001AF038F822
:10450C000028E0D1300039000C301AF031F80028C6
:10451C00D9D10224D8E7C046C0BE0000C4BE0000FA
:10452C00ECBA0000F0B5374E85B0346802A818F02C
:10453C00A9FC002C06D1F368002B5FD1FFF7D8FD46
:10454C0005B0F0BD0625039B626801932E4B029FBC
:10455C001B78ED1BD31A5A192C49120112098A42E5
:10456C0008D806331B011B09BB4227D1A368019A4B
:10457C00934223D2300019F0F1FF010030000C30CF
:10458C0019F0A4FF3468002CD5D01F4B62681B783F
:10459C00D31A5D191D4A2D012D09954208D80633F1
:1045AC001B011B09BB4209D1A368019A934205D296
:1045BC000022174B110001201B689847124B6268B0
:1045CC001B781249D31AFA43D218120112098A42E3
:1045DC0008D8013B1B011B09BB42ACD1A368019A53
:1045EC009342A8D8300019F0B9FF8369B060002B52
:1045FC0000D098473468002CE0D19CE718F0C2FE3C
:10460C009CE7C046ECBA0000E8BE0000FEFFFF07C6
:10461C0024BF000070B50F4E30000C301AF05AF861
:10462C00C4B263B2002B00DC70BD30000C3019F04A
:10463C0095FF051E05D1084B020001001B680120E7
:10464C0098472B6A002B01D028009847013CE4B214
:10465C00E7E7C046ECBA000024BF0000124B13B5CC
:10466C001C68002C1CD0684618F00CFC9C22019B8A
:10467C00C8219200D21A0023490091425B41009A52
:10468C0001339B181B0162681B09D21A07491201DE
:10469C0012098A4200D96360606818F0A1FD13BD4D
:1046AC0001204042F9E7C04600BB0000FEFFFF07B7
:1046BC00013810B5012802D8014819F0F1FE10BDDF
:1046CC0000BB000013B5684618F0DCFB0E4804680C
:1046DC00002C17D06268009B9B1A0C4A1B011B090B
:1046EC0093420DD819F03AFFA168002902D020009E
:1046FC008847E8E7064B0A0001201B689847E2E769
:10470C00FFF7ACFF13BDC04600BB0000FEFFFF0768
:10471C0024BF00001E4BF7B51B680400984705002A
:10472C00684618F0AFFB9C22019BFA219200D21A2A
:10473C000023490091425B41009A01339B181B01F5
:10474C0062681B09D21A134E12011209B24200D927
:10475C006360002110480268002A09D1002911D099
:10476C00220019F095FF0D4B28001B689847F7BDE8
:10477C0053686768DB1B1B011B09B342EED91100A0
:10478C001268E9E7210019F0D7FEFFF767FFEAE7A7
:10479C00C0BE0000FEFFFF0700BB0000C4BE00004F
:1047AC0070B5144D04002B00FF335A78824204D0AC
:1047BC00114B01001B68032098472B00FF33D9785D
:1047CC00002904D10C4B0A0001201B6898472401D6
:1047DC002B19197B002904D1074B0A0001201B68F7
:1047EC00984729194B68002B03D002228968285955
:1047FC00984770BD08BB000024BF000070B5144D75
:10480C0004002B00FF335A78824204D0114B010074
:10481C001B68032098472B00FF33D978002904D15B
:10482C000C4B0A0001201B68984724012B19197B9B
:10483C00002904D1074B0A0001201B68984729194D
:10484C004B68002B03D0032289682859984770BD08
:10485C0008BB000024BF0000F8B5284C050023005D
:10486C00FF33D978002904D1254B0A0001201B689D
:10487C0098472E01A7193B7B002B31D0214BE81810
:10488C00000118F04FFA8006400F062828D17B68EB
:10489C00002B1ED00422B968A05998472300FF337F
:1048AC005A78AA4203D10F20013505405D700023D0
:1048BC002200A619FF323373D378013BD370FF3437
:1048CC00E378012B13D10F22637801331340A370CB
:1048DC00F8BD0B4A1900176801201A00B847DDE72C
:1048EC000022074B110001201B689847E7E7002BBB
:1048FC00EED18020800018F00BFCE9E708BB00002B
:10490C0024BF000000040005F8B5304E040033004D
:10491C00FF335A78824204D02D4B01001B680320D0
:10492C0098472C4BE018000118F0FCF93300FF33CA
:10493C00D97885066D0F002904D1254B0A0001207A
:10494C001B6898472701F3191B7B002B05D1204BC3
:10495C002200290003201B689847EB1E022B05D967
:10496C0000221B4B110001201B689847F1194B6862
:10497C00002B23D0043D6A4255418968F059EAB2B4
:10498C009847002332000F25F719FF323B73D37879
:10499C009178013BDBB2D370A14206D001342C409C
:1049AC002201B218127B002AF6D0FF367470002B4D
:1049BC0003D18020800018F0ABFBF8BD044A19002D
:1049CC00156801201A00A847DBE7C04608BB0000A9
:1049DC0024BF000000040005013870B5012816D86A
:1049EC00822200210A4852001AF0FCFA38261825B7
:1049FC00084C200018F096F90100B143294320001F
:104A0C0089B218F098F9044B10349C42F1D170BD66
:104A1C0008BB000000400050004100500C4B70B52A
:104A2C001C6825012D0F230702D52800FFF7E6FE91
:104A3C00E30602D52800FFF7B3FE630702D5200F6B
:104A4C00FFF70AFFA30702D52800FFF75DFF70BD33
:104A5C0024000050F0B5A84E0F273300FF339A788E
:104A6C0085B000925A7800990400891A3940029155
:104A7C00DB78002B08D0009B9A4205D19F4B009A03
:104A8C00032011001B6898470F20009B6268013BB4
:104A9C00034001931B01F3589A4205D10022974B16
:104AAC0011001B680E389847009B954A07279D18E4
:104ABC002D01280018F036F9C0103840012800D01C
:104ACC00FAE03300FF3359788C4B03201B68009AB3
:104ADC009847029B0D2B1BD9884B1B680393009B9B
:104AEC00981E0F231840864BC018000118F01AF9B5
:104AFC00834A019B944663440700180118F012F98D
:104B0C00C2100720F91002400140039B053898475A
:104B1C000127009B61681B01F150F618236989B2CB
:104B2C00B3602368377373609C26A81C18F003F9D4
:104B3C006368281D1901090D18F0FDF8A368B6006B
:104B4C00B34205D900226D4B110038001B68984701
:104B5C00A368F61AB6B2B30A05D00022674B11004F
:104B6C0001201B689847A81D310018F0E4F82F00AD
:104B7C008023E0680A371B02984200D2A5E0614B03
:104B8C001900C018FDF7E4F80600030405D500224F
:104B9C005A4B110001201B6898475B49314389B27D
:104BAC00380018F0C8F8A37D191C1F2B00D91F2141
:104BBC00C9B20A02617D0B1C1F2900D91F232800D2
:104BCC00D9B211430C3018F0B6F8E17D4F4F0B02FF
:104BDC0001933B4205D00022484B110001201B6879
:104BEC0098472E000E36300018F09CF8019B0740B9
:104BFC001F433000B9B218F09EF8637E002B3BD1F6
:104C0C00702128000D27237E083059435131FF3184
:104C1C00890818F090F8029B217F9F42BF417F4288
:104C2C00237DA67E3A4ABF02002951D0E47E191C8E
:104C3C001F2B00D91F21C9B2CB0236020193164299
:104C4C0005D000222D4B110001201B689847E40170
:104C5C00802322009A4305D00022284B110001200A
:104C6C001B6898474221019B3E431E43344321431A
:104C7C00280089B218F05FF80F23009A9A4305D0E8
:104C8C0000221E4B110001201B68984780230F2126
:104C9C008020009A1B0613431E4A80001360164B9B
:104CAC00FF339A7801320A409A70DA780132DA705E
:104CBC0018F00EF905B0F0BD280018F033F8C0104C
:104CCC000740022F00D004E7FBE60130410866E7FD
:104CDC001C1C1F2B00D91F24E4B23602E40216421E
:104CEC0005D00022054B110001201B6898473E435C
:104CFC0002213443BBE7C04608BB000024BF0000C0
:104D0C0000040005710200000080FFFFFFE0FFFFC0
:104D1C00FFFEFFFF00010050F0B593B01C000290A5
:104D2C000E910492002809D1002A75D10022B74BAC
:104D3C00110001201B68984701236BE0002CF5D073
:104D4C0063680393A3890D930023802510A80B930C
:104D5C0018F098F8109B2D051D402B005A1E9341FE
:104D6C00DBB20193039B002B05D1A84B039A0120C6
:104D7C0011001B6898470022A54B1A60A54B1B78A5
:104D8C00934258D1A34B019A1A70029B012B6AD102
:104D9C0023680593059B002BCED0039B002BCBD017
:104DAC000B9B0193029B012B01D1A36801939A4B9E
:104DBC001E68002337000A930993039B013B0F9352
:104DCC00002F00D1C0E0019B059A93421BD2029B9D
:104DDC00002B4BD10E9B002B48D03B697D68069372
:104DEC00002D51D0069B002B4ED0BB8A0D9A9342BE
:104DFC004AD0059B2C009D4200D91C00069B039AAF
:104E0C009B18A34234D90A9B002B02D0804B099AE1
:104E1C001A6003230293B6E0049B9B6803930E9BDA
:104E2C00002B02D0049BDB680393049B1B8A0D931D
:104E3C00049BDB7C89E7002DA4D18026764B76057C
:104E4C001D68002D9ED06F68AB683900FB183000D0
:104E5C000593FCF78DFF059B581A3900FCF788FF6A
:104E6C00A9602D68EDE7049B5B6992E7FB68B5E7E9
:104E7C0021000598FCF77CFF002905D121002800B2
:104E8C00FCF776FF002902D03F68019932E021003F
:104E9C00B868FCF76DFF069B0D005B180C932100A6
:104EAC00013B01980893FCF763FF8C460F9B06911E
:104EBC00634407938D4200D9B0E0089B8B4207D224
:104ECC00079B9D4218D8089B079A934200D298E002
:104EDC00029B012B32D021000C98FCF749FF019B5F
:104EEC008B4224D201230B9A0B40002A21D0002B99
:104EFC0022D03700019163E7069B9D4203D1089BAA
:104F0C00079A9342E4D9089B9C4206D818002100CA
:104F1C00FCF72EFF069B9942DAD2079B9C42B3D832
:104F2C0021001800FCF724FFA942ADD3D0E70919E2
:104F3C00D5E73700002BDDD00131DAE701230997E3
:104F4C00059937000A93D5E70A9B002B02D0304B0A
:104F5C00099A1A60019B059A934200D359E7029B68
:104F6C00002B4CD1049B019A5F699A611B8A0693B2
:104F7C007B1E9B180593002E08D139000598FCF771
:104F8C00F7FE049BD961029813B0F0BDB38A069A60
:104F9C00934217D07568BD4200D93D00002D05D154
:104FAC001A4B2A00290001201B6898472900380059
:104FBC00FCF7DEFE002905D129007068FCF7D8FE4D
:104FCC00002901D03668D6E72900B068FCF7D0FE7E
:104FDC000C00019BA34210D2039A9B189C4205D251
:104FEC0000220A4B110001201B689847039BE41A0E
:104FFC00059BA342E6D90594E4E76419E9E700238D
:10500C0008E7069B9D4200D27DE761E724BF0000C4
:10501C000CBC000018BC000010BC0000079B9D429B
:10502C0000D855E76BE7C046013810B5012805D804
:10503C000022034B03481A7019F032FA10BDC04617
:10504C0018BC000010BC00001FB5C168040000298A
:10505C0004D1184B0A0001201B6898476A46636804
:10506C0001200093E3680193A38A93810022A36833
:10507C00110002936B46FFF74FFE032809D10E4B2C
:10508C001B68002B05D0A1699A69002906D1002A5A
:10509C000BD12100094819F019FA1FBD002A03D0C1
:1050AC00A17D9A7D914200D32300988A9B699847F1
:1050BC00EFE7C04624BF00000CBC000010BC000091
:1050CC0010B50100014819F053FA10BD10BC0000D6
:1050DC00F7B5036846680400466101939E4216D9F1
:1050EC002B4B01271A6800237F42002A22D1002B68
:1050FC002CD1A57C002D48D029003000FCF728FECF
:10510C004543019BAB4202D8AE4200D365610023FC
:10511C00220001211800FFF7FFFD002809D0A36829
:10512C00E268934205D20023220019001800FFF711
:10513C00F3FDFEBD908A218A884205D05168013367
:10514C00DBB28F4200D90F001268CEE7BE4206D305
:10515C0039003000FCF7FCFD78430500D1E7012550
:10516C0000966D4238000099FCF702FE002399422C
:10517C0001D1009D0133009A023A00920099019AE4
:10518C008A42BED8002BEDD0BBE701256D42BBE7B0
:10519C0010BC0000002210B5030011000120FFF725
:1051AC00BBFD10BDF7B52B4F2B4DBB89BE68AB803B
:1051BC0001235B422B60294B0193002E15D1019AE0
:1051CC00274B5343AA889A4200D91A00AA807A68BE
:1051DC00531C09D02B68591C05D09B1A21491B0163
:1051EC001B098B4200D92A60F7BD002380221206CE
:1051FC00DA40164202D10133202BF7D11F22D31AE9
:10520C000093194B009A1B78934205DC0022174B34
:10521C00110001201B689847009BDA00144B1B6897
:10522C009B181C68002C0FD098880D49FCF790FD3A
:10523C00241AA4B2022C01D9023CA4B2019BA342B1
:10524C0000D923009BB201930123009A93409E4303
:10525C00B3E7C04620BC000030BC0000FFFF0000DC
:10526C0071020000FEFFFF07D4BE000024BF000047
:10527C001CBC000037B50138012822D8114C102273
:10528C000021200019F0AEFE0F4B00211A780F4BB5
:10529C00D200186819F0A6FE01230D4D5B42636025
:1052AC002B606B46D91D022322000B70094B172073
:1052BC001B680C329847002801D0074BA381A389A7
:1052CC00AB8037BD20BC0000D4BE00001CBC00006D
:1052DC0030BC0000DCBE0000E4570000012282401C
:1052EC0010B503490B7813430B70FFF75BFF10BD30
:1052FC0020BC00000122824010B503490B78934377
:10530C000B70FFF74FFF10BD20BC00000300012005
:10531C0070B505009D40084A14782C431470022B7C
:10532C0003D15160FFF73EFF70BD0022034B11000B
:10533C001B689847F6E7C04620BC000024BF00005D
:10534C000300012010B504009C400B4A1178A143C6
:10535C001170022B0AD1033B5360FFF723FF074B5D
:10536C001B68013301D111F0BBF810BD0022044BB6
:10537C0011001B689847F0E720BC000030BC00000F
:10538C0024BF0000033810B501280ED80A48CC0001
:10539C0000680019838001238B400260074A9168E2
:1053AC000B439360FFF7FEFE10BD0022044B11006F
:1053BC0001201B689847F5E71CBC000020BC0000CE
:1053CC0024BF0000033810B501280DD800200A4B6B
:1053DC00CA001B68D05001238B40084A916899433E
:1053EC009160FFF7DFFE10BD0022054B110001207C
:1053FC001B689847F5E7C0461CBC000020BC0000A9
:10540C0024BF000010B5040000F00CF8002C02D0F2
:10541C0020000AF095FD200004F0C6F9200000F0F1
:10542C00FDFB10BD7021F0B5824D0C262B780400CD
:10543C00181D414303209A1C56435431FF31361832
:10544C00814389197C4E8143377838267E43361840
:10545C00891930265E438143AB3136188143891953
:10546C00764E8143891946265E4381433618891945
:10547C0012021218814389182722534381431B18A7
:10548C00C91881436E4B69318143C918802381430C
:10549C0009188143091885B081431B02994204D92C
:1054AC00684B890A1B68073A9847002C05D0013CC9
:1054BC00012C00D89AE005B0F0BD210020226248F2
:1054CC0019F090FD5B4B702518785B4B41001A78F6
:1054DC0038235A43083B4343033301930C23071DE2
:1054EC0084B20230434303269C467D435435FF353A
:1054FC00B444B54365440332B5435519B543019BD8
:10550C00AB35B5435D194D4BB543ED18B543ABB257
:10551C004E4D02932B680139039323239C4609B209
:10552C004B1C57D170250C266F4381B270435437F6
:10553C006D3DFF37AF4340193818A8431218AA43E2
:10554C00019BAB32AA439A18AA4392B21500404869
:10555C00404B0068D318FB3D9BB24430ADB2038086
:10556C00013BFF3B9BB20838AB42F8D14623334E8C
:10557C00634392190326601CB24303339B18050046
:10558C00C2003548B34300689BB28018ADB22A0202
:10559C00013D9A182DB2828008386A1CF6D127205A
:1055AC00090203315B18032144438B4364181B1914
:1055BC008B432A4A693312688B4329495B181100C3
:1055CC009BB22C31043A0B80FE3B08399BB28A42C9
:1055DC00F9D170E766468DB26E43029BC9009E19E5
:1055EC00039B013D59188E8029B299E7164C2B78F4
:1055FC0016492000082209685B0018F055FF2000AE
:10560C001349092308220968083018F04DFF2000BF
:10561C002B781149082209680233103018F044FF26
:10562C0020000E49062308220968183018F03CFFA8
:10563C0041E7C046D4BE0000D5BE000003090000FF
:10564C00F705000024BF000048BC000040BC00006F
:10565C0044BC00000508000038BC00003CBC000045
:10566C00F6040000074B70B51B6898470500064808
:10567C0018F074FF0400054B28001B6898472000A5
:10568C0070BDC046C0BE000048BC0000C4BE0000D7
:10569C00F8B5060070201E4B03241D7823212B1D0A
:1056AC0058430C23AA1C53435430FF301B19A043FE
:1056BC00C018184BA0431A78382353431B19C01831
:1056CC0030236B43A043AB301B19A043C018124BC3
:1056DC00A043C018A043301AFCF73AFBC7B26D00C8
:1056EC00AF4205DB0D4B3200390020001B68984798
:1056FC000B4B1B68984704000A4BF9001F680A48BB
:10570C00791818F0E3FE094B20001B689847F8BD88
:10571C00D4BE0000D5BE00000309000024BF000069
:10572C00C0BE000040BC000048BC0000C4BE00006D
:10573C00044810B5083018F011FF002800D08088FC
:10574C0010BDC04648BC000070B51C4B0C24197829
:10575C0070230A1D534303228D1C6C435433FF33B7
:10576C00A41893431B19164C9343257838246C4387
:10577C00A4181B193024FF2661439343AB33934386
:10578C0089185B1805389343C01A304203D1040AB8
:10579C00E3B2082B00D9FEE70A4B34401B6898474C
:1057AC000500094B0948E1001C680830611818F025
:1057BC008DFE074B28001B68984770BDD4BE0000B7
:1057CC00D5BE0000C0BE000044BC000048BC0000B8
:1057DC00C4BE0000084B70B51B689847050007480D
:1057EC00103018F0BBFE0400054B28001B689847CE
:1057FC00201E00D0A08870BDC0BE000048BC0000B8
:10580C00C4BE000070B57024194B02001B78032035
:10581C00191D4C430C219D1C69435434FF34091849
:10582C0084436418134984430D783821694309185B
:10583C006418302159438443AB34091884436418E9
:10584C000D4984436418462159438443091864184C
:10585C008443141B240AE4B20133A34203DA074B3A
:10586C0021001B689847064BE0001C68201870BD8F
:10587C00D4BE0000D5BE00000309000024BF000008
:10588C0038BC000070B570241F4B02001B7803203D
:10589C00191D4C430C219D1C69435434FF340918C9
:1058AC0084436418194984430D78382169430918D5
:1058BC006418302159438443AB3409188443641869
:1058CC0013498443641846215943844309186418C6
:1058DC008443141B240AE4B20133A34203DA0D4BB4
:1058EC0021001B6898470C4B1B68984705000B4B15
:1058FC000B48E1001C681030611818F0E7FD094BEB
:10590C0028001B68984770BDD4BE0000D5BE0000AF
:10591C000309000024BF0000C0BE000038BC00001A
:10592C0048BC0000C4BE0000084B70B51B6898470B
:10593C0005000748183018F011FE0400054B28002C
:10594C001B689847201E00D0A08870BDC0BE000008
:10595C0048BC0000C4BE000070B505007020274B89
:10596C0003241A78111D48430C21931C59435430BD
:10597C00FF300919A04340182149A0430E78382163
:10598C0071430919401830215143A043AB30091918
:10599C00A04340181B49A043401846215143A04343
:1059AC00091940181B021B19A043C01827235A437E
:1059BC00A04312198018A0436930A043FE21281A75
:1059CC00FCF7C6F9C6B2C0B2052805D90E4B2A00A1
:1059DC00310020001B6898470C4B1B68984704004B
:1059EC000B4B0C48F1001E681830711818F06EFD46
:1059FC00094B20001B68984770BDC046D4BE000000
:105A0C00D5BE00000309000024BF0000C0BE00008A
:105A1C003CBC000048BC0000C4BE000010B5020035
:105A2C000C0001230021034817F072FE0470FCF7F0
:105A3C00ADFB10BD0111000010B502000C000123DC
:105A4C000021034817F064FE0470FCF79FFB10BDA7
:105A5C0002110000F7B5002400900191124D2B7833
:105A6C00A3421BD94426114F66433B6899190B007E
:105A7C0040331B78092B02D00134E4B2EEE70098D6
:105A8C00203118F094FA0028F6D03B68019A9E1940
:105A9C000736F37F534001221342EDD1287884421C
:105AAC0080414042FEBDC046D4BE000068BC000030
:105ABC00F0B5002485B0019002910392174D2B781C
:105ACC00A34225D94426164F66433B6899190B000F
:105ADC0040331B781A000E3A012A04D9112B02D03C
:105AEC000134E4B2EAE70198203118F060FA00289A
:105AFC00F6D03B68029A9E19330036331B7853401C
:105B0C0001221342ECD12E363378039A9342E7D11B
:105B1C00287884428041404205B0F0BDD4BE0000DC
:105B2C0068BC000030B500200A240125074B196819
:105B3C00074B1B780133220042438A18527A2A42BF
:105B4C0003D00130C0B28342F5DA30BD6CBC00002A
:105B5C00D4BE0000F7B5050000240A2601270191E8
:105B6C000D4B186833006343C018437A3B4208D18D
:105B7C000A4B01341B78E4B20133A342F0DA200063
:105B8C00FEBD037A019A9342F2D1290018F00FFA64
:105B9C000028F4D1ECE7C0466CBC0000D4BE000079
:105BAC00F7B5050000242726012701910C4B1B7823
:105BBC00A34213D90B4B186833006343C018837985
:105BCC00FF2B02D10134E4B2F0E7019A3A40934240
:105BDC00F8D1290018F0EBF90028F3D02000FEBD15
:105BEC00D5BE000070BC00000A4B18780A4B1A682E
:105BFC0000230632984204D1C01A43425841C0B225
:105C0C0070472732110027390978FF29F4D1013365
:105C1C00DBB2EFE7D5BE000070BC0000F0B585B07C
:105C2C00012821D0022800D1BDE0002802D1614911
:105C3C0018F002F805B0F0BD2A005F4B62431B68F8
:105C4C00D058002802D00C3817F0A7FD0134E4B26C
:105C5C005A4B1B78A342EFD80021042017F00EFDFD
:105C6C000021062017F00AFD554CF42200212000DB
:105C7C0019F0B8F92722534B00211B7806265A43FA
:105C8C00514B1B681800019319F0ACF944224B4D91
:105C9C0000212B785A43484B186819F0A3F90A22B3
:105CAC002B78002102335A43484B1F25186819F0F2
:105CBC0099F92300E122543392001A80444B0822B4
:105CCC006362444B44496385444819F06FF90122DF
:105CDC00434B52421A60FF2125770532414819F097
:105CEC0081F9A31CDD7702AB3F4D5E713F4B02A9DE
:105CFC002A0001201B6805319847002804D0320087
:105D0C0028003B4919F052F920230125374F02AAEC
:105D1C00537102AB591D374A3B688020984702AB40
:105D2C009E1D02A95D71320015203B680531984714
:105D3C00002801D133781D402300EF331D7001255D
:105D4C0002ABDE1D5D71294B02A9320019201B68C4
:105D5C0005319847002801D133781D4023000126D6
:105D6C00F0331D7002AB244D5E71204B02A92A004A
:105D7C0016201B6805319847002800D02E70114A58
:105D8C00114B117827224A43FF211B68D2189A42E3
:105D9C000CD1FA22543423889200002106205A4355
:105DAC0017F0D2FB46E70024442551E799712733BD
:105DBC00EDE7C046D061061868BC0000D4BE0000F8
:105DCC0074BC0000D5BE000070BC00006CBC0000B0
:105DDC001B00480107070000C460061878BC0000CF
:105DEC008CBC000091BC000080BC0000DCBE00003C
:105DFC0054E40718A7BC000060BD0000012310B5D7
:105E0C00094C83402268002906D0802013434001AE
:105E1C00236017F05DF810BD9A432260FBD18020FF
:105E2C00400117F075F9F6E774BC0000F8B544248E
:105E3C001E4E4443336800211F190500FFF7DEFF97
:105E4C000022336804371B1940331A703800FFF7EF
:105E5C0037F933681819C31DD97F2030FFF77AFE44
:105E6C00134B1B78013383420EDB0A22114B424346
:105E7C001B689B185B7A9B0706D533681919CB1DD9
:105E8C00DA7F203109F09AFD30680019C31DD97FE3
:105E9C002030FFF785FE084B1B78834202D9002186
:105EAC000AF07AFB2800FCF7D7F9F8BD68BC0000B3
:105EBC00D4BE00006CBC0000D5BE0000004870478A
:105ECC0091BC0000054BC2089B1807221B7910409F
:105EDC0003411800012318407047C04674BC0000F1
:105EEC0000487047CC600618024B5A330020185EED
:105EFC007047C04674BC0000024B58330020185E3B
:105F0C007047C04674BC000044234343024A1068E7
:105F1C00C01804307047C04668BC0000F7B509F0E3
:105F2C00D5FC019009F008FD0400002101259434F2
:105F3C000726464ACB10D3181A7E0E4032412A420D
:105F4C0006D12A00B24016005A7FB2435A7711E0AC
:105F5C003F4A1278002A0DD08A00019F8258BA1A43
:105F6C00C827120112097F01BA423AD20022A25666
:105F7C000132E6DB013101342529D9D1354E30000F
:105F8C0018F022F801281AD8002301212F4F0725D9
:105F9C001C002C40A4466546DA10BA18147E2C411D
:105FAC000C4209D00C00AC40A4466546547F2C43EF
:105FBC005477012803D008000133252BE7D10024A6
:105FCC0030000AF0CBFC2500234B1B78A34214DCD9
:105FDC00002D37D0FA2200210420120117F0B4FA58
:105FEC00F7BD00272770FA27FF01BA42C2D92A0051
:105FFC00B24016005A7F3243A8E744236343174F3D
:10600C000193019A3B689B181A0040321278092AB6
:10601C000BD10833DA7F002A07D10123210219435F
:10602C00022089B217F0B2FB01253B68019A9B183C
:10603C0040331B780C2B03D13100E0B20EF012F977
:10604C000134C1E7014B0333DD77C9E774BC0000B1
:10605C0064BD000091BC0000D4BE000068BC000010
:10606C00F8B50023040044270E4A0F490370237827
:10607C001678B34210D2380058430D682818050022
:10608C0040352D78002D0AD120222900203018F01F
:10609C00A9FF2378B34200D307252800F8BD0133AC
:1060AC002370E4E7D4BE000068BC0000014B186804
:1060BC007047C04670BC00001F00000000000000CC
:1060CC00FF79010F000000000020024B0433D87749
:1060DC007047C04674BC000070B522230D003E22F0
:1060EC000021094817F014FB00260923040029009D
:1060FC00037046702022023018F058FF2000FCF785
:10610C0045F8300070BDC04604110000F8B53E22C1
:10611C000D00422300210F4817F0FAFA202608231D
:10612C00002704000370320029004770023018F079
:10613C003DFF2000A9193200223018F037FF200053
:10614C00FCF724F8044B31005B68044A8020984724
:10615C003800F8BD04110000DCBE0000A7BC000034
:10616C0070B511230D00094A0021094817F0D0FA27
:10617C00691C040000251022013018F017FF2000C4
:10618C002570FCF703F8280070BDC04617200000EE
:10619C0001110000FA2210B5064B920054331B88F3
:1061AC00062000215A4317F0CFF909F0C9FB002053
:1061BC0010BDC04674BC000010B5FFF7AFFE002048
:1061CC0010BD0000DC61061868BD00000100120063
:1061DC00070000006D61061804000000C561061878
:1061EC0005000000D560061806000000A161061825
:1061FC00080000001961061809000000E560061887
:10620C000A02000045960618020200006D75061879
:10621C0007020000D175061808020000E17A061882
:10622C0003000000F57F06180102000031800618FB
:10623C0006020000BD8D06180302000061860618D8
:10624C0004020000BD87061805020000898B0618A1
:10625C00090200008592061805110000356D06181C
:10626C00442130B5104B1A68104B14001B78403485
:10627C0059430023994201D1012030BDE05C851EB9
:10628C00012D05D8D058C07C00280BD14433F1E740
:10629C00072802D1D0584078F6E70528F6D1D05817
:1062AC000078F1E70020E8E768BC0000D4BE0000ED
:1062BC0030B50D4A0124117844220C4B4A431B681B
:1062CC000B484033D218934201D1002030BD1978CD
:1062DC0044331129F7D80500CD40290025008D4302
:1062EC00F1D10120F2E7C046D4BE000068BC00002A
:1062FC00AC40020002001E2313B50C000B49C85C15
:10630C00002807D1013BFAD20C212000FFF794FBA7
:10631C00002016BD002113000191093100910220CB
:10632C000349203318F082FB0100EEE7A8BC000003
:10633C00A7BC000073B508000021FFF77DFB6A467F
:10634C000123D3716B46154E941DD91D220082205A
:10635C0033689847002801D00023237020236A4615
:10636C00D37123780E4D002B09D069462A0080206A
:10637C00336807319847002806D00023237000218A
:10638C00280018F09FFB02E02378002BF7D02800A0
:10639C000022082118F06CFB002076BDDCBE00004A
:1063AC00A7BC000010B50A0000210A23074817F00B
:1063BC00AFF90024FB22064BC2800381428083800C
:1063CC000470FBF7E3FE200010BDC0460111000075
:1063DC009042000010B500210623074A074817F029
:1063EC0097F90024064B9A8C4280DB8C04708380D6
:1063FC00FBF7CCFE200010BD232000000111000093
:10640C0074BC000070B500210F4A09230F4817F027
:10641C007FF90F4D04002B689847030AA370030CF7
:10642C006070E370000E2B68207198470025030AFA
:10643C006071A371030C000E207225702000E371B3
:10644C00FBF7A4FE280070BD18200000011100000D
:10645C006CBD000010B50A0000210223054817F09E
:10646C0057F90024044B04701B784370FBF78EFE25
:10647C00200010BD01110000D5BE000010B50A00AF
:10648C0000210223064817F043F90024054B047041
:10649C001B7802334370FBF779FE200010BDC04619
:1064AC0001110000D4BE000010B50021074A0623DC
:1064BC00074817F02DF9022300240371F9334380A8
:1064CC000470FBF763FE200010BDC04602200000E4
:1064DC000111000070B507230A000948002117F0CC
:1064EC0017F900250400074906220C31013018F079
:1064FC005DFD20002570FBF749FE280070BDC046ED
:10650C000111000074BC00000A0010B50A23002120
:10651C00074817F0FDF80923064A0381C28043801F
:10652C00C632013302800371FBF730FE002010BD30
:10653C00011100003A090000030070B51C88080026
:10654C0022001B3A1221E02A0BD85A88074D13005F
:10655C00493BFF3B9BB2AB4203D80021044B9C84CC
:10656C00DA84FFF75BFA002070BDC046484100009A
:10657C0074BC000070B50C000500FFF799FE0C21EF
:10658C00002809D12B780631012B05D801220100F6
:10659C001340044A563213702000FFF73FFA0020D4
:1065AC0070BDC04674BC000070B509230021084AB8
:1065BC00084817F0ADF80025040008220649013000
:1065CC0018F0F4FC20002570FBF7E0FD280070BDEE
:1065DC001C20000001110000F06E061813B501001C
:1065EC0000240122034B1031009418F0D6F820003F
:1065FC0016BDC04605660618002270B511230600AC
:10660C000D000720110017F083F804002900067014
:10661C001022013018F0CAFC200017F09DF870BD54
:10662C0070B50A000500072300210E4817F070F81A
:10663C00122303702978040001290AD8681CFFF77B
:10664C00AFFA094B1B78834208D9611C0AF002F897
:10665C0020702000FBF79AFD002070BD02232370F0
:10666C00F7E7C04601110000D5BE000070B50A0066
:10667C000500072300210E4817F04AF81223037077
:10668C002978040001290AD8681CFFF789FA094BFC
:10669C001B78834208D9611C09F0A6FF20702000EA
:1066AC00FBF774FD002070BD02232370F7E7C04692
:1066BC0001110000D5BE000003880C485A1E92B28E
:1066CC0010B50C00122182420AD8094A002154321A
:1066DC001380FA22920006205A4316F035FF00214F
:1066EC002000FFF79BF9002010BDC046B7A10000A9
:1066FC0074BC000010B5104B0C0056331B78002BEB
:10670C0004D0FFF7D5FD0C2100280CD10B4B1A68D7
:10671C000B4B197827234B43FF219B189A4207D127
:10672C0009F0E2FB00212000FFF778F9002010BDF2
:10673C0091712732F2E7C04674BC000070BC0000B7
:10674C00D5BE000070B506780D0004001221012E94
:10675C001DD8114B56331B78002B04D0FFF7A8FD26
:10676C000C21002813D13100601CFFF719FA0B4BD8
:10677C0004001B780221834209D909F0EBFE272083
:10678C00074B44431B6800211C19FF23A3712800ED
:10679C00FFF744F9002070BD74BC0000D5BE0000AA
:1067AC0070BC0000F0B5047889B007000691012C8C
:1067BC0006D912210698FFF731F9002009B0F0BD77
:1067CC003D4B56331B78002B2FD100263B4B1B78AF
:1067DC0005933B4B1D687B1C40350493059BB342D2
:1067EC0029DC0023210004980593FFF7B3F9334B00
:1067FC0000251B780133834207DB0A22314B5043BF
:10680C001B681818457AAD07ED0F39780498FFF717
:10681C00C7F92D4B1A788242CBD800242B4B1B681E
:10682C000633A24217D10721C4E7FFF741FD0C2123
:10683C000028BFD1C9E72B78092B07D129000622E4
:10684C000498203918F0A4FB002802D001364435F6
:10685C00C4E70123C6E72733190027390978FF2934
:10686C0002D00134E4B2DCE73E00FB1D0793059B2C
:10687C00173601933B78200004990093FA1D3300DE
:10688C00029509F0B3FD2720104B444318683B7860
:10689C000419A3710622791C200018F087FB102222
:1068AC003100E01D18F082FB2000079910221730F0
:1068BC0018F07CFB00217DE774BC0000D4BE000006
:1068CC0068BC00006CBC0000D5BE000070BC0000B1
:1068DC00F8B50D000400FFF7C3FC0C21002805D00F
:1068EC0021788B1EDBB2FC2B05D812212800FFF778
:1068FC0095F80020F8BD661C3000FFF72BF90D4B06
:10690C001B7801338342F0DB0A22022142430A4BFB
:10691C001B689A18537A0B42E7D05F0707D58B4355
:10692C0053723100227809F0EBF80021DEE70321E5
:10693C00F5E7C046D4BE00006CBC0000F8B50D00F5
:10694C00FFF78EFC0C2100281BD000240A260127FF
:10695C0031000F4B61431B6859184B7A3B4208D0EE
:10696C005A0713D50222934320000A7A4B7209F07E
:10697C00C7F8084B01341B78E4B20133A342E7DAC1
:10698C0000212800FFF74AF80020F8BD0322EAE7AF
:10699C006CBC0000D4BE0000F7B505000191FFF7F8
:1069AC005FFC0C26002805D029788B1EDBB2FC2B53
:1069BC0006D8122631000198FFF730F80020FEBDF2
:1069CC006F1C3800FFF7C6F81B4E040033780133F8
:1069DC00834227DB0A22194B42431B689B185B7AC4
:1069EC009B07E6D40A236343144E0093009A336842
:1069FC0039009818062218F0D9FA3368009A2978C9
:106A0C009B180322587A197202435A723800FFF706
:106A1C0021F80026B042CDD1390020002A7808F0A8
:106A2C00CDFFC7E7FFF77EF8337804000233072663
:106A3C009842D7D1BEE7C046D4BE00006CBC000063
:106A4C00F8B5164E05000436F37F0F000C24002B0E
:106A5C0004D104791F339C4306D012243800210042
:106A6C00FEF7DCFF0020F8BD17F0AEFA0138C0B21B
:106A7C002428F2D829000522094818F097FAFA229E
:106A8C0021009200052016F05FFD01232100042057
:106A9C00F37716F0F3FDFFF741FADFE774BC000063
:106AAC008CBC0000F7B5050000240191384B1B7815
:106ABC00A3420DD83749280017F079FA1221041E89
:106ACC0061D129000622344818F070FA21005AE0EE
:106ADC00442363430093314B009A1B689B181A00A4
:106AEC0040321278911E01292DD92C4F009A3B6807
:106AFC009B181A0040321278072A0CD11E68002EFF
:106B0C0004D1274B210003201B68984702223378BD
:106B1C009343012B32D0009A3B689B181A004032E9
:106B2C001278052A0CD11E68002E04D11C4B2100B2
:106B3C0003201B689847022273789343012B1DD0C6
:106B4C000134E4B2B2E71749EE3109780129CCD10E
:106B5C001E68002E04D1124B210003201B6898479D
:106B6C00102372881A4204D10D4B210003201B689C
:106B7C0098470222F37A9343012BB6D1044B0C2194
:106B8C001B78A34296D90198FEF748FF0020FEBD62
:106B9C00D4BE00005AE4071886BC000068BC000094
:106BAC0024BF000074BC000070B509230021094A01
:106BBC00094816F0ADFD0400FFF792F9002501001D
:106BCC000822601C18F0F2F920002570FBF7DEFAA1
:106BDC00280070BD032000000111000070B50C00EE
:106BEC00074D08220100280018F0E0F928000421C4
:106BFC00FBF752FB20000021FEF710FF002070BDB8
:106C0C0078BC000010B50C000221FBF745FB01001D
:106C1C002000FEF703FF002010BD10B50C0003216F
:106C2C00FBF73AFB01002000FEF7F8FE002010BD38
:106C3C0010B50C0081880088FDF7B2F90100200026
:106C4C00FEF7ECFE002010BD007810B50C001221F0
:106C5C00032804D801231840FDF7ACF901002000EB
:106C6C00FEF7DCFE002010BD70B50A0009230021E0
:106C7C00084816F04DFD082204000021013018F0E0
:106C8C00B1F900256023200025706371FBF77EFAB3
:106C9C00280070BD0111000070B541230A000B489B
:106CAC00002116F035FD04002A220949013018F0A4
:106CBC007DF920000025162200212B3018F092F9C6
:106CCC0020002570FBF762FA280070BD011100004E
:106CDC00646D061810B50C0016F054F82000002155
:106CEC00FEF79CFE002010BD10B503000C4A007886
:106CFC000C001278002803D05988914203D298884E
:106D0C00FDF77AF909E00022064B110001201B68FF
:106D1C00984712212000FEF781FE002010BDC046CE
:106D2C00D4BE000024BF0000002270B50C00190076
:106D3C00084BD000C518185A884205D16B68181E2C
:106D4C0001D02000984770BD01322C2AF1D10020CF
:106D5C00F9E7C046906D06182000800000C00000C6
:106D6C000000E400000028220000000000000400E5
:106D7C0000F7FFFF7F00000030F0FFFFFFFFFFFF79
:106D8C00FF170000030C0000E16C06180110000056
:106D9C001565061809100000E164061802100000C1
:106DAC00A56C061803100000756C0618010C000089
:106DBC00276C0618630C0000116C0618310C0000CF
:106DCC00556C0618330C00003D6C0618350C000091
:106DDC00F56C061801200000E96B06180220000073
:106DEC00B564061803200000B56B061805200000DA
:106DFC00B16A06180620000035700618082000003D
:106E0C009D7106180A200000ED720618092000007A
:106E1C00457206180B200000F57C06180C200000AB
:106E2C00197E06180D200000F98F0618142000009A
:106E3C004D6A06180F200000896406181020000007
:106E4C004969061811200000A569061812200000D7
:106E5C00DD6806182A20000061640618272000004F
:106E6C00B167061828200000516706182920000079
:106E7C00016706182E200000C56606182D2000009C
:106E8C00816506182B200000796606182C2000005E
:106E9C002D66061817200000E9650618182000005A
:106EAC00116406181C200000B5650618232000008C
:106EBC00E163061824200000456506182F20000009
:106ECC00B16306181D2000006D9606181E200000E8
:106EDC00A9960618252000004163061826200000FC
:106EEC0001630618FFFFFFFFFF03000070B5442588
:106EFC001D4C454323685B59002B05D000221B4BCE
:106F0C00110001201B6898470022236811005E19AC
:106F1C0010001A2316F0FCFBFF23306020680026BB
:106F2C0045192C6831002370EC3B638080231B01D6
:106F3C00A380082320002381013BE6806381267314
:106F4C0006220D3018F04EF88023FF33A3827F3BCE
:106F5C00E382074BE6742683DA682A631B8AAB86C6
:106F6C00012340352B7070BD68BC000024BF0000AD
:106F7C0074BC000070B514000F4B06001A78E3B215
:106F8C000D009A4205D80D4B220003201B68E1B27C
:106F9C009847002E0FD14420E4B24443084B1868A4
:106FAC000019030040331B78022B04D10622290060
:106FBC00363017F0FBFF70BDD4BE000024BF0000BC
:106FCC0068BC0000F7B50D0000240190134F3B780E
:106FDC00A34202D8FF242000FEBD4422104B624382
:106FEC001B689B181A0040321278511E022902D9D4
:106FFC000134E4B2EAE71E68002E04D1094B2100EB
:10700C0003201B6898473378019A9342F0D13B7860
:10701C00A342DFD9002DDED02E60DCE7D4BE000009
:10702C0068BC000024BF0000F0B5544B87B003913E
:10703C00EE331A780400022A00D19DE001220021CF
:10704C00FF201A70FFF7BEFF04AAD51D030028709D
:10705C00FF2813D04A4A106844225343C0184030CA
:10706C000378012B00D087E02379042B0FD9122150
:10707C000398FEF7D3FC002007B0F0BD2800FEF704
:10708C00EFFF011EF4D12878FFF730FFECE7012B5E
:10709C0009D0218862889142E9D81F29E7D980213B
:1070AC00C9018A42E3D8627B013A062ADFD8A27B67
:1070BC00032ADCD86279032AD9D8A279012AD6D836
:1070CC00012B03D000220292042B07D12D49E01D85
:1070DC0016F06DFF0028CAD101230293442300212E
:1070EC002A78274F53433A68D3181D68264A28003C
:1070FC00019323790D30D35C6B80638869721A0A13
:10710C002A72EB712388A971AB80637B0622AB7268
:10711C006679E11DEE72A3792B7317F047FF0023FC
:10712C00029A9A4200D1A37BEB74032E1DD8300037
:10713C00019B1249303317F00DFF02120212019A13
:10714C00C86810630A8A9A80442204ABD9793B68D8
:10715C004A439B180122403300211A7088E706220B
:10716C001800123117F022FFEEE7084B0022310015
:10717C0003201B689847E7E70C2179E774BC0000F3
:10718C0068BC00005AE40718FC7B061824BF0000FA
:10719C00F0B5274B85B00191EE331A7805000C2120
:1071AC00022A38D001221A70037806311F2B32D8EC
:1071BC000021FF20FFF706FF02ABDE1D3070FF2819
:1071CC0007D13000FEF74CFF011E24D13078FFF7B9
:1071DC008DFE44223378174F53433A68D3181B8CD7
:1071EC000093FEF7A1FB0721041E14D021002A787E
:1071FC00681C15F0ADFD442230783B684243297879
:10720C009B181C84598440331B78022B09D1220013
:10721C000CF04AF900210198FEF700FC002005B0A3
:10722C00F0BD009B002BF5D01800FEF795FBF1E7A5
:10723C0074BC000068BC0000F0B5274B85B0019110
:10724C00EE331A7805000C21022A38D001221A706C
:10725C00037806311F2B32D80021FF20FFF7B2FE36
:10726C0002ABDE1D3070FF2807D13000FEF7F8FEB0
:10727C00011E24D13078FFF739FE44223378174FA2
:10728C0053433A68D3181B8D0093FEF74DFB07212F
:10729C00041E14D021002A78681C15F059FD4422D4
:1072AC0030783B68424329789B181C8559854033BC
:1072BC001B78022B09D122000CF026F90021019831
:1072CC00FEF7ACFB002005B0F0BD009B002BF5D009
:1072DC001800FEF741FBF1E774BC000068BC00002D
:1072EC00F0B5964B93B004900591EE331A78022AC0
:1072FC0014D001220021FF201A70FFF763FE06ABA9
:10730C009C1C049B20701B78002B03D0012B26D0D7
:10731C0012210FE18A4B1B78834201D80C2109E121
:10732C0044252A00874E424333689A18403213781A
:10733C00022BF3D10CF07CF8011E00D0FAE022787D
:10734C00336855435D19032340352B70049B002192
:10735C001B78002B00D0EDE0002013B0F0BD784B73
:10736C001B78834269D94422764B50431B681B1807
:10737C0040331B78012BD1D106ABDD1C00232B70C5
:10738C00704B21781A6844234B439C58E37ADB07F3
:10739C005CD46388DB0711D52800FEF761FE011E63
:1073AC0000D0C7E00C2362881A4207D02000217B52
:1073BC000D30FEF74FFB002800D0BAE00A26210062
:1073CC00638807AD02932B83637A227A1B04120223
:1073DC001343E2790D311343EB60A37A06226B77EA
:1073EC00E37A0193AB77237B0393EB7706ABF61829
:1073FC00300017F0DBFDE27C06AB0533DA77227D3B
:10740C0006AB0633DA77637D06AA0732D377A17D04
:10741C0008AAD177092206A95218D377237EF377CD
:10742C000B23627E5B18DA77019B4449DB0715D48A
:10743C00CB6807930B8AAB8015E02000FEF710FE9B
:10744C00011E77D12078FFF751FD95E73E493F4863
:10745C0016F0ADFD002800D05AE79AE70622280066
:10746C00123117F0A3FD442206AB9F1C3B78354D1F
:10747C005A432B682C209A18118C07AB1982518C0B
:10748C00334E9982118D5982528D06A9DA820022CF
:10749C005A831A77294B09AA56331B780918D377C4
:1074AC0032780A70002B02D0029B5B0702D4019B3E
:1074BC009B0720D5200003990D30FEF771FB2C2281
:1074CC0006AB9B1818703378834214D9E37A9B0768
:1074DC0011D527261F4B70431E681F4936180736D7
:1074EC0030001C3A17F054FD002804D030003A78D4
:1074FC001A4917F023FA07A938780CF06DF8011E19
:10750C0018D144203A78296842438B181A00022576
:10751C00403215706288D20700D417E706AAD478D7
:10752C003E331C70030004226343CB1840331A70A3
:10753C000CE70B210598FEF771FA0DE774BC0000FF
:10754C00D4BE000068BC00005AE4071886BC0000DA
:10755C00D5BE000070BC000060E40718816F0618EF
:10756C00442270B50D000978134B4A431B689B18D5
:10757C001E6840331A78931E012B03D90F4B03203E
:10758C001B689847737E002B14D009233E220021E0
:10759C000B4816F0BDF81323040003703378062251
:1075AC0043706B78A91C8370033017F0FFFC20002C
:1075BC00FAF7ECFD002070BD68BC000024BF000091
:1075CC0004110000F0B544250B7895B004936B437F
:1075DC007F4E0293029A33680C009B181A003E32BD
:1075EC0012781F68019240331A78032A22D1794D00
:1075FC002B00EE331B78012B09D100217648FEF7C6
:10760C000DFA3368029A9B18403301229DE02B003F
:10761C00ED331978002904D1704B0A0001201B6846
:10762C009847ED3529780139C9B229700029E8D17C
:10763C006B48E4E70A001532039220321278002AD4
:10764C0000D1EDE10B00373319780398FEF702FAFD
:10765C000590002800D1C9E00C237A881A4205D085
:10766C0000225E4B110001201B6898477D8806ABF9
:10767C001D837B7A3A7A1B0412021343FA79390080
:10768C0013430993BB7A06AA5377FB7A0D31039304
:10769C001300039A9A7706223E7B9818DE7717F030
:1076AC0085FC04212A000A40944600230D4200D197
:1076BC00FB7C06A90131CB77397D06AB0233D97738
:1076CC007B7D06A90331CB77B87D07A9C87706A9BE
:1076DC000531CB77397E06AB0633D977797E3C4DB5
:1076EC0006AB0733D9772B68029928225B18196BE4
:1076FC0006A806919B8E06A98B8000234B830B77E3
:10770C00344B08A956331B788018CB773549097848
:10771C000170002B02D06346002B02D1039B9B0708
:10772C0008D5380031000D30FEF73AFA282206ABA6
:10773C009B181870049806A90BF04EFF002806D170
:10774C00029A2B689B18022240331A7005E0002223
:10775C00224B110001201B6898477B88DB0708D55A
:10776C00442201991A4B4A431B689B180022403350
:10777C001A7063783C2B00D1E9E0164BEE331B7882
:10778C00022B1AD1230035331B78002B02D16378DE
:10779C00002B12D008233E220021134815F0B8FF0D
:1077AC00122303706378383443703B788370019BE9
:1077BC00838023788371FAF7E9FC054B029A1B68E6
:1077CC0000209B18FF223E331A7015B0F0BDC04646
:1077DC0068BC000074BC00000A20000024BF00003C
:1077EC0039200000D5BE0000041100000422A11CA9
:1077FC0006A817F0DBFB0322A11D07A817F0D6FB88
:10780C00E37E06AAD371E36906A80893236A099359
:10781C00636A0A93230024331A790AAB1A71230082
