:020000041805DD
:10E2300010B5024B01221B68984710BDA4BA00001C
:10E2400010B5024B00221B68984710BDA4BA00000D
:10E2500010B5024B01221B68984710BDA4BA0000FC
:10E2600010B5024B00221B68984710BDA4BA0000ED
:10E27000F8B500262A4D04002E701FF049FE294BE8
:10E2800030001A68284B92B219681FF0C9FA274B60
:10E2900001201A68264B92B219681FF0C1FA254B6B
:10E2A00002201A68244B92B219681FF0B9FA287834
:10E2B00020F0C0FB2149300020F0ECFD287800F070
:10E2C0009FFA287803F016FB28781EF013FEB4425C
:10E2D00009D01B4B9C4202D01A4B9C4208D11A4BCE
:10E2E00020001B68984701232B701EF049FDF8BDE4
:10E2F00001231022310015481FF008FA144B0700C3
:10E300009C4205D101230370380000F0B7F9EAE719
:10E31000104B3200210003201B689847F4E7C046E9
:10E3200020BF0000C8BE0000A4BE0000CCBE00009C
:10E33000A8BE0000D0BE0000ACBE000004CE07188E
:10E34000A5A5A5A5C3C3C3C3D8BE00000311000083
:10E35000F2F2F2F224BF00001022F0B56E4B85B04D
:10E360001C6814420BD001216C4B49421A606C4B63
:10E3700019606C490B6893430B6002F01BFC202270
:10E3800014420BD00121654B49421A60644B59601D
:10E3900064490B6893430B6002F03CFB01273C424D
:10E3A00037D05E4B5E4D1F606B8B3B4231D002A875
:10E3B0001EF066FD5B4E029B01933368BB433360E6
:10E3C0002B685A1C0BD0019A9A4208D101231022C3
:10E3D0005B422B6033689343336002F0EBFB6B6866
:10E3E0005A1C0BD0019A9A4208D1012320225B4289
:10E3F0006B6033689343336002F00CFBAB685A1CCC
:10E4000004D0019A9A4201D11EF020FD01201EF095
:10E410007DFE80252D022C4203D002F077FD3F4B7C
:10E420001D6002231C4247D03C4E082033603E4B07
:10E430001F681EF06BFE01201EF048FD3B4B9F4203
:10E4400005D900223A4B110001201B689847394B2F
:10E450001B78002B53D0384B38001B6898470700B7
:10E4600038003649FFF7ECFE8023354A1B0603438C
:10E4700013609C23314D9B004543ED1BED18ADB25D
:10E48000AB0A05D000222A4B110001201B689847D7
:10E4900008212C4B2C4A1D6013680B431360214A42
:10E4A0002A4913680B400121136013688B430B4307
:10E4B0001360316020F048FD40231C4203D0174A0E
:10E4C00013601EF0C3FC04252C420BD0134B10200C
:10E4D0001D601EF01BFE134A01201368AB4313603E
:10E4E0001FF0A6FC0822144207D00C4B0D491A60FD
:10E4F0000B6893430B6002F005FB05B0F0BD3D25B2
:10E50000074AF9001369FB186F435B18180ADBB25E
:10E5100013613F18A4E7C0461C00005020000050C3
:10E5200034BF000018000050380000507F841E00E7
:10E5300024BF000030BF00002CBF000071020000AB
:10E54000440000504000005030000050FFFFFF8F9B
:10E5500070B580256D020B4A1368002B11D02B4239
:10E56000FAD0094B094C1D60094B032019681A6841
:10E570002368120C98470022012011002368984755
:10E58000E9E770BD100000501400005024BF0000E7
:10E590006000005010B5034B5B8BDB0701D41FF00C
:10E5A0008BFC10BD34BF0000012070470120704774
:10E5B000F8B507000E001500034C20001FF076FF91
:10E5C000A760E6602561F8BD5CBF0000F0B59C2740
:10E5D000002685B000900191BF00124D009B6A6932
:10E5E00001369C18019BAA6924019B182409BB428F
:10E5F00004D90D4A0134240124099B1802A86C6136
:10E60000AB611EF003FF029B01331C1B074B24016F
:10E6100024099C42E1D96869A9691EF093FD300084
:10E6200005B0F0BD5CBF000090FDFFFFFEFFFF07DF
:10E6300073B56C460E00050020001EF0E7FE044B8B
:10E640002800143306CC06C33100FFF7BFFF73BDAB
:10E650005CBF0000083810B50100040006481FF038
:10E660008DFF002807D0A088FF22E1881FF08CF8DA
:10E6700020001FF07BF910BD5CBF0000F8B506005C
:10E680000C3883881D4A934205D01D4A934223D0FB
:10E6900000F02AFB1FE0037A3F2B1FD85A1ED2B28C
:10E6A0001849D4080F5D07240125224017412A008C
:10E6B000BA432F420BD03E2B09D13278013AD3B264
:10E6C000DA0889180A7C23401A4195432A00002A57
:10E6D000DED01FF068F8F8BD3E23DFE7582BD7D80F
:10E6E000403BDBB2074AD90852180721127A0B4087
:10E6F0001A41130001229A43E9E7C04603110000C2
:10E7000004110000ACBA000070B50C4B04001A787C
:10E71000824204D80A4B01001B6803209847094D28
:10E720002B681B5D002B05D00022054B110001203A
:10E730001B68984701222B681A5570BDD4BE000093
:10E7400024BF0000A8BA000070B50C4B04001A7872
:10E75000824204D80A4B01001B6803209847094DE8
:10E760002B68195D002904D1054B0A0001201B68A4
:10E77000984700222B681A5570BDC046D4BE0000D1
:10E7800024BF0000A8BA0000030010B504292AD84D
:10E79000080020F0E5FB0303091023000A00032012
:10E7A000144B1B68984717E008221900124880187C
:10E7B00020F002FC10E0104C19002000082220F08C
:10E7C000FBFB002320000D4C0278195D01330A4346
:10E7D00002700130082BF7D1002010BD0648082236
:10E7E00019001030E4E70022024B110001201B68E1
:10E7F000D8E7C04624BF0000ACBA000064E80518A2
:10E8000070B50223050004009D4315D1182229008C
:10E810000B4820F0EDFB0B4B29001A780A4B1868C7
:10E8200020F0E6FB03210948FFF7AEFF042108486A
:10E83000FFF7AAFF01F022FE200000F0D9FA70BD18
:10E84000ACBA0000D4BE0000A8BA000054E8051815
:10E850005CE80518FFFFFFFFFF9F00201F0000007E
:10E860000000000000600400F8074002F0B5A44B6F
:10E8700087B01C68002C09D101F042FE002800D1AD
:10E880008BE09F4B9C68002C00D186E09C4B1C6168
:10E89000A1889C4BC818052800D927E120F074FBFB
:10E8A000060058007F00D00026011101944B5B7DCB
:10E8B0005BB2042B02DC924A013353750E26E31D32
:10E8C000039302AB2589F61863892800338001F091
:10E8D000E3F9021E1FD03388002B1CD08768002F5D
:10E8E00017D0200092780C307F2A0DD8010032001A
:10E8F00000971FF085FB0100002910D02A00824BF1
:10E900001B68032098470AE001003200B847C1B2F3
:10E91000F2E70421F2E7002D15D0012323730E2323
:10E92000E3713288764B0332D2B222725B7D191CBE
:10E930005BB2002B00DA0021A5722D0A6172E5722C
:10E940000420023222E0704B290032881B68D8E78D
:10E950006B4B5B7D5BB2042B02DC694A0133537560
:10E960000F22E31D0393E2710B3A23892272227B6B
:10E970006272634A527D111C52B2002A00DA0021F1
:10E9800004200622E3721B0AA172237300235C4950
:10E990000B755E4B039920F0A9FA07B0F0BD230078
:10E9A0000E270A33039302AB2189FF186389CEB285
:10E9B0003B80FF2904D9544B002203201B68984751
:10E9C000300001F09BF9021E33D04568002D19D0AC
:10E9D000200092783B880C30002A0ED100953A0036
:10E9E00001001FF00DFB0500002D0ED0464B32003C
:10E9F000290003201B68984708E03A000100A84757
:10EA0000C5B2F1E76389002B11D1002562893B88EB
:10EA10009A4205D23C4B3200290003201B689847DC
:10EA20000E2302AAA6729B181B88E37206E0042537
:10EA3000DCE7354B310003201B689847E27A7FE71B
:10EA400023000A330393267B638902AAD381300013
:10EA500001F066F9021EECD04568002D2FD0200091
:10EA6000927802ABDB890C30002A21D102A90E3248
:10EA70000095521801001FF0C3FA0500002D05D0C3
:10EA8000214B3200290003201B6898470E2702AB58
:10EA9000FF18398863898B4204D21B4B3200032054
:10EAA0001B689847002DC9D13E23A3723B88BCE761
:10EAB0000E2202A952180100A847C5B2DEE70425BC
:10EAC000DEE7216912480B1F0918A2890391114939
:10EAD0005A541149120A5A54E2891049100A5A54D8
:10EAE0000F490432585492B202204FE7064B0022DD
:10EAF00003201B68984700200200039046E7C046A9
:10EB0000C8BA0000FFEEFFFF24BF000025EB051888
:10EB1000FC3F0050004000500140005002400050B7
:10EB2000034000502E4B70B52E4C1B68256998474A
:10EB30002D4BAA8806009A4212D12B7B022B04D0BF
:10EB40000222190091430D2924D1217E002905D1EB
:10EB5000264B0A0001201B68984701E00139217605
:10EB600001232375A988224B99421BD8053B994262
:10EB70002FD92369002B03D020001FF0F5FC0500DE
:10EB800028001EF010FE1B4B30001B689847FFF753
:10EB90006DFE70BD152BE3D1E17D0029D8D0013980
:10EBA000E175DDE7144B994213D1200008301FF0C6
:10EBB000DBFC124B1A78AB891B051B0D9A4203DD57
:10EBC0002B6998B203F038F80023236101F082FC2E
:10EBD000CFE7064B002203201B689847C9E7C046D1
:10EBE000C0BE0000C8BA00000411000024BF00002D
:10EBF00005110000C4BE000006110000D4BE0000D4
:10EC0000F0B587B006000D001700039300285AD016
:10EC10008468002C4FD083787F2B29D80E2202A93C
:10EC20005218002100940800294B1FF0E9FA040053
:10EC3000002C38D1B368022218002649029320F034
:10EC4000ADF90E2302AA9B181E88002819D12A00AC
:10EC50002100330020481EF059FD022204000770F5
:10EC60000230039920F0A8F92000FFF707FD20E00B
:10EC700000230E2202A9521818001900A047C4B29E
:10EC8000D6E703221549029820F088F933002A00BC
:10EC9000210000281AD110481EF038FD0622040079
:10ECA00007700130DDE70E4B2A00210003201B68AE
:10ECB000984707B0F0BD0A000123210009481EF063
:10ECC00025FD0770D1E70A00012301000248F6E79D
:10ECD000FFFF00002E900618011100009DFD051891
:10ECE00024BF0000021100003B4B70B505001B68FB
:10ECF0009847AB88394A0600394C934205D1200029
:10ED0000290008301FF0E8FB36E0364A934207D16D
:10ED10002B7B0F2B3AD006D8022B27D00D2B0AD0F5
:10ED200029002000EEE7152BFAD1E37D032B20D834
:10ED30000133E375F4E7EB89E97D5B069B0F01295D
:10ED40000DD1627E022A39D0002A02D1227E032A06
:10ED500034D8013B5A425341DAB2002331E0A27E5B
:10ED6000F0E7012300222CE0A2762DE0237E032B86
:10ED70001DD928001EF017FD1B4B30001B6898475B
:10ED8000237D012B01D1FFF771FD70BD174AA97BCF
:10ED90001068EB7C4218415C022918D0002902D18E
:10EDA000217E032913D8013B59424B411370237E26
:10EDB00001332376B4E700231370DAE7012BD0D1B7
:10EDC00002220129D0D16276002BF0D0D1E7012BAD
:10EDD000F1D10223F0E7C046C0BE000006110000DA
:10EDE000C8BA000004110000C4BE0000C4BA00008C
:10EDF00070B5051E0C4C14D101001C22200020F01F
:10EE0000F7F80A4B29001A78094B186820F0F0F837
:10EE100020001FF04BFB200008301FF047FB0123B0
:10EE200023750523637570BDC8BA0000D4BE000009
:10EE3000C4BA000010B500F02FFFFF23002800D057
:10EE4000C378D8B210BD0000F0B589B005000391B9
:10EE5000029200F021FF5C4C0700637D7F2B05D9F7
:10EE600000225A4B110001201B689847584B9D42C5
:10EE700002D0637D013B6375002F00D1A1E0637D6B
:10EE80007F2B00D96CE00F21BB780493194008292F
:10EE900045D8080020F064F805260526434343437F
:10EEA0004A0000260E2204ABD21800239C46138091
:10EEB000039B634541D07C68644554D040216B4638
:10EEC00004989B89084005900498084230D100942A
:10EED000029905981FF094F90400012C2ED100230B
:10EEE000122217E0039B012B12D9029B1A785B7840
:10EEF0001B021343374A12789A4209DD364A1268D8
:10EF0000D25C002A04D001221B0213439EB2C9E73F
:10EF10000222029B29003800FFF772FE04E02B4B0F
:10EF20002A0003201B68984709B0F0BD0226B9E704
:10EF300060460299A047C4B2CFE7039C04AB3100FE
:10EF40002A00DB8925481EF0E1FB0600002C05D0D5
:10EF50001E4B2A00210003201B689847002E04D175
:10EF600000230722D6E70424E8E704ABDB89002B63
:10EF700012D07B689C46002B0ED06B46BA789B89DA
:10EF8000520615D4624600920E2204A9521830008F
:10EF900002991FF035F90400002C05D00B4B2A0014
:10EFA000210003201B68984730001EF0D3FBBBE70D
:10EFB0000E2204A96446521830000299A047C4B238
:10EFC000EAE73B000122A5E7C8BA000024BF000021
:10EFD000350C0000D4BE0000A8BA000005110000E6
:10EFE00070B5134A0C00117802050300120D0020C1
:10EFF00091420BDD9B0B834208D11800FB2C05D8F6
:10F0000002F060FE011E02D00A4BC01870BD012341
:10F010001A2209481EF07AFB01250570FFF72EFB26
:10F02000290020001EF016FC044B9D75EEE7C0463B
:10F03000D4BE00000040005003110000C8BA000018
:10F04000F8B5174B06009C7D0D001700002C06D06C
:10F0500010001EF08BFC0023114A9375F8BD114B74
:10F0600001051B78090D8B4212DD012309021943AA
:10F0700022000D4889B207331EF048FB0680458008
:10F08000002D01D0094BFC1844601EF063FBE5E73E
:10F09000074B0200290003201B689847DEE7C046A3
:10F0A000C8BA0000D4BE00000611000000C0FFAFC7
:10F0B00024BF0000F8B50D0006A90E78016807000E
:10F0C00088190124824211D31C1E09D02A6828689D
:10F0D0009419A342A4413200644264001FF06CFF03
:10F0E0003B689B193B602B689E192E602000F8BD81
:10F0F000F0B589B00500029103920691002940D035
:10F10000CE18012317880790C719009332003B00DF
:10F1100007A906A8FFF7CEFF0400031E26D0079B11
:10F120005D1B039B1D80200009B0F0BD01330593DA
:10F130005B000493EB18079302233200009307A9A6
:10F140003B0006A8FFF7B6FF002818D1049A07A9CC
:10F150000232AB18079302233200009306A83B004B
:10F16000FFF7A8FF00280AD16B461B7D0299079A7A
:10F170000978521B9942D2D9062AD7D9CFE7040081
:10F18000CDE70623039A029C1380CCE7F0B599B033
:10F190001D0002903A23081E0592079160D0029B41
:10F1A000002B61D001271488029B1C190126029BA9
:10F1B000451908932A002300009608A907A8FFF71D
:10F1C00079FF002849D1029B2A009B1908930096D9
:10F1D000230008A907A8FFF76DFF00283DD1029B77
:10F1E0002A00023308930096230008A907A8FFF716
:10F1F00061FF002831D1029B2A00033308930623C4
:10F2000008A9009307A82300FFF754FF002824D182
:10F21000029B2A00093308930096230008A907A837
:10F22000FFF748FF002818D1029B597A0390002964
:10F2300021D1039B032B04D9434B0A0001201B68F7
:10F2400098477F4200233C400227029E04931836D1
:10F25000039B049A934216DC0020089B029A9B1A97
:10F26000059A138019B0F0BD4E2404ABE41809AB25
:10F27000029F02939AE7314203D0039B0133DBB232
:10F2800003934908D3E733000E3B08932A00230079
:10F29000009708A907A8FFF70DFF0028DDD133006C
:10F2A0000C3B08932A002300009708A907A8FFF742
:10F2B00001FF0028D1D133000A3B08932A00230024
:10F2C000009708A907A8FFF7F5FE0028C5D133006D
:10F2D000083B08932A002300009708A907A8FFF716
:10F2E000E9FE0028B9D1B31F08932A002300009734
:10F2F00008A907A8FFF7DEFE0028AED1331F089348
:10F300002A002300009708A907A8FFF7D3FE0028CA
:10F31000A3D1B31E08932A002300009708A907A8C9
:10F32000FFF7C8FE002898D123002A00009708A9FB
:10F3300007A80896FFF7BEFE1036002800D08CE71D
:10F34000049B0133049383E724BF0000F0B58DB024
:10F3500007001D000800102305920691002941D0E6
:10F36000002F43D00123148804933C19012645192A
:10F3700023002A00009607A906A80797FFF79AFE20
:10F3800000282DD1BB1907932A002300009607A956
:10F3900006A8FFF78FFE002822D1BB1C07932A0086
:10F3A0002300009607A906A8FFF784FE002817D1BE
:10F3B000B978039000291DD1039B022B04D9254B5A
:10F3C0000A0001201B689847049B5E4234403E00BF
:10F3D000002308360493049A039B934212DC002016
:10F3E000079BDB1B059A13800DB0F0BD04970CAC96
:10F3F00008AFBBE7314203D0039B0133DBB2039379
:10F400004908D7E7331F079301232A00009307A970
:10F41000230006A8FFF74EFE0028E1D1B31E079394
:10F4200002232A00009307A9230006A8FFF742FE43
:10F430000028D5D102232A00009307A9230006A89B
:10F440000796FFF737FE06360028C9D1049B013323
:10F45000C0E7C04624BF0000F0B58BB007000C1E0B
:10F460000492069166D0002832D0158801224519F1
:10F4700005920126E3180393039A2B00009607A92F
:10F4800006A80797FFF716FE041E1AD1BB190793AB
:10F49000039A2B00009607A906A8FFF70BFE041E8F
:10F4A0000FD17B783F2B05D9244B020001001B684C
:10F4B00030009847059B5E42354000267B78B3427A
:10F4C0000AD8079BD81B049B188020000BB0F0BD06
:10F4D00005900AAD08AFCCE7B31C0593FB18079362
:10F4E0000123039A009307A92B0006A8FFF7E2FD6A
:10F4F00000281DD1B21C53000222FB180793009272
:10F500002B00039A07A906A8FFF7D4FD00280FD106
:10F51000B31DFB1807930123039A009307A92B003F
:10F5200006A8FFF7C7FD002802D10136F6B2C5E7ED
:10F530000400C6E70823049A1380C6E724BF00002E
:10F54000F0B5B7B007001D000492002900D1C7E054
:10F55000002800D19FE01688861901234D190093D9
:10F560002A00330008A907A808970797FFF7A2FD0C
:10F57000041E00D088E0BB1C079302232A000093DE
:10F5800008A9330007A8FFF795FD041E00D07BE013
:10F590003B1D079301232A00009308A9330007A805
:10F5A000FFF788FD041E6FD17B1D079301232A00FE
:10F5B000009308A9330007A8FFF77CFD041E63D160
:10F5C000BB1D079302232A00009308A9330007A854
:10F5D000FFF770FD041E57D13B000833079301234A
:10F5E0002A00009308A9330007A8FFF763FD041E53
:10F5F0004AD13B000933079301232A00009308A94D
:10F60000330007A8FFF756FD041E3DD13B000A3327
:10F61000079301232A00009308A9330007A8FFF7E6
:10F6200049FD041E30D13B000B33079301232A0010
:10F63000009308A9330007A8FFF73CFD041E23D15F
:10F640003B000C33079302232A00009308A93300E0
:10F6500007A8FFF72FFD041E16D1BB7B2A000593D8
:10F660003B000E330793012308A9009307A833003A
:10F67000FFF720FD041E07D13B00103302930390D7
:10F68000059B039A934209DC089BD81B049B1880B6
:10F69000200037B0F0BD36AE09AF5EE7029B2A000E
:10F6A000013B0793012308A9009307A83300FFF744
:10F6B00001FD002812D10123029A00930792330022
:10F6C0002A0008A907A8FFF7F5FC029B0233029362
:10F6D000002803D1039B01330393D1E70400D3E750
:10F6E000049B0C001980D3E7F0B5B7B007001D00EC
:10F6F0000492002900D1BAE0002800D193E01688D6
:10F70000861901234D1900932A00330008A907A880
:10F7100008970797FFF7CEFC041E00D07CE0BB1CC7
:10F72000079302232A00009308A9330007A8FFF7D4
:10F73000C1FC041E70D13B1D079301232A000093D6
:10F7400008A9330007A8FFF7B5FC041E64D1BB1D50
:10F75000079302232A00009308A9330007A8FFF7A4
:10F76000A9FC041E58D13B000833079301232A004B
:10F77000009308A9330007A8FFF79CFC041E4BD197
:10F780003B000933079301232A00009308A93300A3
:10F7900007A8FFF78FFC041E3ED13B000A330793F6
:10F7A00001232A00009308A9330007A8FFF782FC71
:10F7B000041E31D13B000B33079301232A00009331
:10F7C00008A9330007A8FFF775FC041E24D13B00ED
:10F7D0000C33079302232A00009308A9330007A8DB
:10F7E000FFF768FC041E17D1BB7B2A0005933B0082
:10F7F0000E330793012308A9009307A83300FFF7EE
:10F8000059FC041E08D13B001033029300230393DC
:10F81000039A059B934209DC089BD81B049B188024
:10F82000200037B0F0BD36AE09AF6AE7029B2A0070
:10F83000013B0793012308A9009307A83300FFF7B2
:10F8400039FC002811D10123029A0093079233005A
:10F850002A0008A907A8FFF72DFC029B0233029398
:10F86000002802D1039B0133D1E70400D4E7049BB5
:10F870000C001980D4E7F0B5C9B00C001D0003904E
:10F880000592002900D1E0E000282CD016888619C6
:10F89000039B65190793069301232A00009307A988
:10F8A000330006A8FFF706FC041E14D1039B2A00B0
:10F8B00001330693012307A9009306A83300FFF73D
:10F8C000F9FB041E07D1039F04901937039B049A88
:10F8D0005B7893420BDC079B039A981A059B188070
:10F8E000200049B0F0BD08AB48AE0393D0E73B0021
:10F8F000173B069302232A00009307A9330006A8AA
:10F90000FFF7D8FB002800D09DE03B00153B069395
:10F9100001232A00009307A9330006A8FFF7CAFBBA
:10F92000002800D08FE03A000623143A0692009394
:10F930002A00330007A906A8FFF7BCFB002800D067
:10F9400081E03A0001230E3A069200932A00330028
:10F9500007A906A8FFF7AEFB002874D13A000123DF
:10F960000D3A069200932A00330007A906A8FFF774
:10F97000A1FB002867D13A0001230C3A06920093BC
:10F980002A00330007A906A8FFF794FB00285AD1E4
:10F990003A0001230B3A069200932A00330007A98C
:10F9A00006A8FFF787FB00284DD13A0001230A3A49
:10F9B000069200932A00330007A906A8FFF77AFBF6
:10F9C000002840D13A00093A069202223300009200
:10F9D00007A92A0006A8FFF76DFB002833D1FB1FFB
:10F9E000069301232A00009307A9330006A8FFF716
:10F9F00061FB002827D1BB1F069306232A00009332
:10FA000007A9330006A8FFF755FB00281BD10123E7
:10FA10002A00009307A9330006A80697FFF74AFBC0
:10FA2000002810D13B787A1C069200932A003300FC
:10FA300007A906A8FFF73EFBFE37002803D1049B69
:10FA40000133049342E7040045E7059B198047E72B
:10FA5000F0B58FB006000C001D000592002900D102
:10FA600086E0002829D01788C7190123651900935B
:10FA70002A003B0008A907A808960796FFF71AFB7B
:10FA8000041E13D1731C079301232A00009308A9B5
:10FA90003B0007A8FFF70EFB041E07D1330011330C
:10FAA000039304907378049A93420BDC089B9E1B8B
:10FAB000059B1E8020000FB0F0BD262704ABFF1869
:10FAC00009AED2E7039B2A000F3B0793012308A945
:10FAD000009307A83B00FFF7EDFA002846D1012369
:10FAE000039A00930E3A07923B002A0008A907A840
:10FAF000FFF7E0FA002839D1039A3B000D3A07924C
:10FB0000062208A9009207A82A00FFF7D3FA0028C6
:10FB10002CD103992A00CB1F0793012308A9009336
:10FB200007A83B00FFF7C6FA00281FD10622039959
:10FB300000928B1F07932A003B0008A907A8FFF734
:10FB4000B9FA002812D10123039A009307923B00CF
:10FB50002A0008A907A8FFF7ADFA039B1033039307
:10FB6000002803D1049B013304939BE704009DE725
:10FB7000059B19809EE7F0B595B00C001D00039021
:10FB80000592002900D184E000282CD0168886191F
:10FB9000039B65190893079301232A00009308A982
:10FBA000330007A8FFF786FA041E14D1039B2A002E
:10FBB00001330793012308A9009307A83300FFF737
:10FBC00079FA041E07D1039F04900A37039B049A15
:10FBD0005B7893420DDC089B039A981A059B18806A
:10FBE000200015B0F0BD3F2604ABF61809AB039317
:10FBF000CEE73B00083B079301232A00009308A9A6
:10FC0000330007A8FFF756FA002840D1FB1F0793DF
:10FC100001232A00009308A9330007A8FFF74AFA36
:10FC2000002834D10622BB1F0793009233002A001C
:10FC300008A907A8FFF73EFA002828D101232A00C7
:10FC4000009308A9330007A80797FFF733FA0028A5
:10FC50001DD13B787A1C079200932A00330008A933
:10FC600007A8FFF727FA002811D13A000123203214
:10FC7000079200932A00330008A907A8FFF71AFA91
:10FC80002937002803D1049B013304939EE7040025
:10FC9000A1E7059B1980A3E78205920D830A012B3A
:10FCA00019D0032B19D0042B19D0052B19D0082BF0
:10FCB00019D000203F2B0DD13A3B0F49DB00CB1868
:10FCC00058685988002805D00C234B43C318984224
:10FCD0000BD1002070470023EFE70123EDE702235B
:10FCE000EBE70323E9E70423E7E701888905890DAA
:10FCF0009142EFD00C30EAE740FE0518002310B522
:10FD000002000648D9000C5C944201D1401810BD95
:10FD10000133092BF6D10020F9E7C0467403061819
:10FD20000200002310B50549DC0060180C5D944208
:10FD300003D00133182BF7D1002010BDBC030618E7
:10FD400042424842423642484848420042424848BD
:10FD5000484800424248384200424838424800423F
:10FD600042484242364236423642484848420042C1
:10FD7000423634420042423332420042424842421A
:10FD800000424248424236424248420042484242D1
:10FD900042426E42004242424842004242423642A1
:10FDA00000424248484842423642424842004248A5
:10FDB00048484C0042483342334242424236424273
:10FDC0004242424242420042384200484842424295
:10FDD00036424242004233314200424848424200E9
:10FDE000484842423642424848484848480042480B
:10FDF00035420048384248313642004236423136B8
:10FE00004231364200484242424800424848480097
:10FE10004242484800424242364248484200423646
:10FE20004242004242424242426E420048424848F8
:10FE300042003634424200424248424848000000F4
:10FE400001000200140306180300090070FE0518E3
:10FE500004000400DCFE0518050001002C03061850
:10FE6000080056000CFF05183F000500380306186F
:10FE7000010C0008C8FD0518D8FD0518030C00008A
:10FE800000000000D8FD05182D0C110389FD051890
:10FE900088FD0518310C0001D8FD0518D8FD05189E
:10FEA000330C000739FE0518D8FD0518350C401E27
:10FEB000F1F00518D8FD05187B0C11022F900618DB
:10FEC00011FE05187C0C110412FE05182E90061860
:10FED000630C0008C8FD0518D8FD051801100000C6
:10FEE0000000000037FE05180210000000000000AE
:10FEF00070FD05180310000000000000C7FD051884
:10FF000009100000000000009DFD05183920422A5C
:10FF100059F40518D8FD051836200219B4FD051846
:10FF200034FE0518372002FF26FE0518D8FD0518F7
:10FF300001200208C8FD0518D8FD0518022002009E
:10FF40000000000088FD05180320020000000000EA
:10FF5000C7FD05180520020602FE0518D8FD051884
:10FF6000072002000000000034FE05180620020FE2
:10FF7000CBFD0518D8FD051808200220D5FD051871
:10FF8000D8FD051809200220D5FD0518D8FD051853
:10FF90000A200201D8FD0518D8FD05180B2002071C
:10FFA000DAFD0518D8FD05180C20020234FE0518EC
:10FFB000D8FD05180D200219E0FD0518000000000D
:10FFC0000E20020000000000D8FD05180F200200DE
:10FFD0000000000034FE05181020020000000000A0
:10FFE000D8FD0518112002079DFD0518D8FD05183C
:10FFF000122002079DFD0518D8FD05181320130EC9
:020000041806DC
:10000000469006180000000014200205F0FD0518B7
:10001000D8FD0518152013022F900618EEFD0518BF
:10002000162013022F90061800000000172002204F
:10003000FEFD051800FE0518182002000000000053
:10004000C7FD05181920131CF3FD0518000000005A
:100050001A201312F6FD05182E9006181B20130205
:100060002F9006182E9006181C2002000000000099
:10007000C7FD05181D200201D8FD0518D8FD05187B
:100080001E200203D1FD0518D8FD05181F2002000F
:10009000000000002E9006182020130E469006182F
:1000A0002E9006182120130389FD05182E9006189E
:1000B000222013060CFE05182E900618232002009D
:1000C0000000000011FE05182420020412FE05188D
:1000D000D8FD0518252002000000000000000000E7
:1000E0002620024071FD051800000000272002278D
:1000F000FBFD0518D8FD0518282002079DFD0518F1
:10010000D8FD05182920020000000000D8FD0518C0
:100110002A2002000000000034FE05182B200207F0
:100120009DFD05189DFD05182C2002079DFD051855
:100130009DFD05182D200201D8FD0518D8FD0518D4
:100140002E2002022F900618D8FD05182F2002003D
:10015000000000004DFD0518302013022F900618F6
:100160007CFD051831200203D1FD0518D8FD0518C6
:100170003220130705FE051800000000332002039B
:10018000D1FD0518D8FD051834200204C2FD05185C
:10019000D8FD0518352002079DFD0518D8FD051866
:1001A000382002FF26FE0518D8FD05183A20020067
:1001B000000000002E9006183B2002000000000006
:1001C00034FE05183C200201D8FD0518D8FD05189D
:1001D0003D20020000000000D8FD05183E20020767
:1001E0000BFE0518D8FD05183F2002FF27FE051855
:1001F000D8FD05184020020234FE0518D8FD051868
:100200004120420D4DF30518D8FD05184220020685
:1002100010FE0518D8FD05184320423A8DF1051847
:10022000000000004420020E15FE0518000000002A
:100230004520020000000000D8FD051846200202FB
:100240002F900618D8FD0518472002081EFE051835
:10025000D8FD0518482002081EFE0518D8FD05180F
:100260004920020000000000D8FD05184A200200C5
:100270000000000034FE05184B20020000000000C2
:10028000D1FD05184C2002000000000011FE0518E9
:100290004D20020412FE0518D8FD05184E20020854
:1002A0001EFE0518D8FD05184F20025223FE051822
:1002B000D8FD05185020025223FE0518D8FD051858
:1002C0005920020389FD0518D8FD05185A20130688
:1002D0000CFE05182E9006185B2013051AFE051853
:1002E0002E9006185C2003082CFE05182E90061888
:1002F0005D20020619FE0518D8FD05185E20024192
:1003000032FE0518000000005F200201D8FD05182C
:10031000D8FD05180604110389FD0518000000002A
:100320001D0411022F900618000000000514110290
:100330002F90061888FD051811FC0801D8FD051836
:10034000D8FD051812FC080000000000AEFD0518DD
:1003500013FC130412FE05182E90061814FC130546
:100360001AFE05182E90061815FC13060CFE05182B
:100370002E9006180501000088FD051808010000F0
:1003800088FD05180C01000038FE0518100000005B
:10039000D8FD0518110100002F9006181302000067
:1003A00011FE05181A000000D8FD051830010000E4
:1003B0002E900618570100002F900618010000002B
:1003C00040FD05180200010077FB0518030100003D
:1003D0004CFD05180401000053FD0518050100003F
:1003E00059FD0518060100002590061807010000B8
:1003F000259006180A0000005FFD0518080000009F
:100400006FFD05180900000075FD05180B000100BF
:1004100051FA05180C0100007BFD05180D000100C4
:1004200077F805180E00000081FD05180F00000088
:100430008CFD0518100000002E9006181100000019
:10044000D8FD05181200000095FD051813000000E6
:100450009BFD05181401000088FD0518150001001A
:10046000E9F605181601010041F50518170100000D
:1004700007FE051818000000A1FD051810B5082298
:10048000002102481EF0B4FD10BDC046E4BA0000D1
:100490001123FA2802D9024B598000231800704713
:1004A000E4BA0000084B094A1B681278D2189A4235
:1004B00003D1074B1870002005E00133591E09785D
:1004C0000029F4D00C207047A8BA0000D4BE000068
:1004D000E4BA0000034B1A78002A02D0DA8801320D
:1004E000DA807047E4BA0000044A0021D3888342CE
:1004F00001D91B1A99B2D1807047C046E4BA0000F6
:10050000064A1378002B07D05388D28800209342E4
:1005100001D99B1A98B270470148FCE7E4BA000081
:10052000FFFF0000F7B50F004A688021436806000E
:100530008068D51A0090B8682D012D090905019031
:100540008D4227D99B1A1B011B095D42002B03D149
:10055000019B009A93421FD8019B3F690524D8193B
:10056000009BC01A002834DD1B490138FDF760FEEE
:10057000E8422ED4009B3069013C1818019BC01A38
:10058000C01B002825DC1549FDF752FE4519EC0F6C
:1005900003341EE0002DDBD00024009B36699E1939
:1005A000019BF61AA64214DD0C49701EFDF740FEB1
:1005B0004019A0420DDC38690134301A002808DDEA
:1005C00006490138FDF734FE45196C1E2C43E40F33
:1005D00001342000FEBDC046710200008FFDFFFF08
:1005E00037B568461CF04CFC019B9C2019009131EA
:1005F000FF31009A8000814204D9E13B19000132A9
:10060000120112090F4B1B68002B12D00E485C68B8
:1006100000780E4D201A000100099C68831A1B0106
:100620001B09AB420BD8904201D1A14204D2210058
:1006300002E00120190040421CF0F8FD37BD100017
:10064000FAE7C046ECBA0000E8BE0000FEFFFF0774
:10065000394BF0B5DD68002385B003900093002D81
:1006600007D1354BDB68002B01D01CF089FE05B0AB
:10067000F0BDA98A2B6802938B0B5AD03F233F20F1
:100680000A111340024254D00024AA7D3038084099
:100690001218AA75294A013B1B0111400B439BB25A
:1006A000AB82039E9B0B0193002E0DD1224E2A009C
:1006B000300000990C301DF099FF2A002100300015
:1006C0001DF0ECFF009D34E031002800FFF72AFF09
:1006D0000028EBD0052802D134003668E4E7B3687F
:1006E000326917499F183800FDF7AAFD736814494D
:1006F000C4183800FDF7B4FDAB688B42894149420C
:1007000064182401019B24096C60012BE4D9802327
:10071000E8681B05071B3F013F099F4203D9271AC1
:100720003F013F097F4206492869FDF789FDB8422C
:10073000D2DD0095029D92E7ECBA00000FFCFFFFAE
:1007400071020000013810B5012809D8054C2000BD
:100750001DF0ACFE20000C301DF0A8FE0023A360AD
:1007600010BDC046ECBA0000F0B5854B016904002D
:10077000CA18844B87B09A4204D9834B00220320C5
:100780001B6898479C23A2689B009A4205D90022C7
:100790007D4B110001201B6898477C4B1B689847D4
:1007A000039004A81CF06CFB794B049A1B78059904
:1007B0009B18FA2292001B018918793A1B09FF3A0B
:1007C000914216D86568734EEA1A1201A08A12097E
:1007D000B24204D89D421AD1A2688A4217D2820B33
:1007E0000DD101256C4B03981B689847280007B072
:1007F000F0BD634801331B0109181B09E0E7A2683B
:1008000063608A4203D201331B011B096360800BC2
:10081000012812D98020E16863680005CA1A120114
:100820001509854203D95B1A1B011B095D425B490F
:100830002069FDF705FDA842D3DC594B9D68002DCA
:1008400000D11D680026019600960296002D6FD0FB
:10085000A54205D100224C4B110001201B6898478E
:1008600029002000FFF75EFE002861D0052813D084
:10087000A17DAA7D914230D9494B9B68AB422CD0D7
:10088000009B002B00D10095022398430136C0B293
:10089000F6B2019501284BD0A38A9B0B012B13D9EB
:1008A0008021E26863680905D71A3F013F098F423A
:1008B00003D99F1A3F013F097F4238492069FDF75C
:1008C000BFFCB84200DD8CE7354B9A68AA424FD096
:1008D000002E00D102952D68B8E7A38A9B0B18D093
:1008E000AB682A692D499F183800FDF7A9FC6B6891
:1008F0002A49C6183800FDF7B3FCA3688B4289412A
:10090000494276183601360966600026019600963F
:10091000C2E7914200D864E7214B9B68AB4200D00C
:100920005FE7C31EDBB2012B00D95AE70328B3D11E
:10093000009B002B0BD01A4D019A280002991DF044
:100940008BFE2800019A00990C301DF0DBFD029B04
:100950001348002B0ED0220019001DF09FFE002529
:10096000009BAB4200D13DE72000FFF771FE39E765
:100970001D686BE721001DF0E5FDFFF731FEEEE796
:100980008FFDFFFF0F18060024BF0000C0BE00004F
:10099000E8BE0000FEFFFF07C4BE000071020000B9
:1009A000ECBA0000F8B5184B07001B680C0098471C
:1009B0000500002F06D10024144B28001B6898471F
:1009C0002000F8BD124EB368BB4202D10024B460CF
:1009D000F2E7002CEFD133689F4205D130001DF0C3
:1009E000C3FDFFF7FDFDE7E7390030001DF0C6FD50
:1009F0000028E0D1300039000C301DF0BFFD002888
:100A0000D9D10224D8E7C046C0BE0000C4BE000051
:100A1000ECBA0000F0B5374E85B0346802A81CF07F
:100A20002FFA002C06D1F368002B5FD1FFF7D8FD19
:100A300005B0F0BD0625039B626801932E4B029F13
:100A40001B78ED1BD31A5A192C49120112098A423C
:100A500008D806331B011B09BB4227D1A368019AA2
:100A6000934223D230001DF07FFD010030000C3096
:100A70001DF032FD3468002CD5D01F4B62681B7806
:100A8000D31A5D191D4A2D012D09954208D8063348
:100A90001B011B09BB4209D1A368019A934205D2ED
:100AA0000022174B110001201B689847124B626807
:100AB0001B781249D31AFA43D218120112098A423A
:100AC00008D8013B1B011B09BB42ACD1A368019AAA
:100AD0009342A8D830001DF047FD8369B060002B19
:100AE00000D098473468002CE0D19CE71CF048FC0B
:100AF0009CE7C046ECBA0000E8BE0000FEFFFF071E
:100B000024BF000070B50F4E30000C301DF0E8FD22
:100B1000C4B263B2002B00DC70BD30000C301DF09D
:100B200023FD051E05D1084B020001001B680120B2
:100B300098472B6A002B01D028009847013CE4B26B
:100B4000E7E7C046ECBA000024BF0000124B13B523
:100B50001C68002C1CD068461CF092F99C22019B5A
:100B6000C8219200D21A0023490091425B41009AA9
:100B700001339B181B0162681B09D21A0749120135
:100B800012098A4200D9636060681CF027FB13BD1C
:100B900001204042F9E7C04600BB0000FEFFFF070E
:100BA000013810B5012802D801481DF07FFC10BDA6
:100BB00000BB000013B568461CF062F90E480468DB
:100BC000002C17D06268009B9B1A0C4A1B011B0962
:100BD00093420DD81DF0C8FCA168002902D0200066
:100BE0008847E8E7064B0A0001201B689847E2E7C0
:100BF000FFF7ACFF13BDC04600BB0000FEFFFF07C0
:100C000024BF00001E4BF7B51B6804009847050081
:100C100068461CF035F99C22019BFA219200D21AF9
:100C20000023490091425B41009A01339B181B014C
:100C300062681B09D21A134E12011209B24200D97E
:100C40006360002110480268002A09D1002911D0F0
:100C500022001DF023FD0D4B28001B689847F7BDAF
:100C600053686768DB1B1B011B09B342EED91100F7
:100C70001268E9E721001DF065FCFFF767FFEAE76E
:100C8000C0BE0000FEFFFF0700BB0000C4BE0000A6
:100C900070B5144D04002B00FF335A78824204D003
:100CA000114B01001B68032098472B00FF33D978B4
:100CB000002904D10C4B0A0001201B68984724012D
:100CC0002B19197B002904D1074B0A0001201B684E
:100CD000984729194B68002B03D0022289682859AC
:100CE000984770BD08BB000024BF000070B5144DCC
:100CF00004002B00FF335A78824204D0114B0100CC
:100D00001B68032098472B00FF33D978002904D1B2
:100D10000C4B0A0001201B68984724012B19197BF2
:100D2000002904D1074B0A0001201B6898472919A4
:100D30004B68002B03D0032289682859984770BD5F
:100D400008BB000024BF0000F8B5284C05002300B4
:100D5000FF33D978002904D1254B0A0001201B68F4
:100D600098472E01A7193B7B002B31D0214BE81867
:100D700000011BF0D5FF8006400F062828D17B68B4
:100D8000002B1ED00422B968A05998472300FF33D6
:100D90005A78AA4203D10F20013505405D70002327
:100DA0002200A619FF323373D378013BD370FF348E
:100DB000E378012B13D10F22637801331340A37022
:100DC000F8BD0B4A1900176801201A00B847DDE783
:100DD0000022074B110001201B689847E7E7002B12
:100DE000EED1802080001CF091F9E9E708BB0000FB
:100DF00024BF000000040005F8B5304E04003300A5
:100E0000FF335A78824204D02D4B01001B68032027
:100E100098472C4BE01800011BF082FF3300FF3392
:100E2000D97885066D0F002904D1254B0A000120D1
:100E30001B6898472701F3191B7B002B05D1204B1A
:100E40002200290003201B689847EB1E022B05D9BE
:100E500000221B4B110001201B689847F1194B68B9
:100E6000002B23D0043D6A4255418968F059EAB20B
:100E70009847002332000F25F719FF323B73D378D0
:100E80009178013BDBB2D370A14206D001342C40F3
:100E90002201B218127B002AF6D0FF367470002BA4
:100EA00003D1802080001CF031F9F8BD044A1900FC
:100EB000156801201A00A847DBE7C04608BB000000
:100EC00024BF000000040005013870B5012816D8C1
:100ED000822200210A4852001EF08AF8382618257E
:100EE000084C20001BF01CFF0100B14329432000E7
:100EF00089B21BF01EFF044B10349C42F1D170BD2F
:100F000008BB000000400050004100500C4B70B581
:100F10001C6825012D0F230702D52800FFF7E6FEE8
:100F2000E30602D52800FFF7B3FE630702D5200FC2
:100F3000FFF70AFFA30702D52800FFF75DFF70BD8A
:100F400024000050F0B5A84E0F273300FF339A78E5
:100F500085B000925A7800990400891A39400291AC
:100F6000DB78002B08D0009B9A4205D19F4B009A5A
:100F7000032011001B6898470F20009B6268013B0B
:100F8000034001931B01F3589A4205D10022974B6D
:100F900011001B680E389847009B954A07279D183B
:100FA0002D0128001BF0BCFEC0103840012800D0E5
:100FB000FAE03300FF3359788C4B03201B68009A0A
:100FC0009847029B0D2B1BD9884B1B680393009BF2
:100FD000981E0F231840864BC01800011BF0A0FE7E
:100FE000834A019B94466344070018011BF098FE56
:100FF000C2100720F91002400140039B05389847B2
:101000000127009B61681B01F150F618236989B222
:10101000B3602368377373609C26A81C1BF089FE9D
:101020006368281D1901090D1BF083FEA368B60033
:10103000B34205D900226D4B110038001B68984758
:10104000A368F61AB6B2B30A05D00022674B1100A6
:1010500001201B689847A81D31001BF06AFE2F0075
:101060008023E0680A371B02984200D2A5E0614B5A
:101070001900C018FDF7E4F80600030405D50022A6
:101080005A4B110001201B6898475B49314389B2D4
:1010900038001BF04EFEA37D191C1F2B00D91F2109
:1010A000C9B20A02617D0B1C1F2900D91F23280029
:1010B000D9B211430C301BF03CFEE17D4F4F0B02C7
:1010C00001933B4205D00022484B110001201B68D0
:1010D00098472E000E3630001BF022FE019B074081
:1010E0001F433000B9B21BF024FE637E002B3BD1BE
:1010F000702128000D27237E083059435131FF31DC
:1011000089081BF016FE029B217F9F42BF417F4250
:10111000237DA67E3A4ABF02002951D0E47E191CE5
:101120001F2B00D91F21C9B2CB02360201931642F0
:1011300005D000222D4B110001201B689847E401C7
:10114000802322009A4305D00022284B1100012061
:101150001B6898474221019B3E431E433443214371
:10116000280089B21BF0E5FD0F23009A9A4305D0B1
:1011700000221E4B110001201B68984780230F217D
:101180008020009A1B0613431E4A80001360164BF2
:10119000FF339A7801320A409A70DA780132DA70B5
:1011A0001BF094FE05B0F0BD28001BF0B9FDC01087
:1011B0000740022F00D004E7FBE60130410866E754
:1011C0001C1C1F2B00D91F24E4B23602E402164275
:1011D00005D00022054B110001201B6898473E43B3
:1011E00002213443BBE7C04608BB000024BF000017
:1011F00000040005710200000080FFFFFFE0FFFF18
:10120000FFFEFFFF00010050F0B593B01C000290FC
:101210000E910492002809D1002A75D10022B74B03
:10122000110001201B68984701236BE0002CF5D0CA
:1012300063680393A3890D930023802510A80B9363
:101240001BF01EFE109B2D051D402B005A1E9341C6
:10125000DBB20193039B002B05D1A84B039A01201D
:1012600011001B6898470022A54B1A60A54B1B78FC
:10127000934258D1A34B019A1A70029B012B6AD159
:1012800023680593059B002BCED0039B002BCBD06E
:101290000B9B0193029B012B01D1A36801939A4BF5
:1012A0001E68002337000A930993039B013B0F93A9
:1012B000002F00D1C0E0019B059A93421BD2029BF4
:1012C000002B4BD10E9B002B48D03B697D680693C9
:1012D000002D51D0069B002B4ED0BB8A0D9A934215
:1012E0004AD0059B2C009D4200D91C00069B039A06
:1012F0009B18A34234D90A9B002B02D0804B099A39
:101300001A6003230293B6E0049B9B6803930E9B31
:10131000002B02D0049BDB680393049B1B8A0D9374
:10132000049BDB7C89E7002DA4D18026764B7605D3
:101330001D68002D9ED06F68AB683900FB18300027
:101340000593FCF78DFF059B581A3900FCF788FFC1
:10135000A9602D68EDE7049B5B6992E7FB68B5E740
:1013600021000598FCF77CFF002905D12100280009
:10137000FCF776FF002902D03F68019932E0210096
:10138000B868FCF76DFF069B0D005B180C932100FD
:10139000013B01980893FCF763FF8C460F9B069175
:1013A000634407938D4200D9B0E0089B8B4207D27B
:1013B000079B9D4218D8089B079A934200D298E059
:1013C000029B012B32D021000C98FCF749FF019BB6
:1013D0008B4224D201230B9A0B40002A21D0002BF0
:1013E00022D03700019163E7069B9D4203D1089B01
:1013F000079A9342E4D9089B9C4206D81800210022
:10140000FCF72EFF069B9942DAD2079B9C42B3D889
:1014100021001800FCF724FFA942ADD3D0E7091939
:10142000D5E73700002BDDD00131DAE7012309973A
:10143000059937000A93D5E70A9B002B02D0304B61
:10144000099A1A60019B059A934200D359E7029BBF
:10145000002B4CD1049B019A5F699A611B8A069309
:101460007B1E9B180593002E08D139000598FCF7C8
:10147000F7FE049BD961029813B0F0BDB38A069AB7
:10148000934217D07568BD4200D93D00002D05D1AB
:101490001A4B2A00290001201B68984729003800B0
:1014A000FCF7DEFE002905D129007068FCF7D8FEA4
:1014B000002901D03668D6E72900B068FCF7D0FED5
:1014C0000C00019BA34210D2039A9B189C4205D2A8
:1014D00000220A4B110001201B689847039BE41A65
:1014E000059BA342E6D90594E4E76419E9E70023E4
:1014F00008E7069B9D4200D27DE761E724BF00001C
:101500000CBC000018BC000010BC0000079B9D42F2
:1015100000D855E76BE7C046013810B5012805D85B
:101520000022034B03481A701CF0C0FF10BDC046D8
:1015300018BC000010BC00001FB5C16804000029E1
:1015400004D1184B0A0001201B6898476A4663685B
:1015500001200093E3680193A38A93810022A3688A
:10156000110002936B46FFF74FFE032809D10E4B83
:101570001B68002B05D0A1699A69002906D1002AB1
:101580000BD1210009481CF0A7FF1FBD002A03D082
:10159000A17D9A7D914200D32300988A9B69984748
:1015A000EFE7C04624BF00000CBC000010BC0000E8
:1015B00010B5010001481CF0E1FF10BD10BC000097
:1015C000F7B5036846680400466101939E4216D948
:1015D0002B4B01271A6800237F42002A22D1002BBF
:1015E0002CD1A57C002D48D029003000FCF728FE26
:1015F0004543019BAB4202D8AE4200D36561002354
:10160000220001211800FFF7FFFD002809D0A36880
:10161000E268934205D20023220019001800FFF768
:10162000F3FDFEBD908A218A884205D051680133BE
:10163000DBB28F4200D90F001268CEE7BE4206D35C
:1016400039003000FCF7FCFD78430500D1E70125A7
:1016500000966D4238000099FCF702FE0023994283
:1016600001D1009D0133009A023A00920099019A3B
:101670008A42BED8002BEDD0BBE701256D42BBE707
:1016800010BC0000002210B5030011000120FFF77C
:10169000BBFD10BDF7B52B4F2B4DBB89BE68AB8092
:1016A00001235B422B60294B0193002E15D1019A37
:1016B000274B5343AA889A4200D91A00AA807A6815
:1016C000531C09D02B68591C05D09B1A21491B01BA
:1016D0001B098B4200D92A60F7BD00238022120625
:1016E000DA40164202D10133202BF7D11F22D31A40
:1016F0000093194B009A1B78934205DC0022174B8C
:10170000110001201B689847009BDA00144B1B68EE
:101710009B181C68002C0FD098880D49FCF790FD91
:10172000241AA4B2022C01D9023CA4B2019BA34208
:1017300000D923009BB201930123009A93409E435A
:10174000B3E7C04620BC000030BC0000FFFF000033
:1017500071020000FEFFFF07D4BE000024BF00009E
:101760001CBC000037B50138012822D8114C1022CA
:10177000002120001DF03CFC0F4B00211A780F4B7C
:10178000D20018681DF034FC01230D4D5B426360EC
:101790002B606B46D91D022322000B70094B1720CA
:1017A0001B680C329847002801D0074BA381A389FE
:1017B000AB8037BD20BC0000D4BE00001CBC0000C4
:1017C00030BC0000DCBE0000E45700000122824073
:1017D00010B503490B7813430B70FFF75BFF10BD87
:1017E00020BC00000122824010B503490B789343CE
:1017F0000B70FFF74FFF10BD20BC0000030001205D
:1018000070B505009D40084A14782C431470022BD3
:1018100003D15160FFF73EFF70BD0022034B110062
:101820001B689847F6E7C04620BC000024BF0000B4
:101830000300012010B504009C400B4A1178A1431D
:101840001170022B0AD1033B5360FFF723FF074BB4
:101850001B68013301D114F079FD10BD0022044B47
:1018600011001B689847F0E720BC000030BC000066
:1018700024BF0000033810B501280ED80A48CC0058
:1018800000680019838001238B400260074A916839
:101890000B439360FFF7FEFE10BD0022044B1100C6
:1018A00001201B689847F5E71CBC000020BC000025
:1018B00024BF0000033810B501280DD800200A4BC2
:1018C000CA001B68D05001238B40084A9168994395
:1018D0009160FFF7DFFE10BD0022054B11000120D3
:1018E0001B689847F5E7C0461CBC000020BC000000
:1018F00024BF000010B5040000F00CF8002C02D04A
:1019000020000CF0DFFF200006F0AAFB200000F012
:10191000FDFB10BD7021F0B5824D0C262B78040024
:10192000181D414303209A1C56435431FF31361889
:10193000814389197C4E8143377838267E43361897
:10194000891930265E438143AB31361881438919AA
:10195000764E8143891946265E438143361889199C
:1019600012021218814389182722534381431B18FE
:10197000C91881436E4B69318143C9188023814363
:1019800009188143091885B081431B02994204D983
:10199000684B890A1B68073A9847002C05D0013C20
:1019A000012C00D89AE005B0F0BD21002022624849
:1019B0001DF01EFB5B4B702518785B4B41001A78BD
:1019C00038235A43083B4343033301930C23071D39
:1019D00084B20230434303269C467D435435FF3591
:1019E000B444B54365440332B5435519B543019B2F
:1019F000AB35B5435D194D4BB543ED18B543ABB2AF
:101A00004E4D02932B680139039323239C4609B260
:101A10004B1C57D170250C266F4381B2704354374D
:101A20006D3DFF37AF4340193818A8431218AA4339
:101A3000019BAB32AA439A18AA4392B215004048C0
:101A4000404B0068D318FB3D9BB24430ADB20380DD
:101A5000013BFF3B9BB20838AB42F8D14623334EE3
:101A6000634392190326601CB24303339B1805009D
:101A7000C2003548B34300689BB28018ADB22A0259
:101A8000013D9A182DB2828008386A1CF6D12720B1
:101A9000090203315B18032144438B4364181B196B
:101AA0008B432A4A693312688B4329495B1811001A
:101AB0009BB22C31043A0B80FE3B08399BB28A4220
:101AC000F9D170E766468DB26E43029BC9009E193C
:101AD000039B013D59188E8029B299E7164C2B784B
:101AE00016492000082209685B001CF0E3FC200076
:101AF000134909230822096808301CF0DBFC200088
:101B00002B78114908220968023310301CF0D2FCEE
:101B100020000E4906230822096818301CF0CAFC70
:101B200041E7C046D4BE0000D5BE00000309000056
:101B3000F705000024BF000048BC000040BC0000C6
:101B400044BC00000508000038BC00003CBC00009C
:101B5000F6040000074B70B51B689847050006485F
:101B60001CF002FD0400054B28001B68984720006C
:101B700070BDC046C0BE000048BC0000C4BE00002E
:101B8000F8B5060070201E4B03241D7823212B1D61
:101B900058430C23AA1C53435430FF301B19A04355
:101BA000C018184BA0431A78382353431B19C01888
:101BB00030236B43A043AB301B19A043C018124B1A
:101BC000A043C018A043301AFCF73AFBC7B26D001F
:101BD000AF4205DB0D4B3200390020001B689847EF
:101BE0000B4B1B68984704000A4BF9001F680A4812
:101BF00079181CF071FC094B20001B689847F8BD50
:101C0000D4BE0000D5BE00000309000024BF0000C0
:101C1000C0BE000040BC000048BC0000C4BE0000C4
:101C2000044810B508301CF09FFC002800D08088C4
:101C300010BDC04648BC000070B51C4B0C24197880
:101C400070230A1D534303228D1C6C435433FF330E
:101C5000A41893431B19164C9343257838246C43DE
:101C6000A4181B193024FF2661439343AB339343DD
:101C700089185B1805389343C01A304203D1040A0F
:101C8000E3B2082B00D9FEE70A4B34401B689847A3
:101C90000500094B0948E1001C68083061181CF078
:101CA0001BFC074B28001B68984770BDD4BE000082
:101CB000D5BE0000C0BE000044BC000048BC00000F
:101CC000C4BE0000084B70B51B6898470500074864
:101CD00010301CF049FC0400054B28001B68984795
:101CE000201E00D0A08870BDC0BE000048BC00000F
:101CF000C4BE000070B57024194B02001B7803208D
:101D0000191D4C430C219D1C69435434FF340918A0
:101D100084436418134984430D78382169430918B2
:101D20006418302159438443AB3409188443641840
:101D30000D498443641846215943844309186418A3
:101D40008443141B240AE4B20133A34203DA074B91
:101D500021001B689847064BE0001C68201870BDE6
:101D6000D4BE0000D5BE00000309000024BF00005F
:101D700038BC000070B570241F4B02001B78032094
:101D8000191D4C430C219D1C69435434FF34091820
:101D900084436418194984430D783821694309182C
:101DA0006418302159438443AB34091884436418C0
:101DB000134984436418462159438443091864181D
:101DC0008443141B240AE4B20133A34203DA0D4B0B
:101DD00021001B6898470C4B1B68984705000B4B6C
:101DE0000B48E1001C68103061181CF075FB094BB2
:101DF00028001B68984770BDD4BE0000D5BE000007
:101E00000309000024BF0000C0BE000038BC000071
:101E100048BC0000C4BE0000084B70B51B68984762
:101E20000500074818301CF09FFB0400054B2800F4
:101E30001B689847201E00D0A08870BDC0BE00005F
:101E400048BC0000C4BE000070B505007020274BE0
:101E500003241A78111D48430C21931C5943543014
:101E6000FF300919A04340182149A0430E783821BA
:101E700071430919401830215143A043AB3009196F
:101E8000A04340181B49A043401846215143A0439A
:101E9000091940181B021B19A043C01827235A43D5
:101EA000A04312198018A0436930A043FE21281ACC
:101EB000FCF7C6F9C6B2C0B2052805D90E4B2A00F8
:101EC000310020001B6898470C4B1B6898470400A2
:101ED0000B4B0C48F1001E68183071181CF0FCFA0E
:101EE000094B20001B68984770BDC046D4BE000057
:101EF000D5BE00000309000024BF0000C0BE0000E2
:101F00003CBC000048BC0000C4BE000010B502008C
:101F10000C000123002103481BF0F8FB0470FCF7C0
:101F2000ADFB10BD0111000010B502000C00012333
:101F3000002103481BF0EAFB0470FCF79FFB10BD77
:101F400002110000F7B5002400900191124D2B788A
:101F5000A3421BD94426114F66433B6899190B00D5
:101F600040331B78092B02D00134E4B2EEE700982D
:101F700020311CF022F80028F6D03B68019A9E1907
:101F80000736F37F534001221342EDD12878844273
:101F900080414042FEBDC046D4BE000068BC000087
:101FA000F0B5002485B0019002910392174D2B7873
:101FB000A34225D94426164F66433B6899190B0066
:101FC00040331B781A000E3A012A04D9112B02D093
:101FD0000134E4B2EAE7019820311BF0EEFF00285B
:101FE000F6D03B68029A9E19330036331B78534073
:101FF00001221342ECD12E363378039A9342E7D173
:10200000287884428041404205B0F0BDD4BE000033
:1020100068BC000030B500200A240125074B196870
:10202000074B1B780133220042438A18527A2A4216
:1020300003D00130C0B28342F5DA30BD6CBC000081
:10204000D4BE0000F7B5050000240A26012701913F
:102050000D4B186833006343C018437A3B4208D1E4
:102060000A4B01341B78E4B20133A342F0DA2000BA
:10207000FEBD037A019A9342F2D129001BF09DFF25
:102080000028F4D1ECE7C0466CBC0000D4BE0000D0
:10209000F7B5050000242726012701910C4B1B787A
:1020A000A34213D90B4B186833006343C0188379DC
:1020B000FF2B02D10134E4B2F0E7019A3A40934297
:1020C000F8D129001BF079FF0028F3D02000FEBDD5
:1020D000D5BE000070BC00000A4B18780A4B1A6885
:1020E00000230632984204D1C01A43425841C0B27C
:1020F00070472732110027390978FF29F4D10133BD
:10210000DBB2EFE7D5BE000070BC0000F0B585B0D3
:10211000012821D0022800D1BDE0002802D1614968
:102120001BF090FD05B0F0BD2A005F4B62431B68B9
:10213000D058002802D00C381BF035FB0134E4B233
:102140005A4B1B78A342EFD8002104201BF094FACD
:10215000002106201BF090FA554CF42200212000AB
:102160001CF046FF2722534B00211B7806265A43BA
:10217000514B1B68180001931CF03AFF44224B4D51
:1021800000212B785A43484B18681CF031FF0A2273
:102190002B78002102335A43484B1F2518681CF046
:1021A00027FF2300E122543392001A80444B082277
:1021B0006362444B4449638544481CF0FDFE0122A0
:1021C000434B52421A60FF212577053241481CF0EB
:1021D0000FFFA31CDD7702AB3F4D5E713F4B02A9A1
:1021E0002A0001201B6805319847002804D03200DE
:1021F00028003B491CF0E0FE20230125374F02AAAE
:10220000537102AB591D374A3B688020984702AB97
:102210009E1D02A95D71320015203B68053198476B
:10222000002801D133781D402300EF331D700125B4
:1022300002ABDE1D5D71294B02A9320019201B681B
:1022400005319847002801D133781D40230001262D
:10225000F0331D7002AB244D5E71204B02A92A00A1
:1022600016201B6805319847002800D02E70114AAF
:10227000114B117827224A43FF211B68D2189A423A
:102280000CD1FA22543423889200002106205A43AC
:102290001BF058F946E70024442551E7997127338C
:1022A000EDE7C046B426061868BC0000D4BE0000A6
:1022B00074BC0000D5BE000070BC00006CBC000007
:1022C0001B00480107070000A825061878BC00007D
:1022D0008CBC000091BC000080BC0000DCBE000093
:1022E00054E40718A7BC000060BD0000012310B52E
:1022F000094C83402268002906D080201343400106
:1023000023601AF0E3FD10BD9A432260FBD18020C8
:1023100040011AF0FBFEF6E774BC0000F8B5442457
:102320001E4E4443336800211F190500FFF7DEFFEE
:102330000022336804371B1940331A703800FFF746
:1023400037F933681819C31DD97F2030FFF77AFE9B
:10235000134B1B78013383420EDB0A22114B42439D
:102360001B689B185B7A9B0706D533681919CB1D30
:10237000DA7F20310BF0E4FF30680019C31DD97FEC
:102380002030FFF785FE084B1B78834202D90021DD
:102390000CF0F0FD2800FCF7D7F9F8BD68BC000090
:1023A000D4BE00006CBC0000D5BE000000487047E1
:1023B00091BC0000054BC2089B1807221B791040F6
:1023C00003411800012318407047C04674BC000048
:1023D00000487047B0250618024B5A330020185E9B
:1023E0007047C04674BC0000024B58330020185E92
:1023F0007047C04674BC000044234343024A10683F
:10240000C01804307047C04668BC0000F7B50BF038
:102410001FFF01900BF052FF0400002101259434AE
:102420000726464ACB10D3181A7E0E4032412A4264
:1024300006D12A00B24016005A7FB2435A7711E003
:102440003F4A1278002A0DD08A00019F8258BA1A9A
:10245000C827120112097F01BA423AD20022A256BD
:102460000132E6DB013101342529D9D1354E300066
:102470001BF0B0FD01281AD8002301212F4F07259A
:102480001C002C40A4466546DA10BA18147E2C4174
:102490000C4209D00C00AC40A4466546547F2C4346
:1024A0005477012803D008000133252BE7D10024FD
:1024B00030000CF041FF2500234B1B78A34214DCB5
:1024C000002D37D0FA220021042012011BF03AF827
:1024D000F7BD00272770FA27FF01BA42C2D92A00A8
:1024E000B24016005A7F3243A8E744236343174F94
:1024F0000193019A3B689B181A0040321278092A0E
:102500000BD10833DA7F002A07D1012321021943B6
:10251000022089B21BF038F901253B68019A9B180B
:1025200040331B780C2B03D13100E0B211F0D0FD09
:102530000134C1E7014B0333DD77C9E774BC000008
:1025400064BD000091BC0000D4BE000068BC000067
:10255000F8B50023040044270E4A0F49037023787E
:102560001678B34210D2380058430D682818050079
:1025700040352D78002D0AD12022290020301CF072
:1025800037FD2378B34200D307252800F8BD013377
:102590002370E4E7D4BE000068BC0000014B18685B
:1025A0007047C04670BC00001F0000000000000023
:1025B000FF79010F000000000020024B0433D877A0
:1025C0007047C04674BC000070B522230D003E2247
:1025D000002109481BF09AF800260923040029006D
:1025E00003704670202202301CF0E6FC2000FCF74D
:1025F00045F8300070BDC04604110000F8B53E2219
:102600000D00422300210F481BF080F820260823EC
:1026100000270400037032002900477002301CF0CC
:10262000CBFC2000A919320022301CF0C5FC200090
:10263000FCF724F8044B31005B68044A802098477B
:102640003800F8BD04110000DCBE0000A7BC00008B
:1026500070B511230D00094A002109481BF056F8F6
:10266000691C04000025102201301CF0A5FC20008C
:102670002570FCF703F8280070BDC0461720000045
:1026800001110000FA2210B5064B920054331B884A
:10269000062000215A431AF055FF0BF013FE0020CC
:1026A00010BDC04674BC000010B5FFF7AFFE00209F
:1026B00010BD0000C026061868BD00000100120011
:1026C000070000005126061804000000A92606187D
:1026D00005000000B925061806000000852606182A
:1026E00008000000FD25061809000000C92506188D
:1026F0000A020000197D0618020200002150061887
:1027000007020000855006180802000095550618BB
:10271000030000001563061801020000516306184B
:1027200006020000DD700618030200008169061829
:1027300004020000DD6A061805020000A96E0618F2
:10274000090200005979061805110000E134061845
:10275000442130B5104B1A68104B14001B784034DC
:1027600059430023994201D1012030BDE05C851E10
:10277000012D05D8D058C07C00280BD14433F1E797
:10278000072802D1D0584078F6E70528F6D1D0586E
:102790000078F1E70020E8E768BC0000D4BE000044
:1027A00030B50D4A0124117844220C4B4A431B6872
:1027B0000B484033D218934201D1002030BD197824
:1027C00044331129F7D80500CD40290025008D4359
:1027D000F1D10120F2E7C046D4BE000068BC000081
:1027E000AC400200F7B5174A01911400EE34257889
:1027F00003000C21012D1FD00A39217007781031F8
:10280000022F19D8FA2446886400A64214D285887B
:102810000D482C000A3CA4B284420DD89C791723A1
:102820002000984308D111002C310F701100323173
:102830000C700100D68515860198FFF767FB002014
:10284000FEBDC04674BC0000F63F0000F8B50300B2
:102850001A780800140002210C400A4203D19D7826
:102860001031002D2AD0012115000D400A4206D159
:102870005A781131002A21D0002C0AD101E0002C15
:1028800020D107229E7811213240964216D1002D88
:1028900008D15E780722370011211740BE420DD1C2
:1028A000002C00D19A78084C21002B310A700722A5
:1028B000002D00D15A7800212A342270FFF726FB20
:1028C0000020F8BD0722EEE774BC0000030070B5DD
:1028D0001C88080022001B3A1221E02A0BD85A88D3
:1028E000074D1300493BFF3B9BB2AB4203D800218D
:1028F000044B9C84DA84FFF709FB002070BDC046BE
:102900004841000074BC000070B50C000500FFF7E2
:1029100047FF0C21002809D12B780631012B05D85F
:10292000012201001340044A563213702000FFF7C1
:10293000EDFA002070BDC04674BC0000030013B562
:1029400040331B7802000C00002B0CD10D491E33C4
:10295000C85C002813D1013BFAD20C212000FFF7FC
:10296000E3FA002016BD0849002013000190093049
:102970000090203307381CF05FF80100EEE70349B0
:10298000F2E7C046A8BC00003A350618A7BC000014
:1029900002001E2313B50C000B49C85C002807D1A8
:1029A000013BFAD20C212000FFF7BEFA002016BD31
:1029B00000211300019109310091022003492033C5
:1029C0001CF03AF80100EEE7A8BC0000A7BC00002C
:1029D00073B508000021FFF7A7FA6A460123D371F7
:1029E0006B46154E941DD91D2200822033689847EE
:1029F000002801D00023237020236A46D371237856
:102A00000E4D002B09D069462A008020336807311B
:102A10009847002806D000232370002128001CF0CE
:102A200057F802E02378002BF7D028000022082175
:102A30001CF024F8002076BDDCBE0000A7BC00001E
:102A400010B50A0000210A2307481AF05FFE00248F
:102A5000FB22064BC2800381428083800470FBF717
:102A60000DFE200010BDC046011100009042000084
:102A700010B500210623074A07481AF047FE002434
:102A8000064B9A8C4280DB8C04708380FBF7F6FD4A
:102A9000200010BD232000000111000074BC0000C4
:102AA00070B50400A026A025012300210F4A10487C
:102AB0001AF02CFE0223E15EF6008B199BB22D0169
:102AC000AB4211D80023E25E93199BB2AB420BD804
:102AD000084B1C005A331A8000235834218003709D
:102AE000FBF7CCFD002070BD1223F8E74D2000005D
:102AF0000111000074BC000010B500210623094A32
:102B000009481AF003FE094B00241A0058321288B3
:102B10005A3382801B8804704380FBF7AFFD20008E
:102B200010BDC0464C2000000111000074BC000024
:102B300070B50E4A032300210D481AF0E7FD0D4D34
:102B400000262B0006702C330400012118786B69D5
:102B500098472B0060702D33012118786B699847D6
:102B6000A0702000FBF78AFD300070BD4B200000F4
:102B700001110000ECBE000070B500210F4A0923CE
:102B80000F481AF0C3FD0F4D04002B689847030A45
:102B9000A370030C6070E370000E2B6820719847DF
:102BA0000025030A6071A371030C000E20722570CA
:102BB0002000E371FBF762FD280070BD18200000C3
:102BC000011100006CBD000010B50A0000210223B5
:102BD00005481AF09BFD0024044B04701B784370D9
:102BE000FBF74CFD200010BD01110000D5BE000018
:102BF00010B50A000021022306481AF087FD0024C0
:102C0000054B04701B7802334370FBF737FD20003F
:102C100010BDC04601110000D4BE000010B5002157
:102C2000074A062307481AF071FD022300240371A6
:102C3000F93343800470FBF721FD200010BDC0462E
:102C4000022000000111000070B507230A000948A6
:102C500000211AF05BFD00250400074906220C3113
:102C600001301CF0A9F920002570FBF707FD2800B2
:102C700070BDC0460111000074BC00000A0010B510
:102C80000A23002107481AF041FD0923064A03815F
:102C9000C2804380C632013302800371FBF7EEFC31
:102CA000002010BD011100003A0900000278F8B5BB
:102CB00053425A41124B0E001B680500591E8B41AE
:102CC0000024442743219A4204D00E4B1B78A34290
:102CD00005D800213000FFF719F90020F8BD3A00AF
:102CE000094B62431B689B1840331B78092B03D1A7
:102CF000200029780BF04CF80134E4B2E5E7C04637
:102D000074BC0000D4BE000068BC000070B5124B5B
:102D1000040056331B780D00002B04D0FFF740FD54
:102D20000C23002812D1E2791223012A0ED821782F
:102D300001290BD8601CFFF7ABF9084B1A78022366
:102D4000824203D9E1790CF0E9F800232800190048
:102D5000FFF7DCF8002070BD74BC0000D5BE000099
:102D600070B509230021084A08481AF0CFFC002555
:102D700004000822064901301CF01EF920002570CD
:102D8000FBF77CFC280070BD1C2000000111000036
:102D9000EC37061813B5010000240122034B103153
:102DA00000941BF000FD200016BDC046B12D061892
:102DB000002270B5112306000D00072011001AF043
:102DC000A5FC040029000670102201301CF0F4F864
:102DD00020001AF0BFFC70BD70B50A000500072383
:102DE00000210E481AF092FC122303702978040087
:102DF00001290AD8681CFFF74BF9094B1B7883425D
:102E000008D9611C0CF014F920702000FBF736FC87
:102E1000002070BD02232370F7E7C04601110000B7
:102E2000D5BE000070B50A000500072300210E483A
:102E30001AF06CFC122303702978040001290AD8C7
:102E4000681CFFF725F9094B1B78834208D9611CE0
:102E50000CF0B8F820702000FBF710FC002070BDCB
:102E600002232370F7E7C04601110000D5BE000021
:102E700003880C485A1E92B210B50C0012218242EF
:102E80000AD8094A002154321380FA2292000620FF
:102E90005A431AF057FB00212000FFF737F80020B3
:102EA00010BDC046B7A1000074BC000010B5104BA7
:102EB0000C0056331B78002B04D0FFF771FC0C215B
:102EC00000280CD10B4B1A680B4B197827234B4366
:102ED000FF219B189A4207D10BF0C8FC002120006B
:102EE000FFF714F8002010BD91712732F2E7C046B9
:102EF00074BC000070BC0000D5BE000070B5067840
:102F00000D0004001221012E1DD8114B56331B78E1
:102F1000002B04D0FFF744FC0C21002813D1310012
:102F2000601CFFF7B5F80B4B04001B7802218342AD
:102F300009D90BF0D1FF2720074B44431B68002120
:102F40001C19FF23A3712800FEF7E0FF002070BDCD
:102F500074BC0000D5BE000070BC0000F0B5047861
:102F600089B007000691012C06D912210698FEF7B8
:102F7000CDFF002009B0F0BD3D4B56331B78002B30
:102F80002FD100263B4B1B7805933B4B1D687B1CC8
:102F900040350493059BB34229DC002321000498AB
:102FA0000593FFF74FF8334B00251B78013383421D
:102FB00007DB0A22314B50431B681818457AAD07CE
:102FC000ED0F39780498FFF763F82D4B1A78824299
:102FD000CBD800242B4B1B680633A24217D1072104
:102FE000C4E7FFF7DDFB0C210028BFD1C9E72B7830
:102FF000092B07D129000622049820391BF0CEFFA7
:10300000002802D001364435C4E70123C6E7273340
:10301000190027390978FF2902D00134E4B2DCE72E
:103020003E00FB1D0793059B173601933B7820005C
:1030300004990093FA1D330002950BF099FE2720A6
:10304000104B444318683B780419A3710622791C7D
:1030500020001BF0B1FF10223100E01D1BF0ACFF7F
:1030600020000799102217301BF0A6FF00217DE7F2
:1030700074BC0000D4BE000068BC00006CBC000042
:10308000D5BE000070BC0000F8B50D000400FFF7CD
:103090005FFB0C21002805D021788B1EDBB2FC2BB6
:1030A00005D812212800FEF731FF0020F8BD661C6C
:1030B0003000FEF7C7FF0D4B1B7801338342F0DB76
:1030C0000A22022142430A4B1B689A18537A0B4288
:1030D000E7D05F0707D58B435372310022780BF09E
:1030E000D1F90021DEE70321F5E7C046D4BE000098
:1030F0006CBC0000F8B50D00FFF72AFB0C2100287E
:103100001BD000240A26012731000F4B61431B68A6
:1031100059184B7A3B4208D05A0713D502229343E1
:1031200020000A7A4B720BF0ADF9084B01341B7882
:10313000E4B20133A342E7DA00212800FEF7E6FEFD
:103140000020F8BD0322EAE76CBC0000D4BE0000FA
:10315000F7B505000191FFF7FBFA0C26002805D012
:1031600029788B1EDBB2FC2B06D812263100019881
:10317000FEF7CCFE0020FEBD6F1C3800FEF762FF9C
:103180001B4E040033780133834227DB0A22194B9C
:1031900042431B689B185B7A9B07E6D40A23634370
:1031A000144E0093009A33683900981806221BF0D9
:1031B00003FF3368009A29789B180322587A197202
:1031C00002435A723800FEF7BDFE0026B042CDD150
:1031D000390020002A780BF0B3F8C7E7FEF71AFF92
:1031E00033780400023307269842D7D1BEE7C046A1
:1031F000D4BE00006CBC0000F8B5164E05000436C5
:10320000F37F0F000C24002B04D104791F339C435F
:1032100006D0122438002100FEF778FE0020F8BD09
:103220001AF0D8FE0138C0B22428F2D829000522AD
:1032300009481BF0C1FEFA222100920005201AF075
:1032400081F9012321000420F3771AF015FAFFF722
:10325000DDF8DFE774BC00008CBC0000F7B50500AA
:1032600000240191384B1B78A3420DD83749280020
:103270001AF0A3FE1221041E61D12900062234484F
:103280001BF09AFE21005AE0442363430093314B24
:10329000009A1B689B181A0040321278911E01296F
:1032A0002DD92C4F009A3B689B181A004032127897
:1032B000072A0CD11E68002E04D1274B21000320C1
:1032C0001B689847022233789343012B32D0009A2F
:1032D0003B689B181A0040321278052A0CD11E68F0
:1032E000002E04D11C4B210003201B6898470222AA
:1032F00073789343012B1DD00134E4B2B2E7174930
:10330000EE3109780129CCD11E68002E04D1124B70
:10331000210003201B689847102372881A4204D1A9
:103320000D4B210003201B6898470222F37A934338
:10333000012BB6D1044B0C211B78A34296D90198DE
:10334000FEF7E4FD0020FEBDD4BE00005AE40718DD
:1033500086BC000068BC000024BF000074BC0000F4
:1033600070B509230021094A09481AF0CFF9040071
:10337000FFF72EF8002501000822601C1BF01CFE40
:1033800020002570FBF77AF9280070BD03200000AB
:103390000111000070B50C00074D08220100280043
:1033A0001BF00AFE28000421FBF7EEF920000021A3
:1033B000FEF7ACFD002070BD78BC000010B50C001D
:1033C0000221FBF7E1F901002000FEF79FFD00203C
:1033D00010BD10B50C000321FBF7D6F90100200049
:1033E000FEF794FD002010BD10B50C008188008808
:1033F000FDF74EF801002000FEF788FD002010BD0B
:10340000007810B50C001221032804D801231840BD
:10341000FDF748F801002000FEF778FD002010BD00
:1034200070B50A000923002108481AF06FF9082234
:103430000400002101301BF0DBFD0025602320008B
:1034400025706371FBF71AF9280070BD01110000A7
:1034500070B541230A000B4800211AF057F9040007
:103460002A22094901301BF0A7FD20000025162261
:1034700000212B301BF0BCFD20002570FBF7FEF86F
:10348000280070BD011100001035061810B50C00A1
:1034900019F076FC20000021FEF738FD002010BD59
:1034A00010B503000C4A00780C001278002803D0F5
:1034B0005988914203D29888FDF716F809E0002256
:1034C000064B110001201B68984712212000FEF7CF
:1034D0001DFD002010BDC046D4BE000024BF00006A
:1034E000002270B50C001900084BD000C518185AFE
:1034F000884205D16B68181E01D02000984770BD26
:103500000132522AF1D10020F9E7C0465C35061895
:103510002000800000C000000000E400000028221D
:10352000000000000000040000F7FFFF7F00000023
:1035300030F0FFFFFFFFFFFFFF17BD1A3CCDA6B81D
:10354000995899B740EB7B60FF4A503F10D2E3B3E4
:10355000C974385FC5A3D4F6493F00003920000084
:10356000A545061836200000414006183720000007
:10357000C1420618030C00008D340618011000002B
:103580007D2C061809100000492C061802100000B6
:10359000513406180310000021340618010C0000F5
:1035A000D3330618630C0000BD330618310C00003D
:1035B00001340618330C0000E9330618350C0000FE
:1035C000A1340618012000009533061802200000DF
:1035D0001D2C06180320000061330618052000008A
:1035E0005D32061806200000093B0618082000007E
:1035F000713C06180A200000C13D06180920000091
:10360000193D061807200000BD3A061835200000B5
:1036100039420618382000004D4406183A200000B0
:103620009D4E06183B200000D54E06183C20000099
:10363000394F06183D200000A94F06183E20000013
:10364000A54A06183F200000954B061840200000B0
:10365000BD4C06180B200000D55706180C200000A2
:10366000F958061841200000D55A061842200000DB
:10367000E55B061844200000515E06184520000056
:103680004D5F061846200000256006184720000000
:103690008160061848200000596106184920000082
:1036A000096206184A2000008162061859200000AD
:1036B000C16206180D200000197306180E200000C4
:1036C000D578061843200000A575061814200000C0
:1036D000F93106180F200000F12B06181020000009
:1036E000F530061811200000513106181220000094
:1036F000893006182A200000C92B06182720000050
:103700005D2F061828200000FD2E06182920000035
:10371000AD2E06182E200000712E06182D20000058
:10372000092906182B200000252E06182C20000041
:10373000D92D061817200000952D06181820000016
:10374000792B06181C200000612D06184B20000064
:10375000312B06184C200000F92A06184D200000D5
:10376000A12A06184E2000000D2D06185F2000002B
:10377000AD2C061823200000712A06182420000012
:10378000CD2806182F200000412A06181D20000011
:10379000417D06181E2000007D7D061833200000A4
:1037A000C57D0618342000000D7E06184F2000004D
:1037B0005D7E061850200000E97E06181F200000DC
:1037C000717F061825200000D12906182620000048
:1037D000912906185E2000003D29061831200000BE
:1037E0004D2806185D200000E5270618FFFFFFFFA3
:1037F000FF03000070B5438805000C00DB0605D50B
:103800000022104B110001201B6898476B88012093
:1038100019000140034203D10A4B0A001B68984774
:10382000698806224B0700D59218D31C490600D49C
:10383000931C0133DBB21B190020FE2B00DD12307C
:1038400070BDC04624BF000070B544251D4C4543E3
:1038500023685B59002B05D000221B4B110001206F
:103860001B6898470022236811005E1910001A2374
:1038700019F04CFFFF2330602068002645192C68A2
:1038800031002370EC3B638080231B01A38008235D
:1038900020002381013BE6806381267306220D30E0
:1038A0001BF0A6FB8023FF33A3827F3BE382074B01
:1038B000E6742683DA682A631B8AAB8601234035C7
:1038C0002B7070BD68BC000024BF000074BC0000F9
:1038D00070B54425354C454323685B19188C002886
:1038E00005D0FEF7B1FA002223685B191A6223683B
:1038F0005B19988C002805D0FEF7A6FA00222368F1
:103900005B195A6223685B19188D002805D0FEF7F1
:103910009BFA002223685B199A6223685B19988DD1
:10392000002805D0FEF790FA002223685B19DA62BE
:1039300023685859002805D00C3819F034FF0023AB
:103940002268535123681A495A193D32127809786E
:10395000914225D9442656439B19188C002805D03E
:10396000FEF772FA002223689B191A6223689B19DA
:10397000988C002805D0FEF767FA002223689B196F
:103980005A6223689859002805D00C3819F00BFFAB
:1039900000232268935123689E1900234036337018
:1039A00000232068451940352B7070BD68BC0000AD
:1039B000D4BE000070B504000E00FE2805D9002218
:1039C0000F4B110001201B689847F0212000FAF7E7
:1039D00037FC0130C5B2FF20012D04D80F348442DA
:1039E00000D90400E0B2013EF1B21AF011FD2D3011
:1039F000FF3068430349FAF723FC0130C0B270BDC1
:103A000024BF00007102000070B514000F4B0600C7
:103A10001A78E3B20D009A4205D80D4B220003201C
:103A20001B68E1B29847002E0FD14420E4B2444312
:103A3000084B18680019030040331B78022B04D18F
:103A40000622290036301BF0B7FA70BDD4BE000044
:103A500024BF000068BC0000F7B50D0000240190F1
:103A6000134F3B78A34202D8FF242000FEBD44221E
:103A7000104B62431B689B181A0040321278511E8B
:103A8000022902D90134E4B2EAE71E68002E04D10B
:103A9000094B210003201B6898473378019A934211
:103AA000F0D13B78A342DFD9002DDED02E60DCE7D9
:103AB000D4BE000068BC000024BF00000A0010B59E
:103AC000022300210D4819F021FE0D4B04001A00BD
:103AD0002D3210785B69012198470A4B6070EE33F4
:103AE0001A78022A06D10C2320002370FAF7C6FDAB
:103AF000002010BD01221A700023F5E7011100001B
:103B0000ECBE000074BC0000F0B5544B87B00391CC
:103B1000EE331A780400022A00D19DE00122002130
:103B2000FF201A70FFF798FF04AAD51D0300287024
:103B3000FF2813D04A4A106844225343C01840302B
:103B40000378012B00D087E02379042B0FD91221B1
:103B50000398FEF7DBF9002007B0F0BD2800FEF760
:103B6000F7FC011EF4D12878FFF76EFEECE7012B7D
:103B700009D0218862889142E9D81F29E7D980219C
:103B8000C9018A42E3D8627B013A062ADFD8A27BC8
:103B9000032ADCD86279032AD9D8A279012AD6D897
:103BA000012B03D000220292042B07D12D49E01DE6
:103BB0001AF003FA0028CAD10123029344230021FA
:103BC0002A78274F53433A68D3181D68264A28009D
:103BD000019323790D30D35C6B80638869721A0A74
:103BE0002A72EB712388A971AB80637B0622AB72CA
:103BF0006679E11DEE72A3792B731BF0DDF90023CA
:103C0000029A9A4200D1A37BEB74032E1DD8300098
:103C1000019B124930331BF0A3F902120212019AE0
:103C2000C86810630A8A9A80442204ABD9793B6839
:103C30004A439B180122403300211A7088E706226C
:103C4000180012311BF0B8F9EEE7084B00223100E2
:103C500003201B689847E7E70C2179E774BC000054
:103C600068BC00005AE40718B056061824BF0000CC
:103C7000F0B5274B85B00191EE331A7805000C2181
:103C8000022A38D001221A70037806311F2B32D84D
:103C90000021FF20FFF7E0FE02ABDE1D3070FF28A1
:103CA00007D13000FEF754FC011E24D13078FFF715
:103CB000CBFD44223378174F53433A68D3181B8CFB
:103CC0000093FEF7A9F80721041E14D021002A78DA
:103CD000681C19F03BF8442230783B68424329784D
:103CE0009B181C84598440331B78022B09D1220075
:103CF0000EF0C8F800210198FEF708F9002005B081
