:020000041806DC
:1030A80010B5024B01221B68984710BD9CBA00005E
:1030B80010B5024B00221B68984710BD9CBA00004F
:1030C80010B5024B01221B68984710BD9CBA00003E
:1030D80010B5024B00221B68984710BD9CBA00002F
:1030E800F8B500262A4D04002E701AF0F7FE294B79
:1030F80030001A68284B92B219681AF071FB274BF6
:1031080001201A68264B92B219681AF069FB254B00
:1031180002201A68244B92B219681AF061FB2878C9
:103128001BF076FC214930001BF0A2FE287800F045
:103138006FFB287803F0A8FB287819F0C3FEB44287
:1031480009D01B4B9C4202D01A4B9C4208D11A4B07
:1031580020001B68984701232B7019F0F9FDF8BD72
:1031680001231022310015481AF0B8FA144B070051
:103178009C4205D101230370380000F087FAEAE782
:10318800104B3200210003201B689847F4E7C04623
:1031980014BF0000BCBE000098BE0000C0BE000006
:1031A8009CBE0000C4BE0000A0BE0000DCCD071815
:1031B800A5A5A5A5C3C3C3C3CCBE000003110000C9
:1031C800F2F2F2F218BF0000F7B510226E4B1C683D
:1031D80014420BD001216D4B49421A606C4B1960A7
:1031E8006C490B6893430B6002F0ECFC20221442FC
:1031F8000BD00121654B49421A60654B59606549FE
:103208000B6893430B6002F00DFC0122144239D085
:103218005E4B5F4D1A606B8B134233D0684619F0D2
:1032280017FE01225B4E009F3368380093433360DA
:103238000199009700F0F6F92B685A1C0AD0BB4296
:1032480008D1012310225B422B603368934333601B
:1032580002F0B8FC6B685A1C0AD0BB4208D10123A3
:1032680020225B426B6033689343336002F0DAFBE1
:10327800AB685A1C03D0BB4201D119F0CFFD012025
:1032880019F02CFF80252D022C4203D002F03EFEBF
:103298003E4B1D6002231C4247D03C4E0820336041
:1032A8003D4B1F6819F01AFF012019F0F7FD3B4B41
:1032B8009F4205D900223A4B110001201B6898470C
:1032C800384B1B78002B52D0374B38001B68984777
:1032D800070038003549FFF7EBFE8023344A1B0608
:1032E800034313609C23314D9B004543ED1BED18B0
:1032F800ADB2AB0A05D00022294B110001201B6892
:10330800984708212B4B2C4A1D6013680B43136008
:10331800204A2A4913680B400121136013688B4324
:103328000B43136031601BF0FDFD40231C4203D0AA
:10333800164A136019F072FD04252C420BD0134B6A
:1033480010201D6019F0CAFE124A01201368AB4311
:1033580013601AF04DFD0822144207D00B4B0D499B
:103368001A600B6893430B6002F0D4FBF7BD3D2550
:10337800074AF9001369FB186F435B18180ADBB298
:1033880013613F18A5E7C0461C00005020000050FC
:1033980030BF000018000050380000507F841E0025
:1033A80018BF000028BF000020BF00007102000005
:1033B800440000504000005030000050FFFFFF8FD5
:1033C80070B580256D020B4A1368002B11D02B4273
:1033D800FAD0094B094C1D60094B032019681A687B
:1033E8002368120C9847002201201100236898478F
:1033F800E9E770BD100000501400005018BF00002D
:103408006000005010B5034B5B8BDB0701D41AF04A
:1034180039FD10BD30BF000073B5424D6B8BDB0723
:1034280066D56B8B002B69D19C24684619F010FD7A
:10343800019BA400E41A2B8B287F9C42A441009B8B
:103448006442E418431E9841C823374E4042DB00CB
:1034580006400234F618AB68240124095A1C07D028
:10346800324A1268002A4BD09047864200DD060097
:103478002B685A1C0DD080211A1B1201090512094C
:103488008A4203D9E31A1B011B095A42964200DDFE
:1034980016006A68531C0DD08021131B1B010905F7
:1034A8001B098B4203D9A41A2401240963429E42B2
:1034B80000DD1E000A2E21DD1D4B1B78002B2BD0B2
:1034C8001C4B30001B68984704006B690133A3420A
:1034D80014D81BF02FFD00280ED0174B013C0820F4
:1034E8001C6019F0DBFC154B9B6A9847022006E02C
:1034F8001AF032FD002894D1002000E0012076BDAA
:103508008022181B0001120500099042ADD9E01A6B
:10351800000100094042A8E76421B002FFF7C0FD9E
:10352800441ED2E730BF0000C07600002CBF000068
:1035380028BF000024BF000034000050E0BE000097
:103548000120704701207047F7B507000E001500ED
:10355800054C019320001AF097FF019BA760E660D5
:1035680025616361F7BDC04658BF0000F0B59C27D0
:10357800002689B0019002910392BF001C4D019B67
:10358800AA6901369818029BEA690001991800098E
:10359800B94204D9174B013000010009C918A861C4
:1035A800E96119F0B7FD04A819F018FF039B049C02
:1035B800114A002B14D0AB69E31A1B011B09934273
:1035C8000BD804A9082206A801341BF0F1FC20013D
:1035D80000090799069019F09DFD300009B0F0BD6B
:1035E800A869241A240124099442C7D9F5E7C046DA
:1035F80058BF000090FDFFFFFEFFFF0773B56C4644
:103608000E000500200019F0E9FE054B28001833CC
:1036180006CC06C331000022FFF7A8FF73BDC046E1
:1036280058BF000013B50C4B00905A69002A0ED001
:103638009B690400C11A802009010909000581421B
:1036480006D9181B0001054B00095843904713BDC4
:1036580003484843FAE7C04658BF00008FFDFFFF04
:1036680071020000083810B50100040006481AF07D
:1036780073FF002807D0A088FF22E1881AF06CF8B1
:1036880020001AF053F910BD58BF0000F8B5060025
:103698000C3883881D4A934205D01D4A934223D093
:1036A80000F02AFB1FE0037A3F2B1FD85A1ED2B224
:1036B8001849D4080F5D07240125224017412A0024
:1036C800BA432F420BD03E2B09D13278013AD3B2FC
:1036D800DA0889180A7C23401A4195432A00002AEF
:1036E800DED01AF040F8F8BD3E23DFE7582BD7D8D4
:1036F800403BDBB2074AD90852180721127A0B401F
:103708001A41130001229A43E9E7C0460311000059
:1037180004110000A4BA000070B50C4B04001A781C
:10372800824204D80A4B01001B6803209847094DC0
:103738002B681B5D002B05D00022054B11000120D2
:103748001B68984701222B681A5570BDC8BE000037
:1037580018BF0000A0BA000070B50C4B04001A781E
:10376800824204D80A4B01001B6803209847094D80
:103778002B68195D002904D1054B0A0001201B683C
:10378800984700222B681A5570BDC046C8BE000075
:1037980018BF0000A0BA0000030010B504292AD8F9
:1037A80008001BF0D9FB0303091023000A000320BB
:1037B800144B1B68984717E0082219001248801814
:1037C8001BF0F6FB10E0104C1900200008221BF03B
:1037D800EFFB002320000D4C0278195D01330A43EA
:1037E80002700130082BF7D1002010BD06480822CE
:1037F80019001030E4E70022024B110001201B6879
:10380800D8E7C04618BF0000A4BA00007C380618E4
:1038180070B50223050004009D4315D11822290024
:103828000B481BF0E1FB0B4B29001A780A4B186870
:103838001BF0DAFB03210948FFF7AEFF0421084813
:10384800FFF7AAFF01F022FE200000F0D9FA70BDB0
:10385800A4BA0000C8BE0000A0BA00006C38061860
:1038680074380618FFFFFFFFFF9F00201F000000AD
:103878000000000000600400F8074002F0B5A44B07
:1038880087B01C68002C09D101F042FE002800D145
:103898008BE09F4B9C68002C00D186E09C4B1C6100
:1038A800A1889C4BC818052800D927E11BF068FBA4
:1038B800060058007F00D00026011101944B5B7D63
:1038C8005BB2042B02DC924A013353750E26E31DCA
:1038D800039302AB2589F61863892800338001F029
:1038E800E3F9021E1FD03388002B1CD08768002FF5
:1038F80017D0200092780C307F2A0DD801003200B2
:1039080000971AF06BFB0100002910D02A00824BA7
:103918001B68032098470AE001003200B847C1B28B
:10392800F2E70421F2E7002D15D0012323730E23BB
:10393800E3713288764B0332D2B222725B7D191C56
:103948005BB2002B00DA0021A5722D0A6172E572C4
:103958000420023222E0704B290032881B68D8E725
:103968006B4B5B7D5BB2042B02DC694A01335375F8
:103978000F22E31D0393E2710B3A23892272227B03
:103988006272634A527D111C52B2002A00DA002189
:1039980004200622E3721B0AA172237300235C49E8
:1039A8000B755E4B03991BF08FFA07B0F0BD23002F
:1039B8000E270A33039302AB2189FF186389CEB21D
:1039C8003B80FF2904D9544B002203201B689847E9
:1039D800300001F09BF9021E33D04568002D19D044
:1039E800200092783B880C30002A0ED100953A00CE
:1039F80001001AF0F3FA0500002D0ED0464B3200F4
:103A0800290003201B68984708E03A000100A847EE
:103A1800C5B2F1E76389002B11D1002562893B8883
:103A28009A4205D23C4B3200290003201B68984774
:103A38000E2302AAA6729B181B88E37206E00425CF
:103A4800DCE7354B310003201B689847E27A7FE7B3
:103A580023000A330393267B638902AAD3813000AB
:103A680001F066F9021EECD04568002D2FD0200029
:103A7800927802ABDB890C30002A21D102A90E32E0
:103A88000095521801001AF0A9FA0500002D05D07A
:103A9800214B3200290003201B6898470E2702ABF0
:103AA800FF18398863898B4204D21B4B32000320EC
:103AB8001B689847002DC9D13E23A3723B88BCE7F9
:103AC8000E2202A952180100A847C5B2DEE7042554
:103AD800DEE7216912480B1F0918A28903911149D1
:103AE8005A541149120A5A54E2891049100A5A5470
:103AF8000F490432585492B202204FE7064B002275
:103B080003201B68984700200200039046E7C04640
:103B1800C0BA0000FFEEFFFF18BF00003D3B0618CB
:103B2800FC3F00500040005001400050024000504F
:103B3800034000502E4B70B52E4C1B6825699847E2
:103B48002D4BAA8806009A4212D12B7B022B04D057
:103B58000222190091430D2924D1217E002905D183
:103B6800264B0A0001201B68984701E0013921769D
:103B780001232375A988224B99421BD8053B9942FA
:103B88002FD92369002B03D020001AF0DBFC050095
:103B9800280019F0E8FD1B4B30001B689847FFF719
:103BA8006DFE70BD152BE3D1E17D0029D8D0013918
:103BB800E175DDE7144B994213D1200008301AF063
:103BC800C1FC124B1A78AB891B051B0D9A4203DD09
:103BD8002B6998B202F0FAFF0023236101F082FCFE
:103BE800CFE7064B002203201B689847C9E7C04669
:103BF800B4BE0000C0BA00000411000018BF0000E5
:103C080005110000B8BE000006110000C8BE000083
:103C1800F0B587B006000D001700039300285AD0AE
:103C28008468002C4FD083787F2B29D80E2202A9D4
:103C38005218002100940800294B1AF0CFFA04000A
:103C4800002C38D1B36802221800264902931BF0D1
:103C5800A1F90E2302AA9B181E88002819D12A0050
:103C680021003300204819F039FD022204000770B2
:103C7800023003991BF09CF92000FFF707FD20E0B4
:103C880000230E2202A9521818001900A047C4B236
:103C9800D6E70322154902981BF07CF933002A0065
:103CA800210000281AD1104819F018FD0622040036
:103CB80007700130DDE70E4B2A00210003201B6846
:103CC800984707B0F0BD0A0001232100094819F000
:103CD80005FD0770D1E70A00012301000248F6E755
:103CE800FFFF0000AABB061801110000B54D061819
:103CF80018BF0000021100003B4B70B505001B689F
:103D08009847AB88394A0600394C934205D12000C0
:103D1800290008301AF0CEFB36E0364A934207D124
:103D28002B7B0F2B3AD006D8022B27D00D2B0AD08D
:103D380029002000EEE7152BFAD1E37D032B20D8CC
:103D48000133E375F4E7EB89E97D5B069B0F0129F5
:103D58000DD1627E022A39D0002A02D1227E032A9E
:103D680034D8013B5A425341DAB2002331E0A27EF3
:103D7800F0E7012300222CE0A2762DE0237E032B1E
:103D88001DD9280019F0EFFC1B4B30001B68984721
:103D9800237D012B01D1FFF771FD70BD174AA97B67
:103DA8001068EB7C4218415C022918D0002902D126
:103DB800217E032913D8013B59424B411370237EBE
:103DC80001332376B4E700231370DAE7012BD0D14F
:103DD80002220129D0D16276002BF0D0D1E7012B45
:103DE800F1D10223F0E7C046B4BE0000061100007E
:103DF800C0BA000004110000B8BE0000BCBA000040
:103E080070B5051E0C4C14D101001C2220001BF0BB
:103E1800EBF80A4B29001A78094B18681BF0E4F8EC
:103E280020001AF031FB200008301AF02DFB012386
:103E380023750523637570BDC0BA0000C8BE0000B5
:103E4800BCBA000010B500F02FFFFF23002800D0F7
:103E5800C378D8B210BD0000F0B589B00500039151
:103E6800029200F021FF5C4C0700637D7F2B05D98F
:103E780000225A4B110001201B689847584B9D425D
:103E880002D0637D013B6375002F00D1A1E0637D03
:103E98007F2B00D96CE00F21BB78049319400829C7
:103EA80045D808001BF058F8052605264343434328
:103EB8004A0000260E2204ABD21800239C46138029
:103EC800039B634541D07C68644554D040216B46D0
:103ED80004989B89084005900498084230D10094C2
:103EE800029905981AF07AF90400012C2ED10023C2
:103EF800122217E0039B012B12D9029B1A785B78D8
:103F08001B021343374A12789A4209DD364A12686F
:103F1800D25C002A04D001221B0213439EB2C9E7D7
:103F28000222029B29003800FFF772FE04E02B4BA7
:103F38002A0003201B68984709B0F0BD0226B9E79C
:103F480060460299A047C4B2CFE7039C04AB310096
:103F58002A00DB89254819F0C1FB0600002C05D092
:103F68001E4B2A00210003201B689847002E04D10D
:103F780000230722D6E70424E8E704ABDB89002BFB
:103F880012D07B689C46002B0ED06B46BA789B8972
:103F9800520615D4624600920E2204A95218300027
:103FA80002991AF01BF90400002C05D00B4B2A00CB
:103FB800210003201B689847300019F0B3FBBBE7CA
:103FC8000E2204A96446521830000299A047C4B2D0
:103FD800EAE73B000122A5E7C0BA000018BF0000CD
:103FE800350C0000C8BE0000A0BA00000511000092
:103FF80070B5134A0C00117802050300120D002059
:1040080091420BDD9B0B834208D11800FB2C05D88D
:1040180002F022FE011E02D00A4BC01870BD012317
:104028001A22094819F05AFB01250570FFF72EFBE3
:104038002900200019F0EEFB044B9D75EEE7C04601
:10404800C8BE00000040005003110000C0BA0000C4
:10405800F8B5174B06009C7D0D001700002C06D004
:10406800100019F063FC0023114A9375F8BD114B39
:1040780001051B78090D8B4212DD01230902194342
:1040880022000D4889B2073319F028FB06804580C5
:10409800002D01D0094BFC18446019F043FBE5E7FB
:1040A800074B0200290003201B689847DEE7C0463B
:1040B800C0BA0000C8BE00000611000000C0FFAF73
:1040C80018BF0000F8B50D0006A90E7801680700B2
:1040D80088190124824211D31C1E09D02A68286835
:1040E8009419A342A4413200644264001AF060FFAC
:1040F8003B689B193B602B689E192E602000F8BD19
:10410800F0B589B00500029103920691002940D0CC
:10411800CE18012317880790C719009332003B0077
:1041280007A906A8FFF7CEFF0400031E26D0079BA9
:104138005D1B039B1D80200009B0F0BD0133059372
:104148005B000493EB18079302233200009307A93E
:104158003B0006A8FFF7B6FF002818D1049A07A964
:104168000232AB18079302233200009306A83B00E3
:10417800FFF7A8FF00280AD16B461B7D0299079A12
:104188000978521B9942D2D9062AD7D9CFE7040019
:10419800CDE70623039A029C1380CCE7F0B599B0CB
:1041A8001D0002903A23081E0592079160D0029BD9
:1041B800002B61D001271488029B1C190126029B41
:1041C800451908932A002300009608A907A8FFF7B5
:1041D80079FF002849D1029B2A009B190893009671
:1041E800230008A907A8FFF76DFF00283DD1029B0F
:1041F8002A00023308930096230008A907A8FFF7AE
:1042080061FF002831D1029B2A000333089306235B
:1042180008A9009307A82300FFF754FF002824D11A
:10422800029B2A00093308930096230008A907A8CF
:10423800FFF748FF002818D1029B597A03900029FC
:1042480021D1039B032B04D9434B0A0001201B688F
:1042580098477F4200233C400227029E0493183669
:10426800039B049A934216DC0020089B029A9B1A2F
:10427800059A138019B0F0BD4E2404ABE41809ABBD
:10428800029F02939AE7314203D0039B0133DBB2CA
:1042980003934908D3E733000E3B08932A00230011
:1042A800009708A907A8FFF70DFF0028DDD1330004
:1042B8000C3B08932A002300009708A907A8FFF7DA
:1042C80001FF0028D1D133000A3B08932A002300BC
:1042D800009708A907A8FFF7F5FE0028C5D1330005
:1042E800083B08932A002300009708A907A8FFF7AE
:1042F800E9FE0028B9D1B31F08932A0023000097CC
:1043080008A907A8FFF7DEFE0028AED1331F0893DF
:104318002A002300009708A907A8FFF7D3FE002862
:10432800A3D1B31E08932A002300009708A907A861
:10433800FFF7C8FE002898D123002A00009708A993
:1043480007A80896FFF7BEFE1036002800D08CE7B5
:10435800049B0133049383E718BF0000F0B58DB0C8
:1043680007001D000800102305920691002941D07E
:10437800002F43D00123148804933C1901264519C2
:1043880023002A00009607A906A80797FFF79AFEB8
:1043980000282DD1BB1907932A002300009607A9EE
:1043A80006A8FFF78FFE002822D1BB1C07932A001E
:1043B8002300009607A906A8FFF784FE002817D156
:1043C800B978039000291DD1039B022B04D9254BF2
:1043D8000A0001201B689847049B5E4234403E0057
:1043E800002308360493049A039B934212DC0020AE
:1043F800079BDB1B059A13800DB0F0BD04970CAC2E
:1044080008AFBBE7314203D0039B0133DBB2039310
:104418004908D7E7331F079301232A00009307A908
:10442800230006A8FFF74EFE0028E1D1B31E07932C
:1044380002232A00009307A9230006A8FFF742FEDB
:104448000028D5D102232A00009307A9230006A833
:104458000796FFF737FE06360028C9D1049B0133BB
:10446800C0E7C04618BF0000F0B58BB007000C1EAF
:104478000492069166D0002832D015880122451989
:1044880005920126E3180393039A2B00009607A9C7
:1044980006A80797FFF716FE041E1AD1BB19079343
:1044A800039A2B00009607A906A8FFF70BFE041E27
:1044B8000FD17B783F2B05D9244B020001001B68E4
:1044C80030009847059B5E42354000267B78B34212
:1044D8000AD8079BD81B049B188020000BB0F0BD9E
:1044E80005900AAD08AFCCE7B31C0593FB180793FA
:1044F8000123039A009307A92B0006A8FFF7E2FD02
:1045080000281DD1B21C53000222FB180793009209
:104518002B00039A07A906A8FFF7D4FD00280FD19E
:10452800B31DFB1807930123039A009307A92B00D7
:1045380006A8FFF7C7FD002802D10136F6B2C5E785
:104548000400C6E70823049A1380C6E718BF0000D2
:10455800F0B5B7B007001D000492002900D1C7E0EC
:10456800002800D19FE01688861901234D19009371
:104578002A00330008A907A808970797FFF7A2FDA4
:10458800041E00D088E0BB1C079302232A00009376
:1045980008A9330007A8FFF795FD041E00D07BE0AB
:1045A8003B1D079301232A00009308A9330007A89D
:1045B800FFF788FD041E6FD17B1D079301232A0096
:1045C800009308A9330007A8FFF77CFD041E63D1F8
:1045D800BB1D079302232A00009308A9330007A8EC
:1045E800FFF770FD041E57D13B00083307930123E2
:1045F8002A00009308A9330007A8FFF763FD041EEB
:104608004AD13B000933079301232A00009308A9E4
:10461800330007A8FFF756FD041E3DD13B000A33BF
:10462800079301232A00009308A9330007A8FFF77E
:1046380049FD041E30D13B000B33079301232A00A8
:10464800009308A9330007A8FFF73CFD041E23D1F7
:104658003B000C33079302232A00009308A9330078
:1046680007A8FFF72FFD041E16D1BB7B2A00059370
:104678003B000E330793012308A9009307A83300D2
:10468800FFF720FD041E07D13B001033029303906F
:10469800059B039A934209DC089BD81B049B18804E
:1046A800200037B0F0BD36AE09AF5EE7029B2A00A6
:1046B800013B0793012308A9009307A83300FFF7DC
:1046C80001FD002812D10123029A009307923300BA
:1046D8002A0008A907A8FFF7F5FC029B02330293FA
:1046E800002803D1039B01330393D1E70400D3E7E8
:1046F800049B0C001980D3E7F0B5B7B007001D0084
:104708000492002900D1BAE0002800D193E016886D
:10471800861901234D1900932A00330008A907A818
:1047280008970797FFF7CEFC041E00D07CE0BB1C5F
:10473800079302232A00009308A9330007A8FFF76C
:10474800C1FC041E70D13B1D079301232A0000936E
:1047580008A9330007A8FFF7B5FC041E64D1BB1DE8
:10476800079302232A00009308A9330007A8FFF73C
:10477800A9FC041E58D13B000833079301232A00E3
:10478800009308A9330007A8FFF79CFC041E4BD12F
:104798003B000933079301232A00009308A933003B
:1047A80007A8FFF78FFC041E3ED13B000A3307938E
:1047B80001232A00009308A9330007A8FFF782FC09
:1047C800041E31D13B000B33079301232A000093C9
:1047D80008A9330007A8FFF775FC041E24D13B0085
:1047E8000C33079302232A00009308A9330007A873
:1047F800FFF768FC041E17D1BB7B2A0005933B001A
:104808000E330793012308A9009307A83300FFF785
:1048180059FC041E08D13B00103302930023039374
:10482800039A059B934209DC089BD81B049B1880BC
:10483800200037B0F0BD36AE09AF6AE7029B2A0008
:10484800013B0793012308A9009307A83300FFF74A
:1048580039FC002811D10123029A009307923300F2
:104868002A0008A907A8FFF72DFC029B0233029330
:10487800002802D1039B0133D1E70400D4E7049B4D
:104888000C001980D4E7F0B5C9B00C001D000390E6
:104898000592002900D1E0E000282CD0168886195E
:1048A800039B65190793069301232A00009307A920
:1048B800330006A8FFF706FC041E14D1039B2A0048
:1048C80001330693012307A9009306A83300FFF7D5
:1048D800F9FB041E07D1039F04901937039B049A20
:1048E8005B7893420BDC079B039A981A059B188008
:1048F800200049B0F0BD08AB48AE0393D0E73B00B9
:10490800173B069302232A00009307A9330006A841
:10491800FFF7D8FB002800D09DE03B00153B06932D
:1049280001232A00009307A9330006A8FFF7CAFB52
:10493800002800D08FE03A000623143A069200932C
:104948002A00330007A906A8FFF7BCFB002800D0FF
:1049580081E03A0001230E3A069200932A003300C0
:1049680007A906A8FFF7AEFB002874D13A00012377
:104978000D3A069200932A00330007A906A8FFF70C
:10498800A1FB002867D13A0001230C3A0692009354
:104998002A00330007A906A8FFF794FB00285AD17C
:1049A8003A0001230B3A069200932A00330007A924
:1049B80006A8FFF787FB00284DD13A0001230A3AE1
:1049C800069200932A00330007A906A8FFF77AFB8E
:1049D800002840D13A00093A069202223300009298
:1049E80007A92A0006A8FFF76DFB002833D1FB1F93
:1049F800069301232A00009307A9330006A8FFF7AE
:104A080061FB002827D1BB1F069306232A000093C9
:104A180007A9330006A8FFF755FB00281BD101237F
:104A28002A00009307A9330006A80697FFF74AFB58
:104A3800002810D13B787A1C069200932A00330094
:104A480007A906A8FFF73EFBFE37002803D1049B01
:104A58000133049342E7040045E7059B198047E7C3
:104A6800F0B58FB006000C001D000592002900D19A
:104A780086E0002829D01788C719012365190093F3
:104A88002A003B0008A907A808960796FFF71AFB13
:104A9800041E13D1731C079301232A00009308A94D
:104AA8003B0007A8FFF70EFB041E07D133001133A4
:104AB800039304907378049A93420BDC089B9E1B23
:104AC800059B1E8020000FB0F0BD262704ABFF1801
:104AD80009AED2E7039B2A000F3B0793012308A9DD
:104AE800009307A83B00FFF7EDFA002846D1012301
:104AF800039A00930E3A07923B002A0008A907A8D8
:104B0800FFF7E0FA002839D1039A3B000D3A0792E3
:104B1800062208A9009207A82A00FFF7D3FA00285E
:104B28002CD103992A00CB1F0793012308A90093CE
:104B380007A83B00FFF7C6FA00281FD106220399F1
:104B480000928B1F07932A003B0008A907A8FFF7CC
:104B5800B9FA002812D10123039A009307923B0067
:104B68002A0008A907A8FFF7ADFA039B103303939F
:104B7800002803D1049B013304939BE704009DE7BD
:104B8800059B19809EE7F0B595B00C001D000390B9
:104B98000592002900D184E000282CD016888619B7
:104BA800039B65190893079301232A00009308A91A
:104BB800330007A8FFF786FA041E14D1039B2A00C6
:104BC80001330793012308A9009307A83300FFF7CF
:104BD80079FA041E07D1039F04900A37039B049AAD
:104BE8005B7893420DDC089B039A981A059B188002
:104BF800200015B0F0BD3F2604ABF61809AB0393AF
:104C0800CEE73B00083B079301232A00009308A93D
:104C1800330007A8FFF756FA002840D1FB1F079377
:104C280001232A00009308A9330007A8FFF74AFACE
:104C3800002834D10622BB1F0793009233002A00B4
:104C480008A907A8FFF73EFA002828D101232A005F
:104C5800009308A9330007A80797FFF733FA00283D
:104C68001DD13B787A1C079200932A00330008A9CB
:104C780007A8FFF727FA002811D13A0001232032AC
:104C8800079200932A00330008A907A8FFF71AFA29
:104C98002937002803D1049B013304939EE70400BD
:104CA800A1E7059B1980A3E78205920D830A012BD2
:104CB80019D0032B19D0042B19D0052B19D0082B88
:104CC80019D000203F2B0DD13A3B0F49DB00CB1800
:104CD80058685988002805D00C234B43C3189842BC
:104CE8000BD1002070470023EFE70123EDE70223F3
:104CF800EBE70323E9E70423E7E701888905890D42
:104D08009142EFD00C30EAE7584E0618002310B550
:104D180002000648D9000C5C944201D1401810BD2D
:104D28000133092BF6D10020F9E7C0468C53061849
:104D38000200002310B50549DC0060180C5D9442A0
:104D480003D00133182BF7D1002010BDD453061817
:104D58004242484242364248484842004242484855
:104D680048480042424838420042483842480042D7
:104D78004248424236423642364248484842004259
:104D880042363442004242333242004242484242B2
:104D98000042424842423642424842004248424269
:104DA80042426E4200424242484200424242364239
:104DB800004242484848424236424248420042483D
:104DC80048484C004248334233424242423642420B
:104DD800424242424242004238420048484242422D
:104DE8003642424200423331420042484842420081
:104DF80048484242364242484848484848004248A3
:104E0800354200483842483136420042364231364F
:104E1800423136420048424242480042484848002F
:104E280042424848004242423642484842004236DE
:104E38004242004242424242426E42004842484890
:104E4800420036344242004242484248480000008C
:104E5800010002002C53061803000900884E0618AA
:104E680004000400F44E0618050001004453061817
:104E780008005600244F06183F0005005053061836
:104E8800010C0008E04D0618F04D0618030C000050
:104E980000000000F04D06182D0C1103A14D061856
:104EA800A04D0618310C0001F04D0618F04D0618FB
:104EB800330C0007514E0618F04D0618350C401EED
:104EC80009410618F04D06187B0C1102ABBB0618F9
:104ED800294E06187C0C11042A4E0618AABB06187F
:104EE800630C0008E04D0618F04D0618011000008C
:104EF800000000004F4E06180210000000000000DD
:104F0800884D06180310000000000000DF4D061849
:104F18000910000000000000B54D06183920422A8B
:104F280071440618F04D061836200219CC4D0618A3
:104F38004C4E0618372002FF3E4E0618F04D061854
:104F480001200208E04D0618F04D06180220020064
:104F580000000000A04D0618032002000000000019
:104F6800DF4D0618052002061A4E0618F04D0618E1
:104F780007200200000000004C4E06180620020F11
:104F8800E34D0618F04D061808200220ED4D0618CE
:104F9800F04D061809200220ED4D0618F04D0618B0
:104FA8000A200201F04D0618F04D06180B200207E2
:104FB800F24D0618F04D06180C2002024C4E061849
:104FC800F04D06180D200219F84D061800000000D3
:104FD8000E20020000000000F04D06180F2002000D
:104FE800000000004C4E06181020020000000000CF
:104FF800F04D061811200207B54D0618F04D061899
:1050080012200207B54D0618F04D06181320130E8E
:10501800C2BB06180000000014200205084E06183E
:10502800F04D061815201302ABBB0618064E0618DD
:1050380016201302ABBB0618000000001720022040
:10504800164E0618184E0618182002000000000018
:10505800DF4D06181920131C0B4E0618000000001F
:105068001A2013120E4E0618AABB06181B2013028C
:10507800ABBB0618AABB06181C20020000000000E3
:10508800DF4D06181D200201F04D0618F04D0618D8
:105098001E200203E94D0618F04D06181F200200D5
:1050A80000000000AABB06182020130EC2BB061879
:1050B800AABB061821201303A14D0618AABB06187F
:1050C80022201306244E0618AABB06182320020025
:1050D80000000000294E0618242002042A4E061853
:1050E800F04D061825200200000000000000000016
:1050F80026200240894D06180000000027200227BC
:10510800134E0618F04D061828200207B54D06184C
:10511800F04D06182920020000000000F04D061886
:105128002A200200000000004C4E06182B2002071F
:10513800B54D0618B54D06182C200207B54D0618B2
:10514800B54D06182D200201F04D0618F04D061831
:105158002E200202ABBB0618F04D06182F200200C5
:1051680000000000654D061830201302ABBB06187E
:10517800944D061831200203E94D0618F04D061823
:10518800322013071D4E06180000000033200203CA
:10519800E94D0618F04D061834200204DA4D0618B9
:1051A800F04D061835200207B54D0618F04D0618C3
:1051B800382002FF3E4E0618F04D06183A2002002D
:1051C80000000000AABB06183B20020000000000F7
:1051D8004C4E06183C200201F04D0618F04D0618FA
:1051E8003D20020000000000F04D06183E20020796
:1051F800234E0618F04D06183F2002FF3F4E0618B2
:10520800F04D0618402002024C4E0618F04D0618C4
:105218004120420D65430618F04D0618422002064B
:10522800284E0618F04D06184320423AA5410618A4
:10523800000000004420020E2D4E06180000000059
:105248004520020000000000F04D0618462002022A
:10525800ABBB0618F04D061847200208364E061854
:10526800F04D061848200208364E0618F04D06186C
:105278004920020000000000F04D06184A200200F4
:10528800000000004C4E06184B20020000000000F1
:10529800E94D06184C20020000000000294E0618AF
:1052A8004D2002042A4E0618F04D06184E2002081A
:1052B800364E0618F04D06184F2002523B4E06187F
:1052C800F04D0618502002523B4E0618F04D0618B5
:1052D80059200203A14D0618F04D06185A2013064E
:1052E800244E0618AABB06185B201305324E061872
:1052F800AABB06185C200308444E0618AABB061869
:105308005D200206314E0618F04D06185E20024157
:105318004A4E0618000000005F200201F04D0618F2
:10532800F04D061806041103A14D061800000000F0
:105338001D041102ABBB0618000000000514110281
:10534800ABBB0618A04D061811FC0801F04D061855
:10535800F04D061812FC080000000000C64D0618A3
:1053680013FC13042A4E0618AABB061814FC1305CE
:10537800324E0618AABB061815FC1306244E06184A
:10538800AABB061805010000A04D06180801000078
:10539800A04D06180C010000504E06181000000021
:1053A800F04D061811010000ABBB061813020000EF
:1053B800294E06181A000000F04D061830010000AA
:1053C800AABB061857010000ABBB06180100000075
:1053D800584D0618020001008F4B06180301000003
:1053E800644D0618040100006B4D06180501000005
:1053F800714D061806010000A1BB06180701000040
:10540800A1BB06180A000000774D06180800000026
:10541800874D0618090000008D4D06180B00010085
:10542800694A06180C010000934D06180D0001008A
:105438008F4806180E000000994D06180F0000004E
:10544800A44D061810000000AABB061811000000A1
:10545800F04D061812000000AD4D061813000000AC
:10546800B34D061814010000A04D061815000100E0
:1054780001470618160101005945061817010000D2
:105488001F4E061818000000B94D061810B508225E
:105498000021024819F0A8FD10BDC046DCBA000082
:1054A8001123FA2802D9024B5980002318007047AB
:1054B800DCBA0000084B094A1B681278D2189A42D5
:1054C80003D1074B1870002005E00133591E0978F5
:1054D8000029F4D00C207047A0BA0000C8BE000014
:1054E800DCBA0000034B1A78002A02D0DA880132AD
:1054F800DA807047DCBA0000044A0021D38883426E
:1055080001D91B1A99B2D1807047C046DCBA000095
:10551800064A1378002B07D05388D288002093427C
:1055280001D99B1A98B270470148FCE7DCBA000021
:10553800FFFF0000F7B50F004A68802143680600A6
:105548008068D51A0090B8682D012D0909050190C9
:105558008D4227D99B1A1B011B095D42002B03D1E1
:10556800019B009A93421FD8019B3F690524D819D3
:10557800009BC01A002834DD1B490138FDF790FD57
:10558800E8422ED4009B3069013C1818019BC01AD0
:10559800C01B002825DC1549FDF782FD4519EC0FD5
:1055A80003341EE0002DDBD00024009B36699E19D1
:1055B800019BF61AA64214DD0C49701EFDF770FD1A
:1055C8004019A0420DDC38690134301A002808DD82
:1055D80006490138FDF764FD45196C1E2C43E40F9C
:1055E80001342000FEBDC046710200008FFDFFFFA0
:1055F80037B5684617F02CFC019B9C2019009131A7
:10560800FF31009A8000814204D9E13B1900013240
:10561800120112090F4B1B68002B12D00E485C6850
:1056280000780E4D201A000100099C68831A1B019E
:105638001B09AB420BD8904201D1A14204D22100F0
:1056480002E001201900404217F0D8FD37BD1000D4
:10565800FAE7C046E4BA0000DCBE0000FEFFFF0720
:10566800394BF0B5DD68002385B003900093002D19
:1056780007D1354BDB68002B01D017F069FE05B068
:10568800F0BDA98A2B6802938B0B5AD03F233F2089
:105698000A111340024254D00024AA7D3038084031
:1056A8001218AA75294A013B1B0111400B439BB2F2
:1056B800AB82039E9B0B0193002E0DD1224E2A0034
:1056C800300000990C3018F07FFF2A0021003000CC
:1056D80018F0D2FF009D34E031002800FFF72AFFC0
:1056E8000028EBD0052802D134003668E4E7B36817
:1056F800326917499F183800FDF7DAFC73681449B6
:10570800C4183800FDF7E4FCAB688B428941494274
:1057180064182401019B24096C60012BE4D98023BF
:10572800E8681B05071B3F013F099F4203D9271A59
:105738003F013F097F4206492869FDF7B9FCB84295
:10574800D2DD0095029D92E7E4BA00000FFCFFFF4E
:1057580071020000013810B5012809D8054C200055
:1057680018F092FE20000C3018F08EFE0023A36083
:1057780010BDC046E4BA0000F0B5854B01690400CD
:10578800CA18844B87B09A4204D9834B002203205D
:105798001B6898479C23A2689B009A4205D900225F
:1057A8007D4B110001201B6898477C4B1B6898476C
:1057B800039004A817F04CFB794B049A1B780599C1
:1057C8009B18FA2292001B018918793A1B09FF3AA3
:1057D800914216D86568734EEA1A1201A08A120916
:1057E800B24204D89D421AD1A2688A4217D2820BCB
:1057F8000DD101256C4B03981B689847280007B00A
:10580800F0BD634801331B0109181B09E0E7A268D2
:1058180063608A4203D201331B011B096360800B5A
:10582800012812D98020E16863680005CA1A1201AC
:105838001509854203D95B1A1B011B095D425B49A7
:105848002069FDF735FCA842D3DC594B9D68002D33
:1058580000D11D680026019600960296002D6FD093
:10586800A54205D100224C4B110001201B68984726
:1058780029002000FFF75EFE002861D0052813D01C
:10588800A17DAA7D914230D9494B9B68AB422CD06F
:10589800009B002B00D10095022398430136C0B22B
:1058A800F6B2019501284BD0A38A9B0B012B13D983
:1058B8008021E26863680905D71A3F013F098F42D2
:1058C80003D99F1A3F013F097F4238492069FDF7F4
:1058D800EFFBB84200DD8CE7354B9A68AA424FD0FF
:1058E800002E00D102952D68B8E7A38A9B0B18D02B
:1058F800AB682A692D499F183800FDF7D9FB6B68FA
:105908002A49C6183800FDF7E3FBA3688B42894192
:1059180049427618360136096660002601960096D7
:10592800C2E7914200D864E7214B9B68AB4200D0A4
:105938005FE7C31EDBB2012B00D95AE70328B3D1B6
:10594800009B002B0BD01A4D019A2800029918F0E1
:1059580071FE2800019A00990C3018F0C1FD029BD5
:105968001348002B0ED02200190018F085FE0025E0
:10597800009BAB4200D13DE72000FFF771FE39E7FD
:105988001D686BE7210018F0CBFDFFF731FEEEE74D
:105998008FFDFFFF0F18060018BF0000B4BE0000FF
:1059A800DCBE0000FEFFFF07B8BE00007102000069
:1059B800E4BA0000F8B5184B07001B680C009847BC
:1059C8000500002F06D10024144B28001B689847B7
:1059D8002000F8BD124EB368BB4202D10024B46067
:1059E800F2E7002CEFD133689F4205D1300018F060
:1059F800A9FDFFF7FDFDE7E73900300018F0ACFD21
:105A08000028E0D1300039000C3018F0A5FD00283E
:105A1800D9D10224D8E7C046B4BE0000B8BE000001
:105A2800E4BA0000F0B5374E85B0346802A817F024
:105A38000FFA002C06D1F368002B5FD1FFF7D8FDD1
:105A480005B0F0BD0625039B626801932E4B029FAB
:105A58001B78ED1BD31A5A192C49120112098A42D4
:105A680008D806331B011B09BB4227D1A368019A3A
:105A7800934223D2300018F065FD010030000C304D
:105A880018F018FD3468002CD5D01F4B62681B78BD
:105A9800D31A5D191D4A2D012D09954208D80633E0
:105AA8001B011B09BB4209D1A368019A934205D285
:105AB8000022174B110001201B689847124B62689F
:105AC8001B781249D31AFA43D218120112098A42D2
:105AD80008D8013B1B011B09BB42ACD1A368019A42
:105AE8009342A8D8300018F02DFD8369B060002BD0
:105AF80000D098473468002CE0D19CE717F028FCC8
:105B08009CE7C046E4BA0000DCBE0000FEFFFF07C9
:105B180018BF000070B50F4E30000C3018F0CEFDE5
:105B2800C4B263B2002B00DC70BD30000C3018F03A
:105B380009FD051E05D1084B020001001B68012064
:105B480098472B6A002B01D028009847013CE4B203
:105B5800E7E7C046E4BA000018BF0000124B13B5CF
:105B68001C68002C1CD0684617F072F99C22019B17
:105B7800C8219200D21A0023490091425B41009A41
:105B880001339B181B0162681B09D21A07491201CD
:105B980012098A4200D96360606817F007FB13BDD9
:105BA80001204042F9E7C046F8BA0000FEFFFF07AF
:105BB800013810B5012802D8014818F065FC10BD5D
:105BC800F8BA000013B5684617F042F90E480468A1
:105BD800002C17D06268009B9B1A0C4A1B011B09FA
:105BE80093420DD818F0AEFCA168002902D020001D
:105BF8008847E8E7064B0A0001201B689847E2E758
:105C0800FFF7ACFF13BDC046F8BA0000FEFFFF0760
:105C180018BF00001E4BF7B51B6804009847050025
:105C2800684617F015F99C22019BFA219200D21AB6
:105C38000023490091425B41009A01339B181B01E4
:105C480062681B09D21A134E12011209B24200D916
:105C58006360002110480268002A09D1002911D088
:105C6800220018F009FD0D4B28001B689847F7BD66
:105C780053686768DB1B1B011B09B342EED911008F
:105C88001268E9E7210018F04BFCFFF767FFEAE725
:105C9800B4BE0000FEFFFF07F8BA0000B8BE00005F
:105CA80070B5144D04002B00FF335A78824204D09B
:105CB800114B01001B68032098472B00FF33D9784C
:105CC800002904D10C4B0A0001201B6898472401C5
:105CD8002B19197B002904D1074B0A0001201B68E6
:105CE800984729194B68002B03D002228968285944
:105CF800984770BD00BB000018BF000070B5144D78
:105D080004002B00FF335A78824204D0114B010063
:105D18001B68032098472B00FF33D978002904D14A
:105D28000C4B0A0001201B68984724012B19197B8A
:105D3800002904D1074B0A0001201B68984729193C
:105D48004B68002B03D0032289682859984770BDF7
:105D580000BB000018BF0000F8B5284C0500230060
:105D6800FF33D978002904D1254B0A0001201B688C
:105D780098472E01A1190B7B002B30D0214BEB1833
:105D88001B011B889B065B0F062B28D14B68002B39
:105D98001ED004228968A05998472300FF335A78F7
:105DA800AA4203D10F20013505405D70002322006F
:105DB800A619FF323373D378013BD370FF34E378ED
:105DC800012B13D10F22637801331340A370F8BD60
:105DD8000B4A1900176801201A00B847DDE70022AE
:105DE800074B110001201B689847E7E7002BEED10D
:105DF8008020800017F072F9E9E7C04600BB000078
:105E080018BF000000040005F8B52F4E0400330049
:105E1800FF335A78824204D02C4B01001B680320C0
:105E280098472B4BE3181B011D883300FF33D978A3
:105E3800AD066D0F002904D1244B0A0001201B6810
:105E480098472701F3191B7B002B05D11F4B220014
:105E5800290003201B689847EB1E022B05D9002256
:105E68001A4B110001201B689847F1194B68002B49
:105E780023D0043D6A4255418968F059EAB29847EF
:105E8800002332000F25F719FF323B73D37891783E
:105E9800013BDBB2D370A14206D001342C40220171
:105EA800B218127B002AF6D0FF367470002B03D18B
:105EB8008020800017F012F9F8BD044A190015680F
:105EC80001201A00A847DBE700BB000018BF00004C
:105ED80000040005013810B5012810D882220021DD
:105EE8000748520019F080F838241820054B064955
:105EF8001A88A24302431A8010338B42F8D110BD8E
:105F080000BB000000400050004100500C4B70B531
:105F18001C6825012D0F230702D52800FFF7EEFE88
:105F2800E30602D52800FFF7BBFE630702D5200F62
:105F3800FFF712FFA30702D52800FFF765FF70BD22
:105F480024000050F7B58D4F0F213B00FF339E789A
:105F58005A780400B01A08400190DB78002B07D06B
:105F6800B24205D1864B3200310003201B689847A6
:105F78000F23721E1A4013010092FB5862689A425E
:105F880005D100227E4B110001201B68984707218C
:105F98007C4BF5182D012A88D2080A40012A04D022
:105FA8002B88DB080B40022B07D13B00FF335978C5
:105FB800734B320003201B689847019B0D2B14D9A3
:105FC8000F22B31E13406F4A022094469B181B01F0
:105FD8001988009BC90863441B011A880723D20843
:105FE8001A401940664B1B689847012063683201C4
:105FF800BB50BF182269BA60226838737A609C2740
:106008009AB21B011B0D6A80AB80A368BF00BB421C
:1060180004D900225A4B11001B689847A368FF1A3D
:10602800BFB2BB0A05D00022554B110001201B68E6
:1060380098478023E068EF801B02984200D28AE0EC
:10604800514B1900C018FDF733F80700030405D5B4
:1060580000224B4B110001201B6898474B4807430F
:10606800BFB26F81A27D131C1F2A00D91F23617D37
:10607800DBB21A020B1C1F2900D91F23DBB2134302
:10608800AB81E37D424F1B0200933B4205D00022C7
:106098003B4B110001201B689847EB891F40009B70
:1060A8001F43EF81637E002B37D1227E7033534329
:1060B8005133FF339B082B81227D131C1F2A00D9E3
:1060C8001F230D27DBB2DB020093019BA07E9F42BA
:1060D800BF41217F2F4B7F420002BF02034007438D
:1060E80000293DD0E47E002B05D00022244B11006E
:1060F80001201B689847E401802322009A4305D0B9
:1061080000221F4B110001201B689847009B1F436A
:10611800274342243C43A4B22C800F2332009A43E5
:1061280005D00022164B110001201B6898478023D8
:106138000F2180201B061E43174B80001E600F4B4B
:10614800FF339A7801320A409A70DA780132DA70AD
:1061580016F0A4FEF7BD0130400880B2688181E7DF
:10616800002B04D0064B0A0001201B689847009BAF
:106178003B4302271F43BFB22F80CEE700BB00007E
:1061880018BF000000040005710200000080FFFF36
:10619800FFE0FFFFFFFEFFFF00010050F0B593B0E6
:1061A8001C0002900E910492002809D1002A75D192
:1061B8000022B74B110001201B68984701236BE0B0
:1061C800002CF5D063680393A3890D9300238025E1
:1061D80010A80B9316F03CFE109B2D051D402B00BC
:1061E8005A1E9341DBB20193039B002B05D1A84BA8
:1061F800039A012011001B6898470022A54B1A60DA
:10620800A54B1B78934258D1A34B019A1A70029B55
:10621800012B6AD123680593059B002BCED0039BE5
:10622800002BCBD00B9B0193029B012B01D1A368C0
:1062380001939A4B1E68002337000A930993039B26
:10624800013B0F93002F00D1C0E0019B059A9342B8
:106258001BD2029B002B4BD10E9B002B48D03B69D5
:106268007D680693002D51D0069B002B4ED0BB8A2B
:106278000D9A93424AD0059B2C009D4200D91C00E0
:10628800069B039A9B18A34234D90A9B002B02D081
:10629800804B099A1A6003230293B6E0049B9B681B
:1062A80003930E9B002B02D0049BDB680393049B93
:1062B8001B8A0D93049BDB7C89E7002DA4D18026E3
:1062C800764B76051D68002D9ED06F68AB68390047
:1062D800FB1830000593FCF7FBFE059B581A3900A4
:1062E800FCF7F6FEA9602D68EDE7049B5B6992E771
:1062F800FB68B5E721000598FCF7EAFE002905D1FF
:1063080021002800FCF7E4FE002902D03F6801992B
:1063180032E02100B868FCF7DBFE069B0D005B1835
:106328000C932100013B01980893FCF7D1FE8C46A1
:106338000F9B0691634407938D4200D9B0E0089BF8
:106348008B4207D2079B9D4218D8089B079A934215
:1063580000D298E0029B012B32D021000C98FCF768
:10636800B7FE019B8B4224D201230B9A0B40002AD3
:1063780021D0002B22D03700019163E7069B9D4274
:1063880003D1089B079A9342E4D9089B9C4206D8FC
:1063980018002100FCF79CFE069B9942DAD2079B65
:1063A8009C42B3D821001800FCF792FEA942ADD355
:1063B800D0E70919D5E73700002BDDD00131DAE73E
:1063C80001230997059937000A93D5E70A9B002B03
:1063D80002D0304B099A1A60019B059A934200D368
:1063E80059E7029B002B4CD1049B019A5F699A6183
:1063F8001B8A06937B1E9B180593002E08D1390033
:106408000598FCF765FE049BD961029813B0F0BDAE
:10641800B38A069A934217D07568BD4200D93D00E9
:10642800002D05D11A4B2A00290001201B68984726
:1064380029003800FCF74CFE002905D129007068B6
:10644800FCF746FE002901D03668D6E72900B06877
:10645800FCF73EFE0C00019BA34210D2039A9B1846
:106468009C4205D200220A4B110001201B68984764
:10647800039BE41A059BA342E6D90594E4E7641953
:10648800E9E7002308E7069B9D4200D27DE761E724
:1064980018BF000004BC000010BC000008BC0000CD
:1064A800079B9D4200D855E76BE7C046013810B5F9
:1064B800012805D80022034B03481A7017F0E4FF9F
:1064C80010BDC04610BC000008BC00001FB5C16864
:1064D8000400002904D1184B0A0001201B689847C2
:1064E8006A46636801200093E3680193A38A938155
:1064F8000022A368110002936B46FFF74FFE0328A2
:1065080009D10E4B1B68002B05D0A1699A69002997
:1065180006D1002A0BD12100094817F0CBFF1FBD77
:10652800002A03D0A17D9A7D914200D32300988A46
:106538009B699847EFE7C04618BF000004BC0000FD
:1065480008BC000010B50100014818F005F810BD9E
:1065580008BC0000F7B5036846680400466101936B
:106568009E4216D92B4B01271A6800237F42002A26
:1065780022D1002B2CD1A57C002D48D02900300039
:10658800FCF796FD4543019BAB4202D8AE4200D3CF
:1065980065610023220001211800FFF7FFFD002894
:1065A80009D0A368E268934205D2002322001900AB
:1065B8001800FFF7F3FDFEBD908A218A884205D0B6
:1065C80051680133DBB28F4200D90F001268CEE761
:1065D800BE4206D339003000FCF76AFD7843050057
:1065E800D1E7012500966D4238000099FCF770FD4F
:1065F8000023994201D1009D0133009A023A00928A
:106608000099019A8A42BED8002BEDD0BBE701253C
:106618006D42BBE708BC0000002210B50300110062
:106628000120FFF7BBFD10BDF7B52B4F2B4DBB89E4
:10663800BE68AB8001235B422B60294B0193002E7F
:1066480015D1019A274B5343AA889A4200D91A00B8
:10665800AA807A68531C09D02B68591C05D09B1A4C
:1066680021491B011B098B4200D92A60F7BD002371
:1066780080221206DA40164202D10133202BF7D1CC
:106688001F22D31A0093194B009A1B78934205DCFA
:106698000022174B110001201B689847009BDA0065
:1066A800144B1B689B181C68002C0FD098880D4948
:1066B800FCF7FEFC241AA4B2022C01D9023CA4B2B5
:1066C800019BA34200D923009BB201930123009AA6
:1066D80093409E43B3E7C04618BC000028BC0000A6
:1066E800FFFF000071020000FEFFFF07C8BE0000A8
:1066F80018BF000014BC000037B50138012822D8A3
:10670800114C10220021200018F06EFC0F4B0021C4
:106718001A780F4BD200186818F066FC01230D4D4B
:106728005B4263602B606B46D91D022322000B700D
:10673800094B17201B680C329847002801D0074BDB
:10674800A381A389AB8037BD18BC0000C8BE000078
:1067580014BC000028BC0000D0BE0000E4570000B4
:106768000122824010B503490B7813430B70FFF7E1
:106778005BFF10BD18BC00000122824010B5034920
:106788000B7893430B70FFF74FFF10BD18BC000048
:106798000300012070B505009D40084A14782C4379
:1067A8001470022B03D15160FFF73EFF70BD002229
:1067B800034B11001B689847F6E7C04618BC000059
:1067C80018BF00000300012010B504009C400B4ACC
:1067D8001178A1431170022B0AD1033B5360FFF7D4
:1067E80023FF074B1B68013301D110F0DDFA10BD00
:1067F8000022044B11001B689847F0E718BC000002
:1068080028BC000018BF0000033810B501280ED8B6
:106818000A48CC0000680019838001238B4002607D
:10682800074A91680B439360FFF7FEFE10BD0022F4
:10683800044B110001201B689847F5E714BC0000C1
:1068480018BC000018BF0000033810B501280DD887
:1068580000200A4BCA001B68D05001238B40084A0D
:10686800916899439160FFF7DFFE10BD0022054B48
:10687800110001201B689847F5E7C04614BC0000CA
:1068880018BC000018BF000010B5040000F00CF898
:10689800002C02D020000AF06FFC200004F09AF9C6
:1068A800200000F0FDFB10BD7021F0B5824D0C26D4
:1068B8002B780400181D414303209A1C5643543179
:1068C800FF313618814389197C4E81433778382641
:1068D8007E433618891930265E438143AB3136181A
:1068E80081438919764E8143891946265E4381433F
:1068F800361889191202121881438918272253431E
:1069080081431B18C91881436E4B69318143C918EB
:106918008023814309188143091885B081431B02EC
:10692800994204D9684B890A1B68073A9847002C92
:1069380005D0013C012C00D89AE005B0F0BD21003B
:106948002022624818F050FB5B4B702518785B4B8F
:1069580041001A7838235A43083B434303330193D1
:106968000C23071D84B20230434303269C467D4313
:106978005435FF35B444B54365440332B54355191E
:10698800B543019BAB35B5435D194D4BB543ED1888
:10699800B543ABB24E4D02932B68013903932323C1
:1069A8009C4609B24B1C57D170250C266F4381B207
:1069B800704354376D3DFF37AF4340193818A8432B
:1069C8001218AA43019BAB32AA439A18AA4392B25F
:1069D80015004048404B0068D318FB3D9BB244303B
:1069E800ADB20380013BFF3B9BB20838AB42F8D104
:1069F8004623334E634392190326601CB243033384
:106A08009B180500C2003548B34300689BB2801844
:106A1800ADB22A02013D9A182DB2828008386A1C4C
:106A2800F6D12720090203315B18032144438B4325
:106A380064181B198B432A4A693312688B43294906
:106A48005B1811009BB22C31043A0B80FE3B0839CD
:106A58009BB28A42F9D170E766468DB26E43029BBB
:106A6800C9009E19039B013D59188E8029B299E7E8
:106A7800164C2B7816492000082209685B0017F08D
:106A880007FD20001349092308220968083017F078
:106A9800FFFC20002B7811490822096802331030C6
:106AA80017F0F6FC20000E49062308220968183062
:106AB80017F0EEFC41E7C046C8BE0000C9BE0000A2
:106AC80003090000F705000018BF000040BC0000E3
:106AD80038BC00003CBC00000508000030BC0000C9
:106AE80034BC0000F6040000074B70B51B689847DB
:106AF8000500064817F026FD0400054B28001B6812
:106B08009847200070BDC046B4BE000040BC0000DD
:106B1800B8BE0000F8B5060070201E4B03241D788F
:106B280023212B1D58430C23AA1C53435430FF30F8
:106B38001B19A043C018184BA0431A783823534395
:106B48001B19C01830236B43A043AB301B19A0435B
:106B5800C018124BA043C018A043301AFCF7A8FA7B
:106B6800C7B26D00AF4205DB0D4B32003900200083
:106B78001B6898470B4B1B68984704000A4BF900A1
:106B88001F680A48791817F095FC094B20001B6804
:106B98009847F8BDC8BE0000C9BE00000309000040
:106BA80018BF0000B4BE000038BC000040BC0000A4
:106BB800B8BE0000044810B5083017F0C3FC002820
:106BC80000D0808810BDC04640BC000070B51C4B8A
:106BD8000C24197870230A1D534303228D1C6C431F
:106BE8005433FF33A41893431B19164C9343257849
:106BF80038246C43A4181B193024FF26614393439F
:106C0800AB33934389185B1805389343C01A304255
:106C180003D1040AE3B2082B00D9FEE70A4B34403B
:106C28001B6898470500094B0948E1001C680830B3
:106C3800611817F03FFC074B28001B68984770BD88
:106C4800C8BE0000C9BE0000B4BE00003CBC0000C5
:106C580040BC0000B8BE0000084B70B51B689847E0
:106C680005000748103017F06DFC0400054B28009C
:106C78001B689847201E00D0A08870BDB4BE0000D5
:106C880040BC0000B8BE000070B57024194B02006B
:106C98001B780320191D4C430C219D1C6943543457
:106CA800FF34091884436418134984430D78382144
:106CB800694309186418302159438443AB340918CF
:106CC800844364180D498443641846215943844316
:106CD800091864188443141B240AE4B20133A3423C
:106CE80003DA074B21001B689847064BE0001C6835
:106CF800201870BDC8BE0000C9BE0000030900000E
:106D080018BF000030BC000070B570241F4B020093
:106D18001B780320191D4C430C219D1C69435434D6
:106D2800FF34091884436418194984430D783821BD
:106D3800694309186418302159438443AB3409184E
:106D4800844364181349844364184621594384438F
:106D5800091864188443141B240AE4B20133A342BB
:106D680003DA0D4B21001B6898470C4B1B689847AA
:106D780005000B4B0B48E1001C681030611817F038
:106D880099FB094B28001B68984770BDC8BE0000D6
:106D9800C9BE00000309000018BF0000B4BE00000F
:106DA80030BC000040BC0000B8BE0000084B70B505
:106DB8001B68984705000748183017F0C3FB040004
:106DC800054B28001B689847201E00D0A08870BD7E
:106DD800B4BE000040BC0000B8BE000070B505009D
:106DE8007020274B03241A78111D48430C21931C4B
:106DF80059435430FF300919A04340182149A04392
:106E08000E78382171430919401830215143A043A5
:106E1800AB300919A04340181B49A043401846212C
:106E28005143A043091940181B021B19A043C0185D
:106E380027235A43A04312198018A0436930A0435E
:106E4800FE21281AFCF734F9C6B2C0B2052805D9C4
:106E58000E4B2A00310020001B6898470C4B1B681A
:106E6800984704000B4B0C48F1001E681830711845
:106E780017F020FB094B20001B68984770BDC046DF
:106E8800C8BE0000C9BE00000309000018BF00000A
:106E9800B4BE000034BC000040BC0000B8BE000016
:106EA80010B502000C0001230021034816F016FC5F
:106EB8000470FCF7EBFB10BD0111000010B50200D7
:106EC8000C0001230021034816F008FC0470FCF7AD
:106ED800DDFB10BD02110000F7B500240090019100
:106EE800124D2B78A3421BD94426114F66433B68A9
:106EF80099190B0040331B78092B02D00134E4B2F6
:106F0800EEE70098203117F045F80028F6D03B68E6
:106F1800019A9E190736F37F534001221342EDD19F
:106F28002878844280414042FEBDC046C8BE000069
:106F380060BC0000F0B5002485B001900291039276
:106F4800174D2B78A34225D94426164F66433B6834
:106F580099190B0040331B781A000E3A012A04D9FC
:106F6800112B02D00134E4B2EAE70198203117F07E
:106F780011F80028F6D03B68029A9E193300363380
:106F88001B78534001221342ECD12E363378039AF2
:106F98009342E7D1287884428041404205B0F0BD51
:106FA800C8BE000060BC000030B500200A240125DE
:106FB800074B1968074B1B780133220042438A1894
:106FC800527A2A4203D00130C0B28342F5DA30BD8A
:106FD80064BC0000C8BE0000F7B5050000240A26FE
:106FE800012701910D4B186833006343C018437A99
:106FF8003B4208D10A4B01341B78E4B20133A34267
:10700800F0DA2000FEBD037A019A9342F2D12900FA
:1070180016F0C0FF0028F4D1ECE7C04664BC0000BD
:10702800C8BE0000F7B505000024272601270191F6
:107038000C4B1B78A34213D90B4B186833006343DE
:10704800C0188379FF2B02D10134E4B2F0E7019A2A
:107058003A409342F8D1290016F09CFF0028F3D05B
:107068002000FEBDC9BE000068BC00000A4B1878AD
:107078000A4B1A6800230632984204D1C01A4342C8
:107088005841C0B270472732110027390978FF29C3
:10709800F4D10133DBB2EFE7C9BE000068BC0000E1
:1070A800F0B585B0012821D0022800D1BDE0002824
:1070B80002D1614916F0A6FD05B0F0BD2A005F4B6C
:1070C80062431B68D058002802D00C3816F04BFBDE
:1070D8000134E4B25A4B1B78A342EFD800210420B4
:1070E80016F0B2FA0021062016F0AEFA554CF4223A
:1070F8000021200017F078FF2722534B00211B782E
:1071080006265A43514B1B681800019317F06CFF71
:1071180044224B4D00212B785A43484B186817F0EE
:1071280063FF0A222B78002102335A43484B1F255C
:10713800186817F059FF2300E122543392001A808F
:10714800444B08226362444B44496385444817F022
:107158002FFF0122434B52421A60FF212577053247
:10716800414817F041FFA31CDD7702AB3F4D5E712C
:107178003F4B02A92A0001201B68053198470028C7
:1071880004D0320028003B4917F012FF20230125C4
:10719800374F02AA537102AB591D374A3B6880200A
:1071A800984702AB9E1D02A95D71320015203B680D
:1071B80005319847002801D133781D402300EF336B
:1071C8001D70012502ABDE1D5D71294B02A932003D
:1071D80019201B6805319847002801D133781D40D4
:1071E80023000126F0331D7002AB244D5E71204B45
:1071F80002A92A0016201B6805319847002800D0EC
:107208002E70114A114B117827224A43FF211B681F
:10721800D2189A420CD1FA225434238892000021C1
:1072280006205A4316F076F946E70024442551E72C
:1072380099712733EDE7C0465076061860BC000008
:10724800C8BE00006CBC0000C9BE000068BC0000DD
:1072580064BC00001B0048010707000044750618BD
:1072680070BC000084BC000089BC000078BC000031
:10727800D0BE000038E407189FBC000058BD0000CD
:10728800012310B5094C83402268002906D08020CC
:1072980013434001236015F001FE10BD9A4322609C
:1072A800FBD18020400115F019FFF6E76CBC000007
:1072B800F8B544241E4E4443336800211F190500C5
:1072C800FFF7DEFF0022336804371B1940331A70BA
:1072D8003800FFF737F933681819C31DD97F2030F4
:1072E800FFF77AFE134B1B78013383420EDB0A2229
:1072F800114B42431B689B185B7A9B0706D5336882
:107308001919CB1DDA7F203109F0ECFC306800191F
:10731800C31DD97F2030FFF785FE084B1B788342B9
:1073280002D900210AF054FA2800FCF715FAF8BD32
:1073380060BC0000C8BE000064BC0000C9BE0000FC
:107348000048704789BC0000054BC2089B180722FB
:107358001B79104003411800012318407047C046AC
:107368006CBC0000004870474C750618024B5A3335
:107378000020185E7047C0466CBC0000024B5833B2
:107388000020185E7047C0466CBC0000442343438D
:10739800024A1068C01804307047C04660BC00003C
:1073A800F7B509F027FC019009F05AFC0400002108
:1073B800012594340726464ACB10D3181A7E0E406E
:1073C80032412A4206D12A00B24016005A7FB243FF
:1073D8005A7711E03F4A1278002A0DD08A00019F9F
:1073E8008258BA1AC827120112097F01BA423AD242
:1073F8000022A2560132E6DB013101342529D9D118
:10740800354E300016F0D4FD01281AD8002301218A
:107418002F4F07251C002C40A4466546DA10BA18E1
:10742800147E2C410C4209D00C00AC40A4466546A1
:10743800547F2C435477012803D008000133252BAF
:10744800E7D1002430000AF04DFB2500234B1B78C0
:10745800A34214DC002D37D0FA22002104201201A7
:1074680016F058F8F7BD00272770FA27FF01BA422F
:10747800C2D92A00B24016005A7F3243A8E74423F3
:107488006343174F0193019A3B689B181A004032D7
:107498001278092A0BD10833DA7F002A07D1012391
:1074A80021021943022089B216F056F901253B68DA
:1074B800019A9B1840331B780C2B03D13100E0B2A2
:1074C8000DF02CFD0134C1E7014B0333DD77C9E72B
:1074D8006CBC00005CBD000089BC0000C8BE000098
:1074E80060BC0000F8B50023040044270E4A0F4989
:1074F800037023781678B34210D2380058430D68C9
:107508002818050040352D78002D0AD120222900A1
:10751800203017F069FD2378B34200D307252800EF
:10752800F8BD01332370E4E7C8BE000060BC00006A
:10753800014B18687047C04668BC00001F00000077
:1075480000000000FF79010F000000000020024B3E
:107558000433D8777047C0466CBC000070B522234E
:107568000D003E220021094816F0B8F8002609232C
:1075780004002900037046702022023017F018FD1D
:107588002000FCF783F8300070BDC04604110000ED
:10759800F8B53E220D00422300210F4816F09EF850
:1075A80020260823002704000370320029004770B2
:1075B800023017F0FDFC2000A9193200223017F024
:1075C800F7FC2000FCF762F8044B31005B68044AC2
:1075D800802098473800F8BD04110000D0BE000094
:1075E8009FBC000070B511230D00094A002109480D
:1075F80016F074F8691C040000251022013017F0F9
:10760800D7FC20002570FCF741F8280070BDC04663
:107618001720000001110000FA2210B5064B920055
:1076280054331B88062000215A4315F073FF09F0D4
:107638001BFB002010BDC0466CBC000010B5FFF756
:10764800AFFE002010BD00005C76061860BD00008B
:107658000100120007000000ED7506180400000084
:107668004576061805000000557506180600000046
:107678002176061808000000997506180900000010
:10768800657506180A0200006DAA061802020000B5
:10769800ED89061807020000518A06180802000042
:1076A800618F061803000000759406180102000097
:1076B800B194061806020000E5A1061803020000AE
:1076C800899A061804020000E59B061805020000C6
:1076D800B19F061809020000ADA6061805110000A2
:1076E800B5810618442130B5104B1A68104B1400A8
:1076F8001B78403459430023994201D1012030BD01
:10770800E05C851E012D05D8D058C07C00280BD11F
:107718004433F1E7072802D1D0584078F6E7052826
:10772800F6D1D0580078F1E70020E8E760BC000007
:10773800C8BE000030B50D4A0124117844220C4B14
:107748004A431B680B484033D218934201D10020AA
:1077580030BD197844331129F7D80500CD402900E8
:1077680025008D43F1D10120F2E7C046C8BE0000D4
:1077780060BC0000AC40020002001E2313B50C00E0
:107788000B49C85C002807D1013BFAD20C21200024
:10779800FFF794FB002016BD002113000191093169
:1077A800009102200349203317F034F90100EEE775
:1077B800A0BC00009FBC000073B508000021FFF7C3
:1077C8007DFB6A460123D3716B46154E941DD91D66
:1077D8002200822033689847002801D000232370B4
:1077E80020236A46D37123780E4D002B09D06946B1
:1077F8002A008020336807319847002806D00023E4
:1078080023700021280017F051F902E02378002B9B
:10781800F7D028000022082117F01EF9002076BDB5
:10782800D0BE00009FBC000010B50A0000210A234A
:10783800074815F053FF0024FB22064BC280038142
:10784800428083800470FBF721FF200010BDC046F2
:10785800011100009042000010B500210623074ADC
:10786800074815F03BFF0024064B9A8C4280DB8CBE
:1078780004708380FBF70AFF200010BD232000005E
:10788800011100006CBC000070B500210F4A0923EB
:107898000F4815F023FF0F4D04002B689847030A83
:1078A800A370030C6070E370000E2B68207198477A
:1078B8000025030A6071A371030C000E2072257065
:1078C8002000E371FBF7E2FE280070BD18200000DD
:1078D8000111000064BD000010B50A000021022358
:1078E800054815F0FBFE0024044B04701B78437018
:1078F800FBF7CCFE200010BD01110000C9BE00003E
:1079080010B50A0000210223064815F0E7FE0024FE
:10791800054B04701B7802334370FBF7B7FE200059
:1079280010BDC04601110000C8BE000010B50021FE
:10793800074A0623074815F0D1FE022300240371E5
:10794800F93343800470FBF7A1FE200010BDC04648
:10795800022000000111000070B507230A00094841
:10796800002115F0BBFE00250400074906220C3152
:10797800013017F01DFB20002570FBF787FE28005B
:1079880070BDC046011100006CBC00000A0010B5B3
:107998000A230021074815F0A1FE0923064A03819E
:1079A800C2804380C632013302800371FBF76EFE4A
:1079B800002010BD011100003A090000030070B555
:1079C8001C88080022001B3A1221E02A0BD85A888A
:1079D800074D1300493BFF3B9BB2AB4203D8002144
:1079E800044B9C84DA84FFF75BFA002070BDC04624
:1079F800484100006CBC000070B50C000500FFF7A2
:107A080099FE0C21002809D12B780631012B05D8C5
:107A1800012201001340044A563213702000FFF778
:107A28003FFA002070BDC0466CBC000070B5092349
:107A38000021084A084815F051FE002504000822D4
:107A48000649013017F0B4FA20002570FBF71EFE36
:107A5800280070BD1C20000001110000708306186A
:107A680013B5010000240122034B1031009416F0D5
:107A780088FE200016BDC046857A0618002270B51B
:107A8800112306000D000720110015F027FE040041
:107A9800290006701022013017F08AFA200015F02C
:107AA80041FE70BD70B50A000500072300210E488D
:107AB80015F014FE122303702978040001290AD84E
:107AC800681CFFF7AFFA094B1B78834208D9611C81
:107AD80009F0CAFE20702000FBF7D8FD002070BD19
:107AE80002232370F7E7C04601110000C9BE000059
:107AF80070B50A000500072300210E4815F0EEFDB9
:107B0800122303702978040001290AD8681CFFF79A
:107B180089FA094B1B78834208D9611C09F07CFE5D
:107B280020702000FBF7B2FD002070BD02232370F7
:107B3800F7E7C04601110000C9BE000003880C48E1
:107B48005A1E92B210B50C00122182420AD8094A74
:107B5800002154321380FA22920006205A4315F06D
:107B6800D9FC00212000FFF79BF9002010BDC0467A
:107B7800B7A100006CBC000010B5104B0C005633C8
:107B88001B78002B04D0FFF7D5FD0C2100280CD161
:107B98000B4B1A680B4B197827234B43FF219B1873
:107BA8009A4207D109F0BEFA00212000FFF778F9C0
:107BB800002010BD91712732F2E7C0466CBC00006E
:107BC80068BC0000C9BE000070B506780D0004004E
:107BD8001221012E1DD8114B56331B78002B04D0CF
:107BE800FFF7A8FD0C21002813D13100601CFFF716
:107BF80019FA0B4B04001B780221834209D909F0BA
:107C0800C9FD2720074B44431B6800211C19FF238B
:107C1800A3712800FFF744F9002070BD6CBC000078
:107C2800C9BE000068BC0000F0B5047889B0070040
:107C38000691012C06D912210698FFF731F9002088
:107C480009B0F0BD3D4B56331B78002B2FD10026D1
:107C58003B4B1B7805933B4B1D687B1C40350493BD
:107C6800059BB34229DC0023210004980593FFF704
:107C7800B3F9334B00251B780133834207DB0A2213
:107C8800314B50431B681818457AAD07ED0F39780A
:107C98000498FFF7C7F92D4B1A788242CBD80024F5
:107CA8002B4B1B680633A24217D10721C4E7FFF705
:107CB80041FD0C210028BFD1C9E72B78092B07D13A
:107CC800290006220498203917F064F9002802D008
:107CD80001364435C4E70123C6E72733190027399D
:107CE8000978FF2902D00134E4B2DCE73E00FB1D2D
:107CF8000793059B173601933B782000049900935E
:107D0800FA1D3300029509F091FC2720104B4443DB
:107D180018683B780419A3710622791C200017F013
:107D280047F910223100E01D17F042F920000799A9
:107D38001022173017F03CF900217DE76CBC0000D9
:107D4800C8BE000060BC000064BC0000C9BE0000E2
:107D580068BC0000F8B50D000400FFF7C3FC0C2157
:107D6800002805D021788B1EDBB2FC2B05D8122108
:107D78002800FFF795F80020F8BD661C3000FFF7D3
:107D88002BF90D4B1B7801338342F0DB0A220221C9
:107D980042430A4B1B689A18537A0B42E7D05F0795
:107DA80007D58B4353723100227809F029F8002156
:107DB800DEE70321F5E7C046C8BE000064BC00004A
:107DC800F8B50D00FFF78EFC0C2100281BD000240D
:107DD8000A26012731000F4B61431B6859184B7A5B
:107DE8003B4208D05A0713D50222934320000A7A4F
:107DF8004B7209F005F8084B01341B78E4B20133E3
:107E0800A342E7DA00212800FFF74AF80020F8BD6E
:107E18000322EAE764BC0000C8BE0000F7B505000D
:107E28000191FFF75FFC0C26002805D029788B1EEE
:107E3800DBB2FC2B06D8122631000198FFF730F888
:107E48000020FEBD6F1C3800FFF7C6F81B4E04006B
:107E580033780133834227DB0A22194B42431B68DC
:107E68009B185B7A9B07E6D40A236343144E00935E
:107E7800009A336839009818062217F099F8336881
:107E8800009A29789B180322587A197202435A7269
:107E98003800FFF721F80026B042CDD13900200084
:107EA8002A7808F01FFFC7E7FFF77EF83378040049
:107EB800023307269842D7D1BEE7C046C8BE0000A5
:107EC80064BC0000F8B5164E05000436F37F0F00B9
:107ED8000C24002B04D104791F339C4306D01224B0
:107EE80038002100FEF7DCFF0020F8BD16F060F82E
:107EF8000138C0B22428F2D829000522094817F011
:107F080057F8FA2221009200052015F003FB0123FF
:107F180021000420F37715F097FBFFF741FADFE71C
:107F28006CBC000084BC0000F7B50500002401917A
:107F3800384B1B78A3420DD83749280016F02AF889
:107F48001221041E61D129000622344817F030F8A6
:107F580021005AE0442363430093314B009A1B6885
:107F68009B181A0040321278911E01292DD92C4FE6
:107F7800009A3B689B181A0040321278072A0CD1E5
:107F88001E68002E04D1274B210003201B68984748
:107F9800022233789343012B32D0009A3B689B1816
:107FA8001A0040321278052A0CD11E68002E04D11E
:107FB8001C4B210003201B689847022273789343C7
:107FC800012B1DD00134E4B2B2E71749EE3109782C
:107FD8000129CCD11E68002E04D1124B21000320A8
:107FE8001B689847102372881A4204D10D4B210050
:107FF80003201B6898470222F37A9343012BB6D1DA
:10800800044B0C211B78A34296D90198FEF748FF30
:108018000020FEBDC8BE00003EE407187EBC00007C
:1080280060BC000018BF00006CBC000070B50923DC
:108038000021094A094815F051FB0400FFF792F99D
:10804800002501000822601C16F0B2FF20002570F0
:10805800FBF71CFB280070BD032000000111000085
:1080680070B50C00074D08220100280016F0A0FF8B
:1080780028000421FBF790FB20000021FEF710FFE9
:10808800002070BD70BC000010B50C000221FBF789
:1080980083FB01002000FEF703FF002010BD10B590
:1080A8000C000321FBF778FB01002000FEF7F8FE27
:1080B800002010BD10B50C0081880088FDF7F0F98C
:1080C80001002000FEF7ECFE002010BD007810B57E
:1080D8000C001221032804D801231840FDF7EAF9FF
:1080E80001002000FEF7DCFE002010BD70B50A007C
:1080F80009230021084815F0F1FA0822040000219C
:10810800013016F071FF002560232000257063718F
:10811800FBF7BCFA280070BD0111000070B54123BF
:108128000A000B48002115F0D9FA04002A2209494F
:10813800013016F03DFF20000025162200212B30CB
:1081480016F052FF20002570FBF7A0FA280070BD3A
:1081580001110000E481061810B50C0014F0F8FDB8
:1081680020000021FEF79CFE002010BD10B5030082
:108178000C4A00780C001278002803D059889142E4
:1081880003D29888FDF7B8F909E00022064B1100E0
:1081980001201B68984712212000FEF781FE00206D
:1081A80010BDC046C8BE000018BF0000002270B550
:1081B8000C001900084BD000C518185A884205D180
:1081C8006B68181E01D02000984770BD01322C2A18
:1081D800F1D10020F9E7C04610820618200080007F
:1081E80000C000000000E400000028220000000099
:1081F8000000040000F7FFFF7F00000030F0FFFFE1
:10820800FFFFFFFFFF170000030C00006181061845
:108218000110000095790618091000006179061808
:10822800021000002581061803100000F5800618CA
:10823800010C0000A7800618630C00009180061846
:10824800310C0000D5800618330C0000BD800618DC
:10825800350C000075810618012000006980061899
:108268000220000035790618032000003580061822
:1082780005200000317F061806200000B584061886
:10828800082000001D8606180A2000006D870618C1
:1082980009200000C58606180B20000075910618F5
:1082A8000C200000999206180D20000021A4061841
:1082B80014200000CD7E06180F200000097906184A
:1082C80010200000C97D061811200000257E061820
:1082D800122000005D7D06182A200000E1780618AB
:1082E80027200000317C061828200000D17B0618C2
:1082F80029200000817B06182E200000457B0618E7
:108308002D200000017A06182B200000F97A0618A3
:108318002C200000AD7A061817200000697A06188C
:1083280018200000917806181C200000357A0618DD
:10833800232000006178061824200000C57906185B
:108348002F200000317806181D20000095AA061875
:108358001E200000D1AA061825200000C1770618A3
:108368002620000081770618FFFFFFFFFF030000AB
:1083780070B544251D4C454323685B59002B05D037
:1083880000221B4B110001201B689847002223681C
:1083980011005E1910001A2315F0A0F9FF233060B0
:1083A8002068002645192C6831002370EC3B638057
:1083B80080231B01A380082320002381013BE68042
:1083C8006381267306220D3016F00EFE8023FF33DC
:1083D800A3827F3BE382074BE6742683DA682A632D
:1083E8001B8AAB86012340352B7070BD60BC000032
:1083F80018BF00006CBC000070B514000F4B0600DD
:108408001A78E3B20D009A4205D80D4B22000320DA
:108418001B68E1B29847002E0FD14420E4B24443D0
:10842800084B18680019030040331B78022B04D14D
:1084380006222900363016F0BBFD70BDC8BE00000C
:1084480018BF000060BC0000F7B50D0000240190C3
:10845800134F3B78A34202D8FF242000FEBD4422DC
:10846800104B62431B689B181A0040321278511E49
:10847800022902D90134E4B2EAE71E68002E04D1C9
:10848800094B210003201B6898473378019A9342CF
:10849800F0D13B78A342DFD9002DDED02E60DCE797
:1084A800C8BE000060BC000018BF0000F0B5544B07
:1084B80087B00391EE331A780400022A00D19DE0B8
:1084C80001220021FF201A70FFF7BEFF04AAD51D64
:1084D80003002870FF2813D04A4A106844225343E7
:1084E800C01840300378012B00D087E02379042B93
:1084F8000FD912210398FEF7D3FC002007B0F0BD76
:108508002800FEF7EFFF011EF4D12878FFF730FFAF
:10851800ECE7012B09D0218862889142E9D81F290C
:10852800E7D98021C9018A42E3D8627B013A062A49
:10853800DFD8A27B032ADCD86279032AD9D8A279AA
:10854800012AD6D8012B03D000220292042B07D18E
:108558002D49E01D15F01EFD0028CAD10123029304
:10856800442300212A78274F53433A68D3181D68BB
:10857800264A2800019323790D30D35C6B806388E9
:1085880069721A0A2A72EB712388A971AB80637B1E
:108598000622AB726679E11DEE72A3792B7316F091
:1085A80007FD0023029A9A4200D1A37BEB74032EA5
:1085B8001DD83000019B1249303316F0CDFC021251
:1085C8000212019AC86810630A8A9A80442204AB8E
:1085D800D9793B684A439B180122403300211A701D
:1085E80088E706221800123116F0E2FCEEE7084B85
:1085F8000022310003201B689847E7E70C2179E740
:108608006CBC000060BC00003EE407187C900618B3
:1086180018BF0000F0B5274B85B00191EE331A78EA
:1086280005000C21022A38D001221A70037806317D
:108638001F2B32D80021FF20FFF706FF02ABDE1DFB
:108648003070FF2807D13000FEF74CFF011E24D1FF
:108658003078FFF78DFE44223378174F53433A683A
:10866800D3181B8C0093FEF7A1FB0721041E14D01E
:1086780021002A78681C14F051FB442230783B68AA
:10868800424329789B181C84598440331B78022B59
:1086980009D122000BF0F2FD00210198FEF700FC41
:1086A800002005B0F0BD009B002BF5D01800FEF7A8
:1086B80095FBF1E76CBC000060BC0000F0B5274BEF
:1086C80085B00191EE331A7805000C21022A38D0C2
:1086D80001221A70037806311F2B32D80021FF209F
:1086E800FFF7B2FE02ABDE1D3070FF2807D1300065
:1086F800FEF7F8FE011E24D13078FFF739FE442238
:108708003378174F53433A68D3181B8D0093FEF7FD
:108718004DFB0721041E14D021002A78681C14F090
:10872800FDFA442230783B68424329789B181C851F
:10873800598540331B78022B09D122000BF0CEFD5E
:1087480000210198FEF7ACFB002005B0F0BD009BAE
:10875800002BF5D01800FEF741FBF1E76CBC0000D8
:1087680060BC0000F0B5964B93B004900591EE33D1
:108778001A78022A14D001220021FF201A70FFF76C
:1087880063FE06AB9C1C049B20701B78002B03D057
:10879800012B26D012210FE18A4B1B78834201D886
:1087A8000C2109E144252A00874E424333689A1870
:1087B80040321378022BF3D10BF026FD011E00D0B6
:1087C800FAE02278336855435D19032340352B704E
:1087D800049B00211B78002B00D0EDE0002013B093
:1087E800F0BD784B1B78834269D94422764B5043BD
:1087F8001B681B1840331B78012BD1D106ABDD1C3D
:1088080000232B70704B21781A6844234B439C58E3
:10881800E37ADB075CD46388DB0711D52800FEF711
:1088280061FE011E00D0C7E00C2362881A4207D0FF
:108838002000217B0D30FEF74FFB002800D0BAE066
:108848000A262100638807AD02932B83637A227A74
:108858001B0412021343E2790D311343EB60A37A30
:1088680006226B77E37A0193AB77237B0393EB774D
:1088780006ABF618300016F09BFBE27C06AB05331E
:10888800DA77227D06AB0633DA77637D06AA0732EC
:10889800D377A17D08AAD177092206A95218D377E0
:1088A800237EF3770B23627E5B18DA77019B4449BA
:1088B800DB0715D4CB6807930B8AAB8015E0200043
:1088C800FEF710FE011E77D12078FFF751FD95E7DE
:1088D8003E493F4815F05EFB002800D05AE79AE76A
:1088E80006222800123116F063FB442206AB9F1CB7
:1088F8003B78354D5A432B682C209A18118C07ABBE
:108908001982518C334E9982118D5982528D06A944
:10891800DA8200225A831A77294B09AA56331B7820
:108928000918D37732780A70002B02D0029B5B07B4
:1089380002D4019B9B0720D5200003990D30FEF738
:1089480071FB2C2206AB9B1818703378834214D91C
:10895800E37A9B0711D527261F4B70431E681F49D2
:108968003618073630001C3A16F014FB002804D0DD
:1089780030003A781A4915F0D5FF07A938780BF076
:1089880015FD011E18D144203A78296842438B18F6
:108998001A000225403215706288D20700D417E702
:1089A80006AAD4783E331C70030004226343CB1814
:1089B80040331A700CE70B210598FEF771FA0DE7A2
:1089C8006CBC0000C8BE000060BC00003EE4071894
:1089D8007EBC0000C9BE000068BC000044E4071863
:1089E80001840618442270B50D000978134B4A43D8
:1089F8001B689B181E6840331A78931E012B03D9F5
:108A08000F4B03201B689847737E002B14D0092353
:108A18003E2200210B4814F061FE1323040003706A
:108A28003378062243706B78A91C8370033016F0E4
:108A3800BFFA2000FAF72AFE002070BD60BC0000D3
:108A480018BF000004110000F0B544250B7895B05C
:108A580004936B437F4E0293029A33680C009B1871
:108A68001A003E3212781F68019240331A78032A9E
:108A780022D1794D2B00EE331B78012B09D100212F
:108A88007648FEF70DFA3368029A9B1840330122A4
:108A98009DE02B00ED331978002904D1704B0A00B2
:108AA80001201B689847ED3529780139C9B229702A
:108AB8000029E8D16B48E4E70A0015320392203216
:108AC8001278002A00D1EDE10B00373319780398AA
:108AD800FEF702FA0590002800D1C9E00C237A8835
:108AE8001A4205D000225E4B110001201B689847EE
:108AF8007D8806AB1D837B7A3A7A1B0412021343E6
:108B0800FA79390013430993BB7A06AA5377FB7A9B
:108B18000D3103931300039A9A7706223E7B981827
:108B2800DE7716F045FA04212A000A40944600230D
:108B38000D4200D1FB7C06A90131CB77397D06AB0C
:108B48000233D9777B7D06A90331CB77B87D07A996
:108B5800C87706A90531CB77397E06AB0633D977B6
:108B6800797E3C4D06AB0733D9772B6802992822CA
:108B78005B18196B06A806919B8E06A98B800023AB
