:020000041800E2
:200000003C3CA5A5C3C35A5A02000000BFFFFFFFFFFFFFFFFFFFFFFFFFFFFFFF0003001817
:16002000901000000050001800D0031800200018FFFFFFFFFFFFA5
:2003000000C00000810F0000D30B0000D30B000000000000000000000000000000000000D1
:200320000000000000000000000000000000000000000000000000000000000000000000BD
:2003400000000000000000000000000000000000000000000000000000000000000000009D
:2003600000000000000000000000000000000000000000000000000000000000000000007D
:2003800000000000000000000000000000000000000000000000000000000000000000005D
:2003A00000000000000000000000000000000000000000000000000000000000000000003D
:2003C0000368002BFCDA7047002310B59A4200D110BDCC5CC4540133F8E7F7B50E00170074
:2003E00008AA1178327A89025406E40F0C433179050009060C431107C90F49000C43D10683
:20040000C90F49020C439107090C0C435107C90FC9000C43E0219206D20F920014437A1E2B
:20042000C90212040A4014433A00511E8A4112011443020001009032146072689831120A64
:200440000A601A0101231343020094321360A035FFF7B6FF2B683A00306801A90193FFF749
:20046000B3FFF7BDF7B515009A02194B0400134302000E00112790321360082D15D8002D2F
:2004800012D023000122943320001A60FFF798FF2300A0331B68A434009323682A006946FE
:2004A00030000193FFF790FFF7BD230094331F602000FFF785FF2300A0331B68083D3360EB
:2004C0002300A4331B68ADB273600836D5E7C0461000070073B51E0006AB050018780B7A45
:2004E00080025C06E40F04430879000604431807C00F40000443D806C00F400204439807C6
:20050000000C04435807C00FC0000443E0209B06DB0F9B001C43531EC0031B0503401C43D8
:200520001300581E83415B011C432B00280090331C604B6898301B0A0968036001A8FFF70E
:2005400043FF2B00019AA8331A60330101261E432B00943328001E60FFF732FF73BD000093
:20056000F7B5070005000E009B0201931400144B019A903713433B60042C13D8002C10D097
:20058000013C23052024019A2800134323433B602B003268A8331A600122143B1A60FFF79C
:2005A0000FFFF7BD2B0004CEA8331A601122143B28001A60043CA4B2FFF702FFDCE7C046AD
:2005C00020003000F0B587B0049205938C8906000D00042C1CD80027E4B200F0D1FAAB7BD7
:2005E0000390306822008362EB7B290000933B00049FB847AA892968121B0919EB7B3068B9
:2006000092B2059CA047039800F0BEFA07B0F0BD0A6803231100194001270C001A42DCD029
:200620000424641AE4B2D8E770B5040000F030FB002325682000EB6200F040FBE8602000CB
:2006400000F038FB1E222368400010401861200000F032FBF023C004DB031840812322682B
:200660001843106070BD10B58A784B780068140783625307DB0FE40F097824041B0323432C
:200680000B43D106C90F090592070B4392091343436010BD10B5024B024AFFF793FF10BD54
:2006A00065010000DB00000010B5024B024AFFF789FF10BD61020000D50100001FB50092B1
:2006C0006A4611716C21127A8A43110040220A4369468B8100230A72CB73FFF7E5FF05B01B
:2006E00000BD00680123020010B509069032194311605360FFF764FE10BD1FB500926A465E
:2007000011716C21127A8A43110040220A4369468B8100230A72CB73FFF7BCFF05B000BDF6
:2007200010B586B06A4607320292EB22039282013D207F2402AB10431A7A2040A2431043F0
:20074000012218729973044819009A81DA73FFF7A1FF06B010BDC0469410000010B501008A
:200760000148FFF797FF10BD9410000010B5FFF7F5FF10BD10B50268437901790148FFF713
:20078000BCFF10BD9410000010B50200022301210148FFF793FF10BD9410000010B5020016
:2007A000C17803230148FFF789FF10BD9410000010B501000148FFF777FF10BD94100000B6
:2007C000034B044A1A60044B1870044B197070479410000000000240911000009010000076
:2007E00010B50248FFF720FF10BDC0469410000037B5104D2B78002B1AD100F0C1F9202171
:2008000004000120FFF78CFFEB231F2201A90B70CB3B4B708B78084893431A001E23134323
:200820008B70FFF720FF012320002B7000F0ACF937BDC046911000009410000070B5084D7B
:200840002B78002B0BD000F09BF9002104000800FFF766FF002320002B7000F095F970BD5A
:200860009110000070B50D000400FFF7E7FF2800A047FFF7BDFF70BD10B5020001230521C6
:200880000148FFF73AFF10BD94100000F0B585B00D00040000F074F90190FFF7CFFF0621AB
:2008A0001948FFF71EFF2800A04700F01BF90600C8200125400100F0E6F9144F01983D70E4
:2008C00000F062F912490022611A4B425941114C114B49422140C918300000F013F900F00C
:2008E0004FF9040002ABDE1D3000FFF7C5FF33781E002E402B42F5D1200000F045F93E70B4
:20090000FFF776FF05B0F0BD9410000090100000B1040000003DFAFF00BD060010B5020051
:20092000012335210148FFF7E8FE10BD9410000007B56B46991D08800148FFF7A7FF07BD53
:200940008904000010B586B002913221002B00D1303902AC2171010203980190684600792E
:20096000084303907C20217AA2818143080048210143217203482100E373FFF787FF06B03F
:2009800010BDC046B104000010B5012300F06AFA10BD000007B5020C01AB1A70020A9870B1
:2009A000D970034819005A70FFF770FF07BDC0469D04000010B5202100F05FFA10BD0000D4
:2009C00010B501000148FFF74DFF10BD5D0400007FB5EB23029102A90B7103990302019169
:2009E000694608797F211843039002AB1B7A8B4319007D230B4302A90B7280235B000800F4
:200A0000CB818A8100F044FA07B000BD10B501000148FFF727FF10BD7504000007B56A4600
:200A2000034B00909380684600F03DFA07BDC0469F03000010B586B00292482202AC22714A
:200A4000039AC90501926A46C90D000308431179000208437F210390227AA3818A4311001C
:200A60004C2200230A43044821002272E373FFF7F9FE06B010BDC0466D04000010B500F0A5
:200A80001DFA10BD07B56B46581DFFF747FF6B465B799B0709D401A8FFF7EEFE6B46802074
:200AA0009B8880001843FFF743FF07BD10B5040000F008F920206401024B04401F380443AE
:200AC0001C6010BD007401400022044B04491A6059609A6005321A607047C04610E000E0EF
:200AE000FFFFFF00014B98687047C04610E000E0091A0802000A0B0202D5FF231B06184367
:200B0000704700000CB4F7B506001B4B0D1AED182C0E00270AE0089B002B18D1174B310085
:200B20009868FFF7E5FF002819DA0127002CF2D1EC432402240A089B002B15D10F4B9B6815
:200B40009C42F8D30120FEBC08BC02B0184709A8089B019098470028E0D00020F3E7012F76
:200B6000E4D1013CE4B2D4E709A8089B019098470028E3D0F1E7C046FFFFFF0010E000E0E8
:200B8000EFF3108072B67047002800D162B6704772B6704707B5042201A9FFF719FF01982A
:200BA0000EBD0000014B98667047C0460014024080000164704700000349044A4B681A40CA
:200BC000034B13434B6070470010024008FFFF7F020000800349044A4B681A40034B13436B
:200BE0004B6070470010024008FFFF7F0400008013B501AC2000FFF711FF0120A378984089
:200C00000138FF3816BD0000002210B5034BDA66FFF7EEFFFFF7CEFE10BDC046001402404E
:200C200007B5FFF7E5FF042201A9FFF7D1FE01980EBD10B5FFF7DCFF103010BD10B586B087
:200C40000400FFF7F6FF102202A9FFF7C1FE049B02990193DB43039A00202160626099424C
:200C600005D10598C043801A43425841C0B206B010BD10B52420FFF78DFF10BD10B52820EC
:200C8000FFF788FF10BD01380028FCD1704700008022064B5205996905481143996199693C
:200CA00001409961596A0A435A62704700100240FFFFFFEF02207047002070470048704789
:200CC000020204000122084B196911431961196991431961D9690A43DA618022596A9205B0
:200CE0000A435A627047C0460010024003000020022B03D898029023DB05C01870470000F5
:200D0000E0230F4ADB02D16910B50B43D36190230020F021DB05186158619861D861094B9D
:200D200089011A690A401A61A0229201586106499861DA61FFF73CFF0122044B1A6010BD66
:200D40000010024000040048D50A000000E100E013B56B460400D8710009FFF7C7FF0123A6
:200D60002407240FA34082691343836113BD13B56B460400D8710009FFF7B8FF0123240772
:200D8000240FA34042685340436013BD1B2818D004D8002808D007280FD070471F28FCD1AD
:200DA0000A4B0122996C02E01022084B996C91439964996C0A439A64EFE7044B2022996CBD
:200DC000F5E7024B4022996CF1E7C0460014024070470000F7B5002401271C4E33699BB24D
:200DE0000193019B23413B4211D0356BA300DD40FF232D011B011D403B00A3402543EDB2B3
:200E000028007361FFF7C2FF2800FFF7E1FF0134082CE6D10127019B23413B4212D0756B9A
:200E2000A300203BDD40FF232D011B011D403B00A3402543EDB228007361FFF7A7FF2800E9
:200E4000FFF7C6FF0134102CE5D1F7BD0004014000DF704701DF704702DF704706DF704756
:200E600007DF704710B5EFF31084002C02D0FFF769FD10BDFFF7ECFFFBE710B5EFF3108376
:200E8000002B02D0FFF786FD10BDFFF7E3FFFBE710B5EFF31083002B02D0FFF791FD10BDCD
:200EA000FFF7DAFFFBE710B5EFF31083002B02D0FFF7ACFD10BDFFF7D3FFFBE710B5EFF38D
:200EC0001084002C02D0FFF7B5FD10BDFFF7C6FFFBE770471FB5102301206A460021FFF7C8
:200EE000CDFD6B4618885B88DB439BB2984209D16B46DB886A46DB4392889BB29A4201D1DE
:200F000005B000BD0020FBE710B586B001AC1423102122000120FFF7B1FD210005234A884B
:200F20000888D24392B290424FD1013BDBB20431002BF4D16178294A09070B0F0F2150688A
:200F400088432178034353608B088907090A1B060B432179506B8907890B0B4361784906A0
:200F6000490F49020B431E49084003435363916B237A89009B0989089B070B439363D36B5A
:200F8000A189DB0B4904490CDB030B43D363637914495A075B065B0F920C1B0213438868D7
:200FA000114A104003438B600C4B10499A6B1140802292050A4307219A635A6C8A43110000
:200FC00005220A435A6406B010BD0649064A8B681A4090239B011343E5E7C04600140240A3
:200FE000FFF13CC000740040FFC0FFFFFFFFFFC010B586B001AC1423102122000120FFF78E
:201000003DFD210000234A880888D24392B2904200D0FEE70233DBB204310A2BF3D1617847
:20102000224A09070B0F0F21506888432178034353608B088907090A1B060B432179506BDB
:201040008907890B0B4361784906490F49020B431749084003435363237A916B9B09980785
:2010600080239B05034307200902090A0B439363D36BA189DB0B4904490CDB030B43D3630C
:20108000516C637C814303400B435364637909495A075B065B0F920C1B0288681343064AFD
:2010A000104003438B6006B010BDC04600140240FFF13CC000740040FFC0FFFF30B587B057
:2010C000182310216A460120FFF7D8FC694606234A880888D24392B2904200D0FEE7013BB3
:2010E000DBB20431002BF3D16B4659783B4A09070B0F0F2150683A4D8843034353606B462A
:201100001978506B8B088907090A1B060B43694609798907890B0B43694649784906490F24
:2011200049020B432F490840034353636B46197A906B8B09890689089B070B432A490140C3
:201140000B43802149030B4369469363D36B8989DB0B4904490CDB030B43D3636B4607204F
:20116000516C5B7C814303400B4353646B465B791E495A075B065B0F920C1B0288681343B6
:201180001B4A024013438B6008232A6813432B606B46184A9B8A934208D0174A934211D0CD
:2011A00008222B6893432B6007B030BD1B20FFF7CFFD0A24013C1B20E4B2FFF7D8FD002C3D
:2011C000F8D1EDE71320FFF7C3FD0A24013C1320E4B2FFF7CCFD002CF8D1E1E70014024083
:2011E00000100240FFF13CC0FFFFEF0000740040FFC0FFFF0316000002320000C023194AC0
:20120000DB05116A10B50B431362FFF763FE164B984209D0154B984209D0033BFF3B98421B
:2012200008D1FFF771FE10BDFFF7E2FEFBE7FFF745FFF8E70E4B0F499A6B11408022920592
:201240000A4307219A635A6C8A43110005220A4309495A648B68094A1A4090239B011343AF
:201260008B60E0E700100240014100000242000000140240FFFFFFC000740040FFC0FFFF60
:20128000F0B53E4D85B0FFF783FCFFF795FCFFF7A1FCA86C0027000AC0B2FFF783FC80238B
:2012A000A020AA6C1B061343AB640001FFF7EBFC2F64FFF709FC39003800FFF781FAFFF78E
:2012C0008FFAFFF7DFFBFFF793FA3800FFF7EEFBFFF716FD2A492B4ACB691A40A0239B013D
:2012E0001343CB61FFF78AFFFFF7C3FC040002A8FFF7A4FCB8420AD0FF23039A1340591E97
:201300008B41120A9B189F4214D3FFF77DFCED6EFFF786FC1C4B9D4201D0002802D1FFF720
:20132000ADFC0400236883F3088862B66368984705B0F0BD3B020193E8231B06E6183B0213
:20134000F6180F231F4202D13000FFF733FBE82212069446029B80220193634418003B02FA
:20136000C0180A495200FFF733FB80223000074952000137FFF708FBBFB2BDE700140240BC
:1413800000040048FFC3FFFF3C3C5A5A98100000497191F33B
:2050000000B00000C15B001825650018256500180000000000000000000000000000000068
:20502000000000000000000000000000D15B001800000000000000002565001825650018E8
:20504000256500182565001825650018256500182565001825650018256500182565001840
:20506000256500182565001825650018256500182565001825650018256500182565001820
:20508000256500182565001825650018256500182565001825650018256500182565001800
:2050A0002565001825650018256500182565001825650018256500182565001825650018E0
:2050C00003460B439B0703D009E008C9121F08C0042AFAD203E00B780370401C491C521E0D
:2050E000F9D2704700F0BCFAFEE7000010B500F0BDFAB84C0020E06200F0C8FAE06000F0EF
:20510000C1FA0007C00E206100F0BEFA0007400A8130206010BD10B5AE4A417891620178A5
:2051200080784307DB0F1B0319430307C406DB0FE40F1B04240523438007194380090143BA
:20514000516010BD03E00B780370401C491C521EF9D27047F8B505462C7A0E460079610673
:205160000006C90F0843990208432107C90F49000843E106C90F49020843A107090C08432F
:205180006107C90FC9000843A106C90F89000843711E4907490B0843002E01D0012100E0E9
:2051A000002109018B4C0843803420616868000AA0611001401C606100F005F9206A00905C
:2051C000324669462868FFF7BDFFF8BDFEB50D460446814990027F4E08438036306111276E
:2051E00009E07761083DADB200F0EDF8306A2060706A60600834082DF3D8002D0CD001205B
:20520000706100F0E0F8306A0090706A01902A4669462046FFF796FFFEBDF7B50446808996
:20522000012682B00F46042802D8C5B2002608E02068810704D08007800F04210D1A00E00F
:20524000002500F005FA00906249A07B8862E37B324629462046B847A089049B401B81B2FA
:205260002068E27B40199847009800F0F5F905B0F0BD5A4A5A49D0E7F8B51546047A02793A
:2052800066061206F60F32439B021A432307DB0F5B001A43E306DB0F5B021A43A3071B0CEC
:2052A0001A436307DB0FDB001A43A306DB0F9B001A4307240B0524051B195B025B0A1A43C3
:2052C000002901D0012300E000235B01414C1A43803422614268120AA26100680A46014668
:2052E0006846FFF72FFF0098A0622801401C606100F069F8F8BDF8B505463A489702354E60
:20530000384380360C46306107E001CDB06211207061241FA4B200F056F8042CF5D8002CB0
:205320000ED007212005090540184002400A3843203030612868B0620120706100F043F835
:20534000F8BD294A294968E77FB514000D46064601D0042C01D9FFF7C5FE694600950E7126
:20536000087AD321084040210843694608728C810020C8736846FFF7E4FF7FBD010615480B
:2053800010B58030491C01610121416100F01BF810BD7FB514000D46064601D0082C01D977
:2053A000FFF7A0FE694600950E71087AD321084040210843694608728C810020C8736846ED
:2053C000FFF757FF7FBD03480168C90FC907FBD5704700000000024010000700CD0100003B
:2053E0005501000020003000F702000079020000934948707047924908707047904A5070A4
:205400001170704710B5FFF771FE10BD00B585B06A460192EB226B461A72029AC007D2B2FF
:2054200002921A7B042392089200521C1A4338231A43BF231A40400E02436B461A7301203F
:2054400018829974D87401A8FFF713FF6B4618783C2801D0FFF746FE05B000BD38B5784CD5
:20546000607800281CD100F0F3F8054620210120FFF7CCFFEB206A461070907881088900A1
:205480000420891C0143182001439170202050706846FFF740FE01206070284600F0DCF87D
:2054A00038BD70B5664C607800280BD000F0D0F8054600210846FFF7A9FF002161702846D5
:2054C00000F0CAF870BD10B5014601220520FFF760FF10BD10B5014601223520FFF759FFA5
:2054E00010BD70B50D460446FFF7DBFF2846A047FFF7B4FF70BD10B5FFF723FF10BDF8B5CB
:205500000C46054600F0A4F80746FFF7CAFF0620FFF734FF2046A84700F049FA06461920FA
:20552000800100F09FF8464C01202070384600F093F84448854202D17D21C90100E042492E
:205540000022304600F03FFA00F082F805466846FFF7B9FF68460078C007C00FF7D1284687
:2055600000F07AF800202070FFF778FFF8BD10B5014602220120FFF7E7FE10BD01B5694699
:205580003248FFF7BCFF08BD10B50146C0780322FFF7DAFE10BD10B56020FFF7EFFE10BD22
:2055A00010B5FFF766FE10BD10B5B920FFF7E6FE10BD10B5AB20FFF7E1FE10BD10B5427908
:2055C00001680079FFF7E5FE10BD10B5014603224420FFF7B9FE10BD10B5FFF7B2FE10BDFC
:2055E00010B5FFF746FE10BD10B56620FFF7C6FE9920FFF7C3FE10BD08B500A80130FFF711
:2056000069FF68464078800709D46846FFF75BFF68460088012149020843FFF7AFFF08BD03
:2056200010B57520FFF7AAFE10BD10B57A20FFF7A5FE10BD024800787047014840787047AF
:20564000080B0000F704000040AF01006F050000EFF3108072B67047002800D162B67047BF
:2056600072B67047401E0028FCD170470848826901040A43826182698A438261426A0A433D
:2056800042627047022070470020704701487047001002400202040026494868F62290439B
:2056A000254A104348607047F6E7224840684107490F012902D10006000F01D00020704780
:2056C000012070471B494868F62290431A4A10434860704710B56020FFF7C4FF10BD70B5ED
:2056E000FFF7A8FF0546FFF7A8FF0446002D08D0002C01D0FFF7F6FCFFF792FF6020FFF7F4
:20570000B1FF002C01D1FFF7A9FE00F09FF9002C01D1FFF7C6FE002D01D0FFF786FF70BD58
:2057200004494868F5229043034A521C10434860704700000010024001000080704710B5C6
:205740007F4801690422114301617E4881680722D20691437C4A114381600168C901FCD4BA
:205760007A490868082290430860FFF795FF75484038416B7A2291434163816B744A114017
:2057800092078918816310BD10B5724800680421084000D00120002801D1FFF7A3FC694899
:2057A00081686D4A090A5170826843061A43826082680723DB069A43684B1A438260080631
:2057C00000D5FEE70520C001FFF74CFF5D494039886B012280008008D20510438863486BE3
:2057E0007A221043486300204A6BD20FD20703D40A2801D8401CF7E7FFF756FF10BD052027
:2058000050494003086070474E480168090202D501688901F9D4002101607047FEB5FFF70A
:2058200040FEFFF7C1FE4E4C256B666BA769E0690090A068019043484A49016000F09AF8F7
:205840000521404849030160FFF7DEFF25636663A7610098E0610198206072B6FFF7D2FDE2
:20586000FFF7A7FE1920FFF7FDFEFFF7F7FDFEBDF0B50E460146012004468C402546354067
:20588000022649008E40059F002D03D01C4203D08840F0BD144201D13046F0BD0320884049
:2058A0003840F0BD1CB5044600212A48C943803801600920C00600F0CFF82B4800F0CCF823
:2058C0002178880701D4C80901D0042100E0062120888E23020A1A43C906C0B2F7231204CA
:2058E000184011430143174881600021016014490869042210430861FFF7D3FDFFF754FE38
:205900001A4CA06980B20190606980B284466068E56987B23B466246009500200199FFF7D3
:20592000A7FF06463B466246009501200199FFF79FFF0F4930430843E06130BFFEE700003D
:2059400000ED00E0401402408A008A0040100240FFFF7F3F00E200E02C0B00008A008A086D
:20596000000401400AA000000004004800080048505500004046494652465B46FFB50021D4
:205980006A460A60FFF7DBFE30BFFFF7FDFEFFBC8046894692469B4600BD000029480021E6
:2059A0000161294A42618161052101617047254880697047081A0002000A010202D5FF2119
:2059C0000906084370470FB4F8B51F4A0646901B4018040E1040171A00206946087009ADFE
:2059E0001CE00899002903D02846884700281FD1144831468069FFF7DDFF002868460078DD
:205A000007DB01280AD100206946641E0870E4B204E0002802D1012069460870002CE0D13D
:205A2000084C0899002908D028468847002804D00020F8BC08BC04B01847A069B842F0D8C1
:205A40000120F6E700E000E0FFFFFF0003B40148019001BD6169001803B40148019001BD0B
:205A600059C60018FF00000017000000000000000000000077770000000000000005097568
:205A80006172740000000000000000000000000000000000000000000000000001000000BE
:205AA0000000000000000000010501000000000000000000000000000000000000000000DF
:205AC0000000000000000000494E34454C734F76695741366B34784600000000000000009E
:205AE0000000000000000000000000000100000000000000000000000000000000000000A5
:205B0000000000000000000000000000000000000000000000000000000000000000000085
:205B2000000000000000000000000000000000000000000000000000000000000000000065
:205B4000000000000000000000000000000000000000000000000000000000000000000045
:205B6000000000000000000000000000000000000000000000000000000000000000000025
:205B8000000000000000000000000000000000000000000000000000000000000000000005
:205BA0000000000000000000000000000348854600F056FB00480047CDC6001800B00000A4
:205BC000014CA047014C2047D59A0018AD5B001804207146084202D0EFF3098001E0EFF311
:205BE0000880014908470000559900180549064A08685043054A8018086040087047014945
:205C0000086070479C0B00006D4EC64139300000D2B201E00270401C491EFBD27047002253
:205C2000F6E710B513460A4604461946FFF7F0FF204610BD30B505462A460B4610781C784B
:205C4000521C5B1C002801D0A042F7D0002C03D0002802D06D1CEFE7284630BD421C017833
:205C6000401C0029FBD1801A704710B5002200E0521C835C8C5CA34201D1002BF8D1D8B251
:205C8000E1B2401A10BD03460A780270401C491C002AF9D1184670470321001D401E037829
:205CA00012021A43491EF9D51046704770B5064603F0DEFF046805460A220021304600F086
:205CC000D9F82C6070BD0000F0B51FB488B00B990998002448400999C00F490049080991F4
:205CE000C0070B990090490049080B9109990898A64608431CD00B990A98084318D00998F4
:205D000001244000420D4800410D099824050003000B204309900B980003000B20430B90B6
:205D200050181C494018002201901446104605E0002001460DB0F0BD032801DA034600E0F6
:205D400003239C46C11A0AAE0AE05F0008ADED5B4F00F75B7D430027AA187C41491C5B1E7D
:205D60006145F2DD410004AB5A522104120C0A43240C401C0828DFDB019802900099704692
:205D800001910090059B049A0799069800F0B7F8D0E700000DFCFFFF0EB505490291002143
:205DA00000910A460B46019100F0A9F803B000BD330400004A0009030123090B1B051943DD
:205DC000094B10B5520D9A4201DA002010BD064B34339A4203DC9A1A00F03AF810BD034945
:205DE0005118884010BD0000FF030000CDFBFFFFF0B51FB40646002082B005464024019186
:205E000000901BE0019922460F46304600F020F8049A059B801A994110D310461946224670
:205E200000F030FA361A8F410197224601200021009F00F027FA38184D4100902046641EE0
:205E40000028DFDC019B00982946324607B0F0BD10B5202A04DB0846203AD040002110BD4C
:205E60000B46D340D0402024A21A91400843194610BD0000F7B5009C0F4600262578641C86
:205E8000002D05D000F022FA0068405DC007F5D12B2D02D02D2D18D0641E39462046029AF3
:205EA00000F027FA002F04D03968A14201D1009939607105022400290BDA4042002803DD12
:205EC00003F0D6FE0460A007FEBD012080020643E3E70028F8DA03F0CBFE04600048FEBD62
:205EE000FFFFFF7F10B5002B08DA0024401C614192185B411A4301D14008400010BDF0B5C3
:205F00001FB482B005460C0003D0084603F08CFE02E003F089FE203002460090214628462E
:205F200000F0B0F9049B059A04460F4618431143084314D0184610431BD0009840210A1A54
:205F400018460599FFF784FF05460E46009A0599049800F097F9084305D0012004E020464E
:205F6000394607B0F0BD0020C11705430E432C43374300990E986305401A7905E40A002235
:205F80000C43FD0A0A3002D500200146E9E70105101969410C9C0D9D00196941FFF7A2FFDE
:205FA000DFE70000F0B507460846584087B0C00F049048000E46590040084908BC1A88417C
:205FC00005D2384631461E4617460B4602465800400810434CD0300D039040055900400DD1
:205FE000490D0590401A0290402872DA18030121000B09050843019004980092002805D0B9
:20600000019952420020884100920190029840210A1A0199009800F035F905460C466B4689
:2060200007CB00F03FF9C0197141039A0E0D0023D71756401A467A40164344D0049A002A2D
:206040002DD0029A012A039A15DC1205C01A914101263605001C7141D20F059ED20700930B
:20606000019202962A462346FFF749FF07B0F0BD38463146FAE71605224A0F46B218C01A24
:20608000B74101210905001C4F4100187F41114618187941E20F10436D19644113E0E207C8
:2060A0006D0815436408C2071443039A01261205C01A91413605001C7141CE074008304367
:2060C0004908C01851412A462346FFF70BFFCDE7FFE7049801224000C117121A00238B41A0
:2060E00004983146C417381AA141EEE730B40124E407634030BC55E730B40124E407614055
:2061000030BC4FE70000E0FFF0B50C465C4085B0E40FE40703944C00002664085900944630
:20612000490802460296224321D062460A431ED06200570D4A000E032303550D01240246DF
:206140002C492405781B1B0B360B401823432643614600901C46501AB44103D30098401CBE
:20616000009002E0921800985B41002803DA0020014605B0F0BD0020012109050746864698
:2061800011E064461D46141BB54106D36546521BB341744607430C43A646CD07400849084B
:2061A000284392185B4105460D43EAD11046184313D06046194650407140084306D0604637
:2061C000101AB34106D20122002306E000220123DB0702E00122D2435310009874460105A0
:2061E000381C6141029C039D00196941FFF77AFEBFE70000FD0300004A0009030123090B06
:206200001B0519430A4B10B5520D9A4202DA0020014610BD064B34339A4203DC9A1AFFF780
:2062200017FE10BD034BD21800F02CF810BD0000FF030000CDFBFFFF10B5002904DB0124A9
:20624000E40740428C412146002B04DB1C460123DB075242A341994200D1904210BD000068
:20626000064C0125064E05E0E36807CC2B430C3C98471034B442F7D3FFF79CFC24E8001804
:2062800064E8001810B5202A04DB0146203A9140002010BD914020239C1A0346E3401943BB
:2062A000904010BD10B5202A06DBCB170846203A1041C1170B4306E00B461341D040202471
:2062C000A21A91400843194610BD000000487047A0E500183A2800D23038202302469A431A
:2062E000412A01D310463738884201D30020C0437047F7B582B0029C00272078641C15460C
:206300000197302802D0002D15D015E020780127641C782804D0582802D0002D09D00BE0BD
:20632000002D01D0102D07D1002710252078641C02E0082500E00A250026009610E0009973
:20634000012769430818020C294680B2714300908E183804864201D3012001902078641C0E
:206360002946FFF7B7FF0028E9DA0398002805D0002F01D0641E00E0029C0460019800285A
:2063800006D003F075FC02210160C81E05B0F0BD009930040843F9E7F8B504F0E5F904F08C
:2063A00099FAA02300213F4ADB051A603E4B3F4A3F4C1A6022683F4B1A60228C3E4B1A602D
:2063C0003E4B19603E4B1D883E4B1E883E4B1F883E4BBF021F4204D03D4B0A0001201B6879
:2063E0009847B30A05D00022394B110001201B6898476D05374B3D4335431D6000F0DCFAC3
:20640000354B364A36481A606268364B1A60A268354B1A60E268354B1A602269344B1A60F3
:206420006269344B1A60344B344A1A60702301780A1D5A4302315432FF32C9B20904920845
:206440000A432F490A60618C2E4A116010212E4A11600278111D4B4303215433FF338B433C
:20646000911C0C224A4303329B18284A9B08127812041343264A1360A28C264B1A60A269BA
:20648000254B1A60E269254B1A60E28C244B1A6006F006FA04F070F9002004F0C7F902F06D
:2064A00097F9F8BD070710000C0000501E000100805E000018000050280000502C000050C4
:2064C0003CBF000040BF00003EBF0000FF03E0FF08BF00003C000050E00000502C017C01B7
:2064E000B5BE0000E4000050E8000050EC000050F0000050F400005020010050D90296FF1C
:20650000300100503401005038010050B7BE00006001005064010050680100506C0100509B
:2065200080010050FEE70000024B1B890380002383707047B45E00000EB4FFB504000026B2
:20654000FF2709AB1B7801930AAB0393019B9E4205D1200004B0F0BC08BC03B01847039BA9
:2065600001361A000C3203929A681868551CEDB259683A40257060700135A01C78F01CFD52
:206580006419E3E7002070470020704770B588B06B46062602AC22000120D91DDE71002571
:2065A00001F0DCFCA84214D0022104A806F046FD320004A9200078F0FFFC402362795B42FF
:2065C000134363716B4622000120D97901F052FD013510232100042004AA237001F0BEFC71
:2065E000002811D1002D18D10D49032076F018FC0322072101230B4876F0DAF801230370F5
:2066000076F0FAF808B070BD042104A806F016FD0420217804AA01F02DFD01F077FDE3E7AE
:20662000ACE50018020D000070B505000C001E00032A04D0D2229549954805F049FF280A2F
:20664000310A142810D80A2818D90B38092815D878F09AFC12016300A5001F0014001400F7
:206660001400140014001A01C82800D128E107D8242800D129E1874B262804D0002070BDB2
:20668000854BFD28FAD10A00280021001B689847F4E7824BE8181B28F0D878F057FC0E12F7
:2066A000EF16EFEFEFEFEF3A36EFEFEFEF2EEF32EF1AEF1EEF22EF26EF2A200001F01EF833
:2066C000DCE7200001F01CF8D8E7200001F032F8D4E7200000F05EFFD0E7200000F09AFE51
:2066E000CCE7200001F03EF8C8E7200001F02EF8C4E7200001F018F9C0E7200001F0EAF853
:20670000BCE7200001F006F9B8E7200001F072F8B4E7200001F0D2F8B0E7614BE8181728B4
:20672000ACD878F013FC0CAB10AB14181C20AB24ABAB282CABABABABAB30AB34AB382000A2
:2067400001F0DCF99AE7200001F0BAFA96E7200001F05CFA92E7200001F03EFA8EE72000F2
:2067600001F01EFA8AE7200001F002FA86E7200001F0B4FA82E7200001F062FA7EE720000B
:2067800001F07EFA7AE7200001F0BCFA76E7200001F0C2FA72E7200001F09EF96EE7414B5C
:2067A0009D4261D01AD8404B9D4259D03F4B9D4252D01C3B9D4200D060E72378AA2B00D923
:2067C0005CE79F2B15D8032B25D0172B38D0012B00D053E7607800F019FD4FE7344B9D42AA
:2067E00046D0344B9D4200D048E7200000F0C8FC44E71800A0380A2800D93FE778F0BAFBE9
:206800000F000F000F000F00140018003EFF1C003EFF24002800607800F01EFD2EE718001E
:20682000617800F079FC29E7607800F037FD25E7607800F034FD21E7607800F091FC1DE7A8
:20684000607800F05FFA19E7607800F0F3FC15E7607800F015FD11E7200000F0A9FC0DE7E9
:20686000200000F041FA09E7200000F02DFC05E7200000F02FFC01E70F4B9D4200D0FDE6A9
:20688000200000F00DFDF9E60C4BFCE6D8E50018C4E50018605F00005C5F000000F2FFFFC6
:2068A00000F4FFFFA40D0000150D00001C0D0000A50D0000A70D0000010B0000585F0000C1
:2068C0002100280001F030FDD8E6014BDBE6C046545F000000207047002070470020704748
:2068E00010B5062278F05AFB43425841C0B210BD10B50D20134903F0DBFE134C1E202100B9
:2069000003F0D6FE21001F2003F0D2FE2100032003F0CEFE2100132003F0CAFE01F09AFBF5
:206920000A4B0B4A0B481A600B4A5A600B4A9A6001F0A2FA06F04CFB74F0BAFF00F0E8FAC9
:2069400010BDC04699630018DF060000C0BE00005D7F0018D0BE000075800018197F0018AE
:2069600010B575F0B9FB59F043FC10BD10B503F057FF0028FBD175F039F80D4B1B68984792
:20698000040007F011FC06F0FDFA002809D103F089FE002805D175F0B1F8022801D104F08A
:2069A00001F907F002FC034B20001B689847DEE794BE000098BE00009422124BD2031A6049
:2069C000114B124A1A60124B124A1A60124B134A1A60134B134A1A60134B144A1360144A5C
:2069E0001360144B144A1A60144B154A1A60154B154A1A60154B164A1A60164B164A1A6007
:206A00007047C046700000507400005020500000780000504000C0C87C00005000E400E4A1
:206A2000800000505A065A005006500084000050880000508C000050065000009000005068
:206A4000021C1C0094000050020E0E0098000050362664039C000050160003030723164ABD
:206A600010B511680B43136004F05EF8134B1A68134B1A60134A12685A60134A12689A60B3
:206A8000124A1268DA60124A12681A61114A12685A61114A12689A61104A1268DA61104ACC
:206AA00012681A840F4A12685A840F4A12689A840E4A1268DA8410BD300000501800005037
:206AC000805E0000E4000050E8000050EC000050F0000050F4000050680100506C01005036
:206AE000280000503401005064010050800100502A4AF0B516889446F24304000021284BB5
:206B000085B000AF1B783A60CDB2AB420ED9796078683A680131024101200242F4D0020016
:206B2000796825708A40614632430A806A46FB730733DB08DB00D31A9D460F236A464F2038
:206B4000F9186E4601F00AFA002822D1144AFB7B1278AA4218D19D4204D031221149124873
:206B600005F0B6FC357830002570FC7B711C013C220078F02AFA35553200F97B4F2001F07D
:206B800079FABD4605B0F0BD2278F2540133FB73F2E70123FB7323783370EDE7745F00004B
:206BA000505F000000E6001823E60018F0B506000F00150097B0002934D03F224379002483
:206BC0009343402B12D1184B0100393A17481D6078F0F2F901F0AEFB17B0F0BD144B0122FB
:206BE0001B882341134207D10134E4B2114B1B78A342F3D8FF2013E0200001A900F094F89F
:206C000052236B441B78BB42EED1310013A8FFF767FE0028E8D0074B20001B78A342E9D92E
:206C2000A847D9E70C00E1E76C5F0000645F0000745F0000505F000010B57030C0B201F0F9
:206C40006BF910BDF7B501228240224900AF0B88040093436A460B801F4B4F201B78F91D2E
:206C6000FB710733DB08DB00D31A9D466A466D4601F074F9002804D046221849184805F005
:206C800027FC0023FA79681ED9B28A4206D80FD150221249134805F01BFC09E0591C465C6C
:206CA000A64211D1013AE818D21A691878F084F9F9790139C9B2F971002907D02A004F2053
:206CC00001F0D8F9BD46F7BD0B00DDE74F2001F023F9F7E7745F0000505F000000E6001892
:206CE0003FE600184FE60018002210B5034B18781A70034B1B68984710BDC046705F000069
:206D00006C5F000010B5472805D1034A13780133137001F00FFB10BD705F0000014B1870A4
:206D20007047C046505F000007B56B460A00D91D52237030C0B20B7001F010F90EBD07B5F7
:206D40006B460A00D91D01236030C0B20B7001F005F90EBD07B56B460A00D91D0623503011
:206D6000C0B20B7001F0FAF80EBD000070B5002401250A4B1B78A34200D870BD2000703077
:206D8000C0B201F09FF9002805D02B00A340044A11880B4313800134E4B2EAE7505F0000DA
:206DA000745F000010B570300A005221C0B201F061F910BD002070470020704710B50421FC
:206DC00006F03CF910BD10B5040051F01FFD010020000622103078F0EFF851F0E1FCA0758A
:206DE00051F00EFD10220100200078F0E5F810BD10B51C2278F0E0F810BD00290DD00B7849
:206E000003704B7843708B788370CB78C3700B7903714B79437100238371704710B51022E8
:206E200078F0CAF810BD0000F0B5314E0821330061331B7899B01B02194305003423032271
:206E40002C4875F0B5FC03AF0400FF2D34D039002800FFF769FF00280FD15B236B441A783C
:206E6000230028331A70032217AB1B781340033B5A42534122002A32137069462800FFF701
:206E80005EFF002809D16B4602221B781A40DB07DB0F1343220029321370280001A9FFF7E7
:206EA00059FF002808D16B469B88A3856B46DB88E3856B461B892386200075F09DFC3300B2
:206EC00061331A78716800208D5432005A32128839003A8032005C3212887A8032005E3251
:206EE0001288BD71BA801A783368984719B0F0BDD45E0000020E000010B500F029F80020D6
:206F000010BD10B548680B689847002010BD000010B5044B044918780A30C0B275F080FF6F
:206F200010BDC046B6BE0000B8E50018044B10B50400186805F032F9002800D0446010BD34
:206F4000AC5E0000014B18607047C046AC5E0000054B013810B5C1B2186805F046F943687C
:206F60008068984710BDC046AC5E0000084B10B50C0001008260186805F03CF9054B01303B
:206F8000197822000A31C0B275F0D6FA10BDC046AC5E0000B6BE0000064B010010B5186874
:206FA00005F028F9044B01301978C0B20A3175F05DFB10BDAC5E0000B6BE0000002070471E
:206FC0000020704700207047002070470020704700207047F7B516230500027AB020013215
:206FE000534305210322000175F0E2FB002304006A7A0380033343801107D306DB0F890F73
:207000004901DB0192070B43120F134303712B7A1022437127002968063077F0CDFF0023A9
:207020006E6816370193019A2B7A934203D8200075F0E2FBF7BD10223800316877F0BCFF6E
:20704000F379B2791B0213433B82B3881B051B0D7B82B38808361B0B1B03BB82019B163706
:207060000133DBB2DEE7000070B50500DA202C2303220721000175F09BFBA02303702B7AF3
:2070800004004370002303712A7B42716A7B0372C280AB7A0622437229680A3077F08CFFEF
:2070A0006B7A20002374AB886361EB88A361EB7A23770123637775F09FFB6A7B014B1A730C
:2070C00070BDC046B45E00000278014B1A707047B05E000013B543780400032B0BD80A4A6A
:2070E000D05C6A46237801A91371A3785371074B1B68984713BD402205480649FF3205F064
:20710000E7F90020EDE7C046A4E50018C85E00006CE60018B4E6001813B56030C0B20C00DC
:2071200003280BD8094B185C6A46094B54711B7801A91371074B1B68984713BDEE2206480D
:207140000649520005F0C4F90020EDE7A8E50018B05E0000C85E00006CE60018B4E60018F3
:2071600007B56A46044B50711B780A201371034B01A91B68984707BDC45E0000C85E0000EC
:207180001FB503006A461A330093831C0193037A69469372038B1381437CD37243780B2018
:2071A0001373024B1B68984705B000BDC85E000013B5838801AC23800388262B1BD00AD836
:2071C000142B0ED0242B18D0FE220D490D48FF3205F07EF907E0C82B0BD0FD2BF4D103232B
:2071E00000E00023A370084B210002201B68984713BD0123F6E70423F4E70523F2E7C046A7
:20720000B4E600186CE60018C85E000010B5002804D050220449054805F05AF90021044BA7
:2072200008001B68984710BDB4E600186EE60018C85E000010B5002805D0A82204490548AD
:20724000520005F045F9AA2000F01AFC10BDC046B4E600186EE6001810B5002804D05622AF
:207260000449054805F034F9044B002101201B68984710BDB4E600186EE60018C85E00004E
:2072800010B5044B9A7B002A03D1587B024900F0CFFB10BDB45E00002965001870477047FC
:2072A00007B56A46038801A99380837803209371014B1B68984707BDC85E000070B50D002E
:2072C000040051F06DFA01231840287051F09EFA06220100200077F06FFE70BD014B186007
:2072E0007047C046C85E000037B53423072103220500264875F05CFA254B02000380E123F4
:207300009B0043806B46991D102304000A3204200B7000F023FE002804D02D221D491E486E
:2073200005F0D6F86B46D91D06230120221D0B7000F014FE002804D030221649174805F0DC
:20734000C7F82B78002B03D00123A27E1343A3766B78002B03D00423A27E1343A376FB2266
:20736000032362840E4AE376A2840E4A00232285E28422002A32A383E3832384200013704E
:20738000A385E38575F038FA37BDC046040D0000030F0000B4E6001889E600189EE60018D4
:2073A0004808000007020000F7B508AC27780C4C0193267B042533002B402E420AD1A373C0
:2073C000019B6073A92021606360A272E77200F057FBF7BD00220349607300F029FBF8E79A
:2073E000B45E00002965001810B500F039FB10BD00207047002070470020704700207047C3
:207400000020704710B50400FFF716FC2000FFF719FC10BDF8B5040000780D00023805282F
:2074200030D877F09DFD03302F4B4073A3784F4C2200573213701B070FD52300200008337B
:20744000243046C846C346C846C302681A6022000123583211780B431370636858195B5DA8
:20746000FF2B01D1FFF744FB210063680831585DFFF798FC00F04AFE2A00012057342178D0
:2074800000F048FEF8BD394E7368585CFF2806D0FFF7B8FF00F03AFEFF2273685A552A0044
:2074A0000020A178ECE7324B01201B6831499847314B10211B68A01C9847E3E72C4F012015
:2074C0003B682E4998472C4DA61C30002B681021984712343B6801202949984720002B6897
:2074E00006219847214D04232A0028005832117840300B4313703100102277F05DFD2800FF
:2075000007222100503077F057FDBBE7184D01201C492B689847184FA61C102130003B68BA
:207520009847012018492B689847200002213B6812309847012015492B6898472000082137
:207540003B6814309847227F2B68012010499847064C1C2220003100243077F02DFD0223ED
:2075600058342278134323708CE7C046D45E0000B0BE0000F8E60018ACBE0000E9E600189C
:2075800017E7001808E7001829E70018D7E6001839E70018F0B5050000780C0087B00A2802
:2075A0001AD877F0DDFC061919193D72781B196C7E00484B1A0060321278FF2A07D16A7857
:2075C00004A90A70042022001B68984704E000222000110000F0ECF907B0F0BD3D4E0121BF
:2075E000320037005832137808370B4338000331137005F023FD384B1B68984730833000B4
:2076000002211A3005F01AFD6B780336F377334B0122009307213B00200000F0EFF9DBE71A
:207620006B78012B09D0022B1CD0002B20D1294B0A000C201B6804A9C7E7274B1B689847D1
:20764000274944F059FC0D00200000F07DFD2A00244904A802F0CAFA1E4B220009201B686A
:2076600004A9B2E71B4B0A000A201B6804A9ACE7AD221D491D48520004F02AFFACE7154B6B
:207680000A000D201B6804A99FE7194B0122009305210023C0E7174B012200930621002391
:2076A000BAE70422691C03A877F086FC039A0D4904A802F09BFAC0B2062805D070220A496A
:2076C0000D48FF3204F004FF024B22000B201B6804A97AE7D45E0000C4BF0000F16D0018D7
:2076E00040420F0061E7001875E700184FE70018C76D0018BD6D001851E700187047000042
:207700000A4B10B51A00613211701A0041885A3211801A0081885C321180C2885E331A806A
:20772000417A034A0A30FFF741FA10BDD45E0000296E001807B583780A0001A90B70024BF5
:2077400001201B68984707BDD45E000007B503780A0001A90B70024B08201B68984707BDAF
:20776000D45E00000823F0B50D0099B009020190194303220A331D4875F01AF81C4E04000D
:2077800073680027585DFF2820D003A9FFF7CCFA012217AB1B78134218D002AB9A8A019B91
:2077A0001B889A4212D11621019802AB08220230C91877F0F3FBB84208D11022601C03A92B
:2077C00077F0FAFB02AB9B7F013763742000277075F012F8002F06D1062303A90B702A00D1
:2077E00007203368984719B0F0BDC046180E0000D45E000073B506780D00012E2DD0022E05
:207800003ED0002E28D16B461E80294B0A001B6869460E2098476B461B88002B04D1254B63
:207820006A4601930E2313806B4608211B882D020A3303229BB229431F4874F0B9FF0023D3
:2078400003706B461A88040042800199043077F0B3FB200074F0D0FF73BD0B0208210322DB
:20786000194315480A2374F0A3FF002304004380811C2A000F200E4B1B6898472670E8E71C
:207880000B020821032219430B480A2374F090FF06234380183383800023C3802D33FF338C
:2078A0000381034B0400811C2A0010201B68E4E7D45E000067E700180B0E000007B50378C5
:2078C0000A0001A90B70024B11201B68984707BDD45E000030B585B06B46DD1D01230C00AE
:2078E0002B700B4B0A000290039502A902201B6898472102E1200824062303222143000131
:207900002D7874F055FF057074F076FF05B030BDD45E000010B5034B0A0001001B68032024
:20792000984710BDD45E000007B503780A0001A90B70024B05201B68984707BDD45E000039
:2079400010B50C0001214CF01DF807220100200077F032FB10BD000010B5084C206004F0AB
:20796000A3F8220007215832137860608B431370FF2360342370FFF7F9F910BDD45E0000CC
:2079800010B50C0008210002014303220623064874F00EFF1423037023884380034B838031
:2079A00074F02AFF10BDC0462B0E00009042000037B51300094A0D0000920A00012104003B
:2079C00000F01CF8002D07D0054920000B00503160331C70FFF7B4FF37BDC046FB6D001863
:2079E000D45E000007B5044A0B0000920421012200F004F807BDC0461D6E0018F8B50F0051
:207A00000821000216001D00032201432223074874F0CEFE0400290007704670069B0230AE
:207A20009847200074F0E8FEF8BDC046140E0000F8B507000D0016003A2303220721074850
:207A400074F0B6FEA42304003100037047700230A847200074F0D0FEF8BDC046A10D00000C
:207A600010B50322040007210223044874F0A0FEA5234470037074F0BFFE10BDA20D0000F1
:207A800070B50600124DAA2814D0AB7A032207211048043374F08CFEAA7A2968040042803C
:207AA000043077F089FA26706B7B2000637074F0A3FE70BDEB7A032207210648043374F06C
:207AC00077FEEA7A0400428069680430E9E7C046B45E0000A60D00000623090210B5194312
:207AE00004880322044874F063FE002304804380037174F081FE10BD180C00007FB50300DB
:207B000000780A000C3807280FD877F029FA1A240E0E0E0E04106846598881805B7801A968
:207B200083710220114B1B68984707B000BD6846598881805B7801A983710C4B03201B68FF
:207B4000F2E76846598881805B7801A98371074B0B201B68E8E76846598881805B7801A96F
:207B60008371024B0C201B68DEE7C046385F000030B587B06A4603880400138180780D00BF
:207B800000F060F96B469872044B03342A0009201B68019401A9984707B030BD385F00002C
:207BA00070B5038886B001ADAB8043880400EB8003790E002B72407900F044F9054B063435
:207BC00068723200290008201B680194984706B070BDC046385F000070B586B0438801ADFD
:207BE000AB8083880400EB8080790E0000F02AF9054B0734A8723200290007201B68019487
:207C0000984706B070BDC046385F000070B5038886B001ADAB8043880400EB8000790E0085
:207C200000F010F9054B053428723200290006201B680194984706B070BDC046385F000030
:207C400010B586B06A4683880C0093804388D380831D02930378122B04D05322054906485F
:207C600004F036FC054B220004201B6801A9984706B010BDD6E7001898E70018385F0000B6
:207C800010B586B06A4683880C0093804388D380831D02930378132B04D049220549064828
:207CA00004F016FC054B220005201B6801A9984706B010BDD6E70018B6E70018385F000077
:207CC0007FB503880A0001A90B80034B0D201B68984707B000BDC046385F00007FB50388F9
:207CE0000A0001A98B804388CB80838806300B81034B01901B680A20984707B000BDC046FD
:207D0000385F000010B503000088024A00F052F810BDC046A985001810B503000088024A41
:207D200000F048F810BDC046C585001880880131401880B27047000010B50400024875F0EB
:207D400053FD024B1C6010BD3C5F0000385F0000F7B50F0006211D0008AB1E880002B31DE1
:207D60000192014303229BB2084874F021FD0400019B32002900078046800371053077F090
:207D80001BF9200074F038FDF7BDC046140C000013B5049C01941224009400F025F813BD98
:207DA00010B5908091710248110075F033FD10BD3C5F000070B515000E001900094B0400DB
:207DC000186800280BD08288944209D983799B189C4205DC013CA21A3300D2B2A84770BD24
:207DE0000068EEE73C5F0000F7B51D0008AB1B7816000193099B124F0091002B01D03A889E
:207E00001A8006212B0000020143C120083303229BB2000174F0CCFC0400019B3100037031
:207E20003B88C5805A1C4380009B3A8083802A00083077F0C1F8200074F0DEFCF7BDC0460F
:207E4000725F000003000120042B03D0103B5A4253415800704700207047002070470020D3
:207E6000704700207047002070470020704700207047002070470000002310B504000362C7
:207E800043621B4B8AB0436105F0CDFB23002C33187005F0C6FB23002D331870154BA3620C
:207EA000154B2360154B6360154BE361154BA361FEF782FD25236A461370243B69465A1E3F
:207EC000CA5401330C2BF9D11A330B73193B69469A1ECA540133272BF9D1802102AAD377C4
:207EE00068462822490073F0B7FC0AB010BDC04615D600185D6A0018E9D5001869D4001891
:207F0000EDD5001811D600180020704700207047002070470020704710B5041E0DD16E22D7
:207F20000A490B4804F0D4FA0A4BA1B2186805F0AFFD431E9841C0B207E01228F4D8012353
:207F40008340054A05201342EED010BDFAE700181DE800184C5F000080E00600F7B5060031
:207F60000D001400002813D11A223749374804F0AFFA6A462B783648D3806B46220000689D
:207F8000B1B2063305F0B6FF002858D0012029E001381128EDD876F0D9FF09ECECECECEC07
:207FA00048ECECECECEC2A352AEC40450B78052B19D906276B4626480F70DB1901210068F5
:207FC0001F8005F097FF00280CD03A002100302005F0ABFBE3192278FF2A06D101349C4284
:207FE000F9D13000FEBD0426FBE70026F9E70B780420012BF6D9022300200B701C33137086
:208000005070EFE70B780420012BEBD902230B70FA331370F53B637002E003F02BFD207053
:208020000020DFE701231370FAE70B780420012BD8D902230B70F2331370F33BEBE76B4655
:20804000DB882B70CEE7C046FAE700181DE800184C5F000010B5044B044A1968044805F082
:208060002BFE002010BDC046D80A0000FEFF00004C5F000070B504000E00150000280FD106
:2080800087220C490C4804F023FA0C48B3B22A000068A1B205F08AFF431E9841C0B207E0CE
:2080A0001228F2D801238340054A05201342ECD070BDC046FAE700181DE800184C5F00005C
:2080C00080E0060010B5041E0AD1A1220C490D4804F0FEF90C4BA1B2186805F03BFF10BDFA
:2080E00001381128F6D876F031FF09F5F5F5F5F509F5F5F5F5F5090909F509090120EEE7EE
:20810000FAE700181DE800184C5F000010B505F095FF10BD094B73B51D00072658352C788C
:20812000B4432C701C00FF25603425706C461B6820716171062001A9984773BDD45E00009A
:20814000002070470020704730B504000D0087B00C22019103A8002176F04AFF200002A93E
:208160000295FFF73FFC07B030BD00207047002070470000014B024A1A60704764BA0000FE
:2081800085810018C3B210B5462B21D80020132B28D9153B1800312B28D876F0E1FE2B4644
:2081A00049404324212E313A3D34374C4FB952B755585E5B64616A677C79827F706D767358
:2081C00085888B8E91949DA0979AA3A6A9ACAFB2C82B00D198E00020FD2B03D14D4B06E011
:2081E000FFF747FE10BDFFF742FEFBE74A4B1B689847F7E7FFF7FCF8F4E7FEF7DDFDF1E71E
:20820000FEF7D8FDEEE700F00BFAEBE700F006FAE8E7FFF72AFEE5E7FFF725FEE2E7FFF777
:20822000EDF8DFE7FFF7ECF8DCE700F07EF8D9E700F07DF8D6E700F0CFF8D3E700F0CAF88B
:20824000D0E7FEF747FBCDE7FFF709FECAE7FFF708FEC7E7FFF7FFFDC4E7FFF7FEFDC1E7EE
:2082600000F0B4F8BEE700F0B3F8BBE7FEF7AEFEB8E7FEF7ADFEB5E7FEF7A4FEB2E7FEF7DF
:20828000A3FEAFE7FFF744FEACE7FFF743FEA9E7FEF778F9A6E7FEF777F9A3E7FFF750FFEE
:2082A000A0E7FFF74FFF9DE7FFF730FE9AE7FFF72BFE97E7FFF7A0F894E7FFF79BF891E723
:2082C00000F0BAF98EE700F0B5F98BE7FEF706FB88E7FEF701FB85E700F0A6F982E700F0CC
:2082E000A1F97FE700F0A4F97CE700F09FF979E7FFF73DFF76E7FFF738FF73E7FEF760FE3D
:2083000070E7FEF75BFE6DE7044B70E7044B6EE7044B6CE7D05E0000CC5E0000485F000079
:20832000445F00007C5E000070470020704700207047000000220121F0B51E4B1E4C1F7808
:208340001E4B97B01E882378D8B287422BD935001D4101330D4224D0002A00D0207001A997
:20836000FEF7E2FC15AB1B785B071CD5182303220721134874F01CFA172304000370163B25
:20838000437006220F49023076F016FE2000102208300FA976F010FE200074F02DFA17B0D6
:2083A000F0BD0A00D0E700232370074BFF201B689847F4E7505F0000705F0000745F00009A
:2083C000140D0000645F00006C5F000000207047002070470020704700207047F0B5354C6C
:2083E000354D2560354C364D2560364C364D2560364C374D2560374C374D2560374C384D44
:208400002560384C384D2560384C394D2560394C394D2560394C3A4D25603A4C3A4D256007
:208420003A4C3B4D25603B4C3B4D25603B4C3C4D25603C4C3C4D25603C4C3D4D25603D4CCA
:208440003D4D25603D4C3E4D25603E4C3E4D25603E4C3F4D25603F4D3F4C25603F4C404D8B
:20846000404E2560404C414D2560414C414D2560414C424D2560424C424D2560424D434C49
:2084800025608408A7007F1937608E083619404FB40064193C609408A419A40064193D4DB0
:2084A0002C603D4C20603D4801603D490A603D4A1360F0BD04BA00007C0B000008BA0000A3
:2084C000880B0000B4B90000800B00000CBA0000D410000060BA0000C0100000B8B900000C
:2084E000890B0000A0B90000840B0000A4B900008A0B000014BC00003C12000018BC00001C
:208500006C1200000CBC0000B412000010BC0000DC1200004CBD00001011000050BD00005E
:20852000910B000054BD00003E13000050BE00001C1100006CBE00002811000054BE00008D
:208540003411000060BE00004011000044BC0000481300004C1100003CBC000040BC0000BB
:208560000C13000070BE000068BA00008B0B000088BA00008E0B0000F0BB0000241200003A
:2085800060BF0000E01000007013000074BE000078BE00007CBE0000A0BE00009CBE0000EF
:2085A000A4BE0000A8BE000010B586B001A90A71034A0190146800201A00A04706B010BDD5
:2085C000385F000070B586B01C006B460D00DE1C00233370AB1D0190039602936B8801A9EB
:2085E0008B81AB880120CB810A4B0A741B68220098472102062404230322214306482D8878
:20860000367874F0D5F80580867074F0F5F806B070BDC046385F0000160C00000020704736
:208620000020704700207047002070470020704700207047002070470020704700B57346EB
:2086400005F0B2F800BD000003B40148019001BDAF09000003B40148019001BDC709000098
:2086600003B40148019001BDC100000003B40148019001BD3D07000003B40148019001BD08
:20868000AB06000003B40148019001BD9906000003B40148019001BDC100000003B401482B
:2086A000019001BD1D08000003B40148019001BD9D09000003B40148019001BDFF040000FF
:2086C00003B40148019001BDE304000003B40148019001BD5106000003B40148019001BD6F
:2086E0005906000003B40148019001BD6106000003B40148019001BD7108000003B401489D
:20870000019001BDC506000003B40148019001BD6506000003B40148019001BDFD03000036
:2087200038B5044600687D25C1682D02C943C90718D1C16849084900C160FFF785FF00215C
:2087400000912346084A2946FFF784FF002809D0E06B10210843E063206C0121084320645D
:20876000052038BD002038BD6DA50018F8B5044600687D25C1682D02C943C9071CD0C16856
:2087800001263143C1601022521EFDD1FFF75CFF23460A4A29460096FFF75CFF00280BD046
:2087A000E06B10210843E063206C304320640020203420760520F8BD0020F8BD6DA5001849
:2087C00010B50248006800F009FB10BD0C0B00000120044940030860BFF34F8FBFF36F8FF1
:2087E0007047000080E100E0F0B501680446002938D0880880000019FF3001300023C06824
:208800008907890F0BD0012907D0022903D0032906D1C3B204E0000AFBE7000CF9E7030E11
:208820000022124D072617462068232801D1072A10D0B01A1946C140C8072978C00F0029E5
:2088400003D0002806D02F7004E0002800D0012000F020F8521C082AE6D32068401C2060E6
:20886000242801D00020F0BD0120F0BDEC0A000007490028086802D01D20C00601E0192073
:20888000C006086048688007FCD50120704700000023004007490028086802D0072040073F
:2088A00001E003208007086048688007FCD50120704700000023004007490028086802D0C8
:2088C0000F20000701E00D200007086048688007FCD501207047000000230040074900282A
:2088E000086802D01F20C00601E01B20C006086048688007FCD501207047000000230040A4
:20890000F8B5134F3869002485B201263046A040284206D0386BA100C840C0B2214602F078
:208920006FFE641CE4B2082CF0D308243046A040284207D0796BA0002038C140C8B221463C
:2089400002F05EFE641CE4B2102CEFD3F8BD00000004014070B58CB0064600200C46012576
:208960000A90242109956846FDF759F921463046089501F0BEFF214630462C312C3001F0D7
:20898000B8FF21465831684601F0B3FF0CB070BD70B50C46054601F0ACFF214628462C3166
:2089A0002C3001F0A6FF214628465831583001F0A0FF70BD70B58CB00546012600242421E6
:2089C000684609960A94FDF72AF929466846089401F08FFF29462C316846089601F089FFCC
:2089E000294658316846089401F083FF0CB070BD10B5002400280AD001280BD002280BD0E5
:208A0000512206A113A003F063FD204610BD0924E406FAE7104CF8E7104CF6E72E2E5C2EB1
:208A20002E5C2E2E5C2E2E5C736F635C61726D5F636D5C6C65353031785C696E746567720C
:208A40006174696F6E5C696F5F636F6E6669672E6300000030000000000400480008004895
:208A6000084901200862074840304068064948800120064980040860BFF34F8FBFF36F8F00
:208A80007047000000040040140B000080E100E07047000070B50A680C460546002A1AD07C
:208AA000012A18D0022A16D0032A14D0042A12D0052A10D0062A0ED0072A0CD0082A0AD03A
:208AC000092A08D00B2A06D00A2A04D0364A37A13FA003F0FDFC6268012A1BD0022A19D060
:208AE000032A17D0042A15D0052A13D0062A11D0072A0FD0082A0DD0092A0BD00A2A09D0F2
:208B00000B2A07D00C2A05D0274A28A1521C39A003F0DEFCA06800280BD0012809D00228B9
:208B200007D0032805D0204A20A1921C3AA003F0CFFC2E462036307E012810D001203076A5
:208B400060680F2208280CD829688000001F0B6B824093432268824013430B630BE00220AD
:208B600070BD2968800024384B6B824093432268824013434B6328680269217803234900BA
:208B80008B409A43A3688B401A43026120680A2801D101F0E3FC2068092801D101F0DAFCE9
:208BA0000020307670BD00009A0500002E2E5C2E2E5C2E2E5C2E2E5C7065726970686572E4
:208BC000616C5C7372635C6C736164632E63000049535F4144435F4348414E4E454C28737A
:208BE000436F6E6669672D3E4368616E6E656C290000000049535F4144435F524547554C31
:208C000041525F52414E4B2873436F6E6669672D3E52616E6B29000049535F4144435F53B0
:208C2000414D504C455F54494D452873436F6E6669672D3E53616D706C696E6754696D6511
:208C40002900000070B5054600F0C4F8FDF7A4F8214A224BFDF738F8FDF7ACF8254E84B202
:208C6000336822461EA1012098471920C001844205D2326820A101209047022005E0002021
:208C800003F08FF9002802D0012000F0CFFE1E4A01211E48944201D905220FE01A4A963A97
:208CA000944201D9042209E0E1221201944201D9032203E0164A944202D90222427000E060
:208CC0004170017001F035FC284600F039FB284600F020F870BD00009CC420B072680040D1
:208CE000492F424C453A626174746572793A256400000000B0BE0000492F424C453A747753
:208D0000696E6B20726564006E0F0000A80A0000480D000070B504000BD0E06B0221084375
:208D2000E0632046FFF7FCFC00250646002802D046E0052070BD21683720486020688168C0
:208D4000214A114081602068C168204A1140C16020680169090E0906016120688169090BE9
:208D6000090381612068C169090B0903C1612068016A090B090301622068416A090B090348
:208D800041622068816A090B090381622068C16A090B0903C1622068016B05632068416B34
:208DA000090C090441632068016C094A11400164204600F047FA204600F056FA2564E563E1
:208DC00020342576304670BD00E030FFFCF6FFFFF0F0F0F00068406E7047000070B5044606
:208DE0000068816801268906B6070125002925DA0168890722D5FF2103314160E06BC0066B
:208E000003D4E06B69020843E063E069B04212D1207B00280FD1206881682D4A114081605C
:208E2000E06BFF2101318843E063E06BC00402D4E06B2843E0632046FFF704FF20688168D9
:208E4000490402D48168090630D50168890602D4016849072AD5E16BC90604D4E16B01220A
:208E600052031143E1630122E1699205914207D08268520513D4B14211D1217B00290ED1B6
:208E800081680122920391438160E06B91108843E063E06BC00502D4E06B2843E0638920FA
:208EA0002168800048602046FFF7F2FD2068816849060BD50168C90708D0E16B0122120480
:208EC0001143E1634560204600F0B6F970BD0000DFDFFFFFF8B5040052D06068002808D0CC
:208EE0000121C902884204D08B226FA177A003F0EFFAA068002807D0C11FF93904D08C229C
:208F000069A17CA003F0E4FA207B002806D0012804D08D2264A182A003F0DAFA206A002875
:208F200008D0012806D0022804D08E225EA189A003F0CEFAA06800281ED02069401E0F288D
:208F400004D9932258A18BA003F0C2FA207D002812D0012807D0942253A193A003F0B8FA83
:208F6000207D002808D0A069401E072804D997224DA19BA003F0ACFAE06B002802D005E03C
:208F80000320F8BD0020206438210855204600F071F9204600F051F92046FFF7C1FBE16BDB
:208FA00010231940014303D0E06B1843E0635CE0E16B11221202914302252943E163227B0E
:208FC0006168012A00D12943626A002A0FD0012A10D0032252060A432168CE68904F3E409A
:208FE0001643CE60267DA168012E06D010E003221206F0E701221206EDE7267B002E25D062
:20900000E66B20273E43E663266C01273E4326642768BE68BC46834F3E400E436746BE6006
:2090200021684E6C2769360936017F1E3E434E642168C9687C4E314091420ED100212164CA
:20904000E16B89088900491CE1630FE0268B1F273604FF02F61B3143DAE7E06BA843184309
:20906000E063206C0121084320640520216A002906D0012906D06D49A26A002A05D005E0DB
:209080006B49F9E76A491031F6E7052252070923520F9B02D2180A4321688B6E654C2340F4
:2090A00013438B66F8BD00002E2E5C2E2E5C2E2E5C2E2E5C7065726970686572616C5C73D9
:2090C00072635C6C736164632E63000049535F4144435F444154415F414C49474E286861D0
:2090E00064632D3E496E69742E44617461416C69676E290049535F4144435F5343414E5F48
:209100004D4F444528686164632D3E496E69742E5363616E436F6E764D6F6465290000007C
:2091200049535F46554E4354494F4E414C5F535441544528686164632D3E496E69742E4339
:209140006F6E74696E756F7573436F6E764D6F646529000049535F565245465F5357495403
:20916000434828686164632D3E496E69742E56726566290049535F4144435F524547554C22
:2091800041525F4E425F434F4E5628686164632D3E496E69742E4E62724F66436F6E766501
:2091A0007273696F6E29000049535F46554E4354494F4E414C5F53544154452868616463D5
:2091C0002D3E496E69742E446973636F6E74696E756F7573436F6E764D6F646529000000A7
:2091E00049535F4144435F524547554C41525F444953434F4E545F4E554D424552286861AF
:2092000064632D3E496E69742E4E62724F6644697363436F6E76657273696F6E29000000B1
:20922000F1FFFFC8E0FEF0FFFEFEBFBFC0C1000010410000880A0000704710B5012001F03E
:2092400083F910BD0649486A4A1590434862054950010860BFF34F8FBFF36F8F70470000EA
:209260000010024080E100E010B5002001F06CF910BD000070B50C4C0646A069651528439C
:20928000A061A169A943A16108490E2001F010FA0748084906606801086007490860606A02
:2092A0002843606270BD000000100240C18700180C0B000080E200E000E100E070B5054618
:2092C00004462035287E012809D0012028762046FFF74CFA0022002803D02A7670BD0220DA
:2092E00070BDE16B154B1940FF2301331943E16321688B685B0506D5E36B01267603B343AB
:2093000076103343E363E36BDB0404D5236C0626B343236400E022642A7602224A60216870
:209320008A6820231A438A60E1695A069142D7D12168CB681343CB6070BD0000FEF1FFFF35
:2093400070B5054604462035287E012807D001262E762046FFF7E4F9002802D00CE002204C
:2093600070BD21688A6820239A438A60E16B1122120291433143E1630021297670BD704778
:20938000134610B50A46194601F0A2FB0021084601F00AF9002010BD30B5114C23698A07C3
:2093A0000C25120FAB431A4322610D4A0368403A13614368536183689361C368D361103000
:2093C00000290AD003681362436853620830012903D0016891624068D062002030BD0000D2
:2093E0004028004010B500F045F800F031F8002010BD000010B50E4C6069C00716D0012017
:20940000A06101F0EFF80B48C068002802D001F0FBF80BE020698006800F01D0012100E0BE
:20942000002120698007C00FFFF7A9FF606910BD40280040DC0A000010B500F021F800F0AC
:2094400002F8002010BD10B5012001F051FB10BD01200649C0020860BFF34F8FBFF36F8F5B
:209460000349086A0A1590430862704780E100E00010024010B5002001F03AFB10BD0000B0
:2094800010B50849086A0A151043086206490B2001F00EF901200549C002086004490860A8
:2094A00010BD000000100240F593001880E200E000E100E010B5029C9B07A4079B09A40BE7
:2094C00089062343890C0B439106890E0B430349800040180360002010BD0000004801403B
:2094E00010B500F003F8002010BD00000349486A0122D205104348627047000000100240D1
:2095000010B500F047F800F033F8002010BD00000749064A0A604A68D207FCD04A689207A3
:20952000FCD58A680260002008607047050B0200001C004010B504480221C1610021416140
:20954000806800F047F810BD001C004010B500F027F800F007F8024907200861002010BD40
:20956000001C004010B5012004F018FE10BD00000120064940020860BFF34F8FBFF36F8F78
:209580000349086A802290430862704780E100E00010024010B5002004F000FE10BD000040
:2095A00010B50849086A8022104308620649092001F07EF801200549400208600449086017
:2095C00010BD0000001002403595001880E200E000E100E07047000010B513498A68134C5E
:2095E000607882438A608A6802438A60C00702D01F2002F0D3FB6078C00602D5002002F0A4
:20960000CDFB6078800602D5072002F0C7FB6078400602D51B2002F0C1FB6078800701D55F
:2096200003F0FEFF10BD0000401402402C0B0000F0B58BB00D4607461646142103A8FCF7F1
:20964000EEFA002000905E4C01900290089009900A902268142D03D3280701D1402D02D9F0
:2096600058A101208AE05B480078002805D05AA10120904701200BB0F0BD5BA101209047DE
:209680002946384601F052FA23685C4A5CA1012098470A2259496846FEF7E2FF23686A46E5
:2096A0005BA101209847554A23681F3A5DA101209847524968461F39FCF7D7FA00280BDCB9
:2096C0005DA16846FCF7D1FA002805D022685DA1012090470520CEE748480A2269461F3807
:2096E000FEF7BEFF5CA14548FCF7A4FA050040D05AA1FCF79FFA00283BD0421BA91C08A8FC
:20970000921EFEF7ADFF56A13C48FCF793FA050031D052A1FCF78EFA00282CD0421BA91C43
:209720003046921EFEF79CFF344910220A3103A8FEF796FF236803AA4AA1012098472F4AB8
:209740002368143A4BA1012098472C4903A81439FCF78BFA002814D0284930461439FCF72C
:2097600084FA00280DD0226845A101209047042081E748A100E04CA122680120904700201A
:2097800079E74EA108A8FCF770FA00280BD04DA108A8FCF76AFA00280BD022684AA10120DC
:2097A0009047062067E722684CA101209047022061E722684DA10120904703205BE70000B0
:2097C000B0BE0000492F424C453A434D445F4552524F5200C40A0000492F424C453A434DF6
:2097E000445F425553590000492F424C453A6465636F6465496E666F000000002F0C0000D3
:20980000492F424C453A636D643A257300000000492F424C453A63757254696D653A25738D
:2098200000000000492F424C453A6C61737454696D653A25730000003034353037323030FC
:2098400030300000492F424C453A434D445F4F56455254494D450000413A00003B000000CF
:20986000503A0000492F424C453A74656D7050773A257300492F424C453A70773A2573004C
:20988000492F424C453A434D445F50574552524F52000000492F424C453A434D445F455290
:2098A000524F522041000000492F424C453A434D445F4552524F5220500000004F50454E70
:2098C0000000000050570000492F424C453A434D445F554E444546494E450000492F424CD5
:2098E000453A434D445F4F50454E0000492F424C453A434D445F50570000000010B500F070
:209900002DF910BD70B5124D064628780C46002801D100F023F9EFF31081012080F31088ED
:20992000182046437019426A056A13461830521C954200D100220569954204D04568EC54E3
:20994000C260012000E00020C9B281F3108870BDB00C000070B5044680692038807F082875
:2099600008D28000044D211D26680EC92D583046A847206070BD0000FCE4001810B51649E6
:2099800002280A680AD0002820D0012805D113A1904701210D2002F055FB10BD154C0A20C6
:2099A000207115A101209047A068002803D11848FDF7BCFAA06000210D2002F043FBFF21BC
:2099C0000022F531A068FDF7D1FA10BD11A1012090470021DEE70000B0BE0000492F424CA7
:2099E000453A5365744C6564426C756520434C4F53450000A80A0000492F424C453A53659A
:209A0000744C6564426C7565205457494E4B000045E00018492F424C453A5365744C656485
:209A2000426C7565204F50454E00000070B50446FF20184D022CE8700DD0E868002801D0AD
:209A4000FDF7AAFA002C23D0012C03D101210E2002F0F8FA70BD164C0FA122680120904759
:209A6000E868002803D11348FDF760FAE86000210E2002F0E7FA0020A87022680EA10120F5
:209A80009047FF210022F531E868FDF76FFA70BD0021DCE7A80A0000492F424C453A5365DA
:209AA000744C6564526564205457494E4B000000B0BE00007DE00018492F424C453A737406
:209AC0006172205365744C6564526564205457494E4B0000704700003EB51048FFF7FAF99F
:209AE0000F4C002803D022680EA101209047062000900120019002200290002569460748A0
:209B0000FEF7C8FF00F01AFD0D48057022680DA1012090470148FFF7D1FB3EBDCC0B0000AB
:209B2000B0BE0000492F424C453A48414C5F4144435F496E6974206572726F7200000000F9
:209B4000A80A0000492F424C453A48414C5F4144435F53746172745F4954000010B5124C46
:209B600003202061606111A0A0611348E061012080020021A16220620CA2226601206162CF
:209B8000E0620E4A626610222167A266E16660670BA1E01DFCF777F80AA12046FCF773F819
:209BA0002020A07110BD0000B00C00005465726D696E616C00000000765F000076630000E1
:209BC0005254540053454747455200000FB410B503A9044B044A029800F00AF910BC08BCE0
:209BE00004B01847D5B60018980B00000FB410B504A9074B02AA039800F0FAF8044602A967
:209C0000002000F091FC204610BC08BC04B0184729A5001810B5024B024A00F0E9F810BDBC
:209C2000D5B60018980B00002021020C01D010211046020A01D010460839020901D0104691
:209C4000091F820801D01046891E420801D0881E7047081A704730B47446641E2578641CF6
:209C6000AB4200D21D46635D5B00E31830BC184700487047A80B000002E008C8121F08C103
:209C8000002AFAD170477047002001E001C1121F002AFBD170470000F0B51FB484B0079875
:209CA0000699020D014314D04A484B491018484305140F9801280E981CD0281A401C0024B8
:209CC000464E4749009401910290002814DA474227E00F98012443A3012808D00021049892
:209CE0000F9A84600360C260416009B0F0BD0E98C143F4E74042E2E7074612E0F80707D066
:209D00002246334601990098FBF7DEFF019100902246334610461946FBF7D6FF04460E4644
:209D20007F10002FEAD10298019B0028009A0799069802DAFBF7C8FF01E0FCF7E5F90446E3
:209D40000E460022284BFCF777FA03D80020C043014607E00022254B20463146FCF722F90D
:209D6000FCF74AFA102409E0002C0ADB0A220023FCF73EF8059B30321A55641E02460A437E
:209D8000F2D11122641C059B121B1C190F9B012B03D0012308430ED10AE0084304D011201A
:209DA0000E9000200F9084E70E98151A6D1E0BE00E98824202DD00236D1C03E0824201DA19
:209DC00000236D1E002BEED004980F998260C16030C08AE701FCFFFF104D00000000244088
:209DE0000000F03F300000000000F0430000E03FFFB597B00646002518E2252877D1002493
:209E00002746FD49049400E00443761C32780120203A90400842F7D130782A280ED002223B
:209E2000307801463039092916D804990A235943303940181443761C0490F1E7189802C8B4
:209E400004911890002904DA0120400304434842049002200443761C30782E2814D10420F3
:209E600004437078761C2A2809D11898761C80C8189009E00A214F43303FC719761C307894
:209E8000014630390929F5D930786C2810D006DC4C281AD068280ED06A2817D104E074284E
:209EA00013D07A2812D110E00120400504430CE00121090501E0032109050C437178814273
:209EC00003D1012000052418761C761C3078119066280BD013DC58287DD009DC00287BD062
:209EE0004528F6D04628F4D047281AD1A5E118E0632835D0642870D0652812D19DE1702843
:209F00006CD008DC6728F1D069287BD06E280DD06F2806D1BAE073282ED0752871D0782863
:209F200059D01A9A199990476D1C7EE16002400F022809D003280DD00428189801680DD0F5
:209F40000D60001D189070E11898EA1701680D604A60F6E7189801680D80F2E70D70F0E79D
:209F600018986A4601781172001D18900020507202A80090012005E0189802C8189000205C
:209F80000091C04361070DD5002101E00199491C0191B94212DA8142F8DB009A515C002963
:209FA000F4D10BE0002101E00199491C01918142FADB019A0099895C0029F5D10199049888
:209FC0001A9B471A21463846199A00F097FA0199401945180BE04FE02CE113E04EE0009822
:209FE00000990078491C00911A9A199990470198401E0190401CF2D1214638461A9B199A29
:20A0000010E137E00A200021009001916002410F022907D0189A01CA1892C2179446032911
:20A0200008D00AE01898C01DC108C90005C91891944607E000B2C2179446042902D140B2B0
:20A04000C1178C4600226146944506DA0A460021404291418C462D2102E0210504D52B21C2
:20A060006A461173012103E0E10701D02021F7E7029155E00A200AE0102008E0102000901B
:20A080000021042004430191082703E008200021019100906002410F022907D0189A01CAF4
:20A0A000189200229446032908D008E01898C01DC108C90005C91891944603E080B204295C
:20A0C00000D1C0B200210291210729D51199702906D0009A1021019B4A401A4305D00EE039
:20A0E00040216A461173012108E06146014306D030216A4611731199517302210291009ABD
:20A100000821019B4A401A430AD16146014301D1610705D530216A46117301217F1E0291E2
:20A120001199582904D035A10E910DA90D910DE037A1F9E76146019B009AFBF759FE0E9BE3
:20A140008C469B5C0D9A521E0D92137061460143F0D10D9805A9081A20300190600703D5BC
:20A1600001200004844300E001270198874201DD381A00E00020019900904118029809181B
:20A180000498401A0490E00306D421461A9B199A049800F0B3F94519002706E003A81A9AA7
:20A1A000C05D199990476D1C7F1C02988742F5DBE0030CD521461A9B199A049800F09EF9EC
:20A1C000451904E01A9A3020199990476D1C0099481E00900029F5DC08E00D980D990078F3
:20A1E000491C0D911A9A199990476D1C0199481E01900029F1DC63E10928010030313233D3
:20A20000343536373839616263646566000000003031323334353637383941424344454600
:20A220000000000000F05AF94519761C3078002800D0E2E528461BB0F0BD600700D4062736
:20A240001898C01DC108C90048680A680831C30FDB071891190001D09CA108E0210501D51C
:20A260009BA104E0E10701D09AA100E09AA1430011985B08109165280CD006DC452809D02E
:20A2800046281DD0472841D141E0662818D067283CD13CE00021112F01DB112000E0781CB1
:20A2A0000191009008A911A8FFF7F6FC139905910021119A15927F1C12980197009150E0D7
:20A2C0000120C00703900120019008A9009711A8FFF7E2FC139A149905920022119B00922B
:20A2E00012981593059A0192002901D0104602E0791C40180190381A01D5019804E0404203
:20A30000401E0090781C0190C01B029043E0012F00DA01270021112F01DD112000E038469A
:20A320000191009008A911A8FFF7B6FC13990591119A0021129815920091019721070CD459
:20A340000599B94201DB019900E00191012904DD159A491E515C302906D0B84201DA011D8C
:20A3600005DA0121029115E00199491EEDE7002805DC0099411800910199091A03E0019AB8
:20A38000411C914200DD01910099401A401C02900120C0070390200706D4029901988142CA
:20A3A00002DB0020C043029000206946C87707AF012103980337C907884224D002201190FF
:20A3C0002B201290039800280CDA404203902D20129007E00A21039841F08EFD30317F1E7C
:20A3E000039039701199481E11900029F2DC03980028EFD1791E129808703078202108400C
:20A400004530BF1E387006A8C01BC01D039010980078002800D00120019941180298C017AC
:20A420000918039809180498401A401E0490E00306D421461A9B199A049800F05FF845198A
:20A4400010980078002803D01A9A199990476D1CE00324D521461A9B199A049800F04EF89E
:20A4600045191CE00098002807DB00990598884203DD1598405C199901E0199930201A9A6E
:20A48000904700986D1C401C00900298401E0290002804D11A9A2E20199990476D1C0199A3
:20A4A000481E01900029DDDC05E038781A9A7F1C199990476D1C0399481E03900029F4DC3F
:20A4C00021461A9B199A0498ACE600002D0000002B0000002000000000000000F8B5044610
:20A4E00000251E461746880404D405E039462020B0476D1C641EF9D52846F8BDFFB504467D
:20A50000002581B01E46C80301D5302700E02027880404D505E038460399B0476D1C641EFC
:20A52000F9D5284605B0F0BD0A68531C0B601070704710B5022000F07BF810BD10B50220FC
:20A5400000F07FF810BD00000149C87370470000685E000010B503F08BFA10BD02494868C0
:20A560008A1510434860704740140240016840680968C968C907C90F814201D1012070472C
:20A5800000207047DB0180010343080103435000034303480169034A11400B4303617047A0
:20A5A000402800400DAFFF7FF3B581B00B4C0C4F029D012600232846019A0299FFF7E2FFCA
:20A5C00000F022F800256069C007FCD0A66100F009F8F8680028EDD1FEBD0000402800404F
:20A5E000DC0A000010B500F019FA06480178426852184260826852188260C268511AC16044
:20A6000010BD0000DC0A000010B50749C868102800D31020087000F09DF904490869012228
:20A620001043086110BD0000DC0A00004028004001B5684603F04EF86846007801F01CFB38
:20A6400008BD31B56846057801242809FEF7D0F9C36A2907CA0E032191408B4394402343DE
:20A66000C36202698A432243026138BD10B5FDF7FDFFFEF701F8002801D1FEF703F80849E2
:20A68000886B01229204904388630549403148687F2212049043012252058018486010BDD0
:20A6A000001402400148007870470000940B000080000164704700002848C1690021C943CA
:20A6C000C161826901228261426900224261026900220261C2680022C26082688160426824
:20A6E0004160026801601D48C030C1690021C1618169002181614169002141610169002147
:20A700000161C1680021C160816800218160416800214160016801210160C16B0021C163B9
:20A72000816B00218163416B00214163016B00210163C16A0021C162816A00218162416ABD
:20A7400000214162016A00210162054801680549016041688907FCD57047000000200040C0
:20A7600000230040380000800249086808221043086070474010024003490248086003498B
:20A7800008607047080008C080E200E000E100E010B5094C2068C00104D5E42207A111A02C
:20A7A00001F096FE2068C001FCD501201A49400308601A49086010BD401402402E2E5C2EB7
:20A7C0002E5C2E2E5C2E2E5C736F635C61726D5F636D5C6C65353031785C736C6565702E91
:20A7E000630000005245475F4649454C445F5244285359534346472D3E504D555F505752B4
:20A800002C5359534346475F424C455F505752335F5354293D3D300080E200E000E100E0A4
:20A8200001480078704700002C0B000001490870704700002C0B00000548426941150A431E
:20A84000426142698A434261026A0A43026270470010024030B51502064A039C15635162FE
